:100000000C942A000C9447000C9447000C94470071
:100010000C9447000C9447000C9447000C94470044
:100020000C9447000C9447000C9447000C94470034
:100030000C9447000C9447000C9447000C94470024
:100040000C9447000C9447000C9447000C94470014
:100050000C94470011241FBECFE5D8E0DEBFCDBF12
:1000600010E0A0E6B0E0E8E6FBE002C005900D92EB
:10007000A637B107D9F710E0A6E7B0E001C01D929E
:10008000AB37B107E1F70E9409050C94B2050C9457
:100090000000DF93CF93CDB7DEB72C970FB6F8945F
:1000A000DEBF0FBECDBF69877A878B879C87898526
:1000B0009A85AB85BC8522E731E040E050E0BC0189
:1000C000CD010E947105DC01CB0189839A83AB834A
:1000D000BC831D821E821F8218860CC000008D8189
:1000E0009E81AF81B8850196A11DB11D8D839E8330
:1000F000AF83B8872D813E814F81588589819A8150
:10010000AB81BC81281739074A075B0738F32C9667
:100110000FB6F894DEBF0FBECDBFCF91DF9108952B
:10012000DF93CF93CDB7DEB72C970FB6F894DEBF31
:100130000FBECDBF69877A878B879C8789859A8513
:10014000AB85BC8527E731E040E050E0BC01CD0144
:100150000E947105DC01CB01895D9444A040B04050
:1001600028EE33E040E050E0BC01CD010E94900554
:10017000DA01C90189839A83AB83BC831D821E8205
:100180001F8218860CC000008D819E81AF81B885CA
:100190000196A11DB11D8D839E83AF83B8872D81EC
:1001A0003E814F81588589819A81AB81BC81281716
:1001B00039074A075B0738F32C960FB6F894DEBF71
:1001C0000FBECDBFCF91DF910895DF93CF93CDB711
:1001D000DEB7EAE3F0E08FEF8083E7E3F0E0108240
:1001E000E4E3F0E01082E1E3F0E08FEF8083CF9171
:1001F000DF910895DF93CF9300D0CDB7DEB7898329
:100200006A838981883060F58A818823A1F4ABE311
:10021000B0E0EBE3F0E08081482F8981282F30E0C7
:1002200081E090E0022E02C0880F991F0A94E2F745
:10023000842B8C93B3C0ABE3B0E0EBE3F0E08081C0
:10024000482F8981282F30E081E090E0022E02C003
:10025000880F991F0A94E2F7809584238C939EC09F
:100260008981883090F18981803178F58981885041
:1002700089838A818823A1F4A8E3B0E0E8E3F0E071
:100280008081482F8981282F30E081E090E0022E84
:1002900002C0880F991F0A94E2F7842B8C937EC0CA
:1002A000A8E3B0E0E8E3F0E08081482F8981282FBF
:1002B00030E081E090E0022E02C0880F991F0A947E
:1002C000E2F7809584238C9369C08981803190F115
:1002D0008981883178F58981805189838A81882351
:1002E000A1F4A5E3B0E0E5E3F0E08081482F898147
:1002F000282F30E081E090E0022E02C0880F991F85
:100300000A94E2F7842B8C9349C0A5E3B0E0E5E3BF
:10031000F0E08081482F8981282F30E081E090E053
:10032000022E02C0880F991F0A94E2F78095842359
:100330008C9334C08981883188F18981803270F54D
:100340008981885189838A818823A1F4A2E3B0E05E
:10035000E2E3F0E08081482F8981282F30E081E0BE
:1003600090E0022E02C0880F991F0A94E2F7842BB6
:100370008C9314C0A2E3B0E0E2E3F0E08081482F68
:100380008981282F30E081E090E0022E02C0880FA2
:10039000991F0A94E2F7809584238C930F900F9015
:1003A000CF91DF910895DF93CF9300D000D0CDB7E8
:1003B000DEB78C838C81883000F58C818B83E9E3F8
:1003C000F0E08081482F50E08B81282F30E081E0E1
:1003D00090E002C0880F991F2A95E2F79A0128231E
:1003E00039238B81882F90E0A90102C0559547954C
:1003F0008A95E2F7CA018A8374C08C81803120F12A
:100400008C81883108F58C8188508B83E6E3F0E09D
:100410008081482F50E08B81282F30E081E090E0F0
:1004200002C0880F991F2A95E2F79A0128233923E1
:100430008B81882F90E0A90102C0559547958A9538
:10044000E2F7CA018A834DC08C81803120F18C8112
:10045000883108F58C8180518B83E6E3F0E0808160
:10046000482F50E08B81282F30E081E090E002C0DF
:10047000880F991F2A95E2F79A01282339238B8147
:10048000882F90E0A90102C0559547958A95E2F71B
:10049000CA018A8326C08C81883118F18C81803210
:1004A00000F58C8188518B83E0E3F0E08081482F58
:1004B00050E08B81282F30E081E090E002C0880F6F
:1004C000991F2A95E2F79A01282339238B81882FD7
:1004D00090E0A90102C0559547958A95E2F7CA01B7
:1004E0008A838A81882319F481E0898304C08A8100
:1004F000813009F4198289810F900F900F900F902D
:10050000CF91DF910895DF93CF93CDB7DEB7EBE3C3
:10051000F0E08FEF8083CF91DF910895DF93CF9349
:10052000CDB7DEB760970FB6F894DEBF0FBECDBF74
:100530009B878A87CE0102969D878C87E5E6F0E04F
:10054000FF87EE87F8E0F88BEE85FF8500808E85CB
:100550009F8501969F878E87EC85FD8500828C851F
:100560009D8501969D878C8798899150988BE88905
:10057000EE2351F7198221C0ABE3B0E08981282F27
:1005800030E0CE010296FC01E20FF31F80818C93D4
:10059000A2E3B0E08981282F30E08A859B85FC01A9
:1005A000E20FF31F80818C9362E070E080E090E0C6
:1005B0000E94490089818F5F898389818830E0F2B8
:1005C00060960FB6F894DEBF0FBECDBFCF91DF911E
:1005D0000895DF93CF930F92CDB7DEB7898388E07C
:1005E00060E00E94FA008981982F917080E0692F65
:1005F0000E94FA008981882F90E082709070959512
:100600008795982F81E0692F0E94FA008981882FB1
:1006100090E0847090709595879595958795982F23
:1006200082E0692F0E94FA008981882F90E088700B
:100630009070959587959595879595958795982F21
:1006400083E0692F0E94FA008981882F90E08071F1
:10065000907095958795959587959595879595959E
:100660008795982F84E0692F0E94FA008981882F4E
:1006700090E0807290709595879595958795959562
:1006800087959595879595958795982F85E0692FFE
:100690000E94FA008981882F90E080749070082E63
:1006A000892F000C881F990B000C881F991F982F09
:1006B00086E0692F0E94FA008981982F991F992757
:1006C000991F87E0692F0E94FA000F90CF91DF9168
:1006D0000895DF93CF9300D00F92CDB7DEB78B8311
:1006E0008B81853020F58B81882F90E0FC01E05ACA
:1006F000FF4F80810E94D3018A838B81882F90E0F5
:10070000FC01EA58FF4F90818A81981719F481E023
:1007100089830EC08B81882F90E0FC01EA58FF4F3F
:1007200090818A81981721F082E0898301C0198223
:1007300089810F900F900F90CF91DF910895DF93F3
:10074000CF9300D000D0CDB7DEB79C838B838B8155
:100750009C81FC01379680818A838B819C81DC019E
:100760001796EB81FC8180818C93198218C0898156
:10077000282F30E08B819C81DC01A20FB31F89817F
:10078000882F90E09C012F5F3F4F8B819C81FC0163
:10079000E20FF31F80818C9389818F5F8983898128
:1007A000863028F38B819C81FC0136968A81808378
:1007B0000F900F900F900F90CF91DF910895DF93DE
:1007C000CF9300D000D0CDB7DEB79C838B83EB8175
:1007D000FC8180818A838B819C81FC01379680819A
:1007E000EB81FC81808387E0898318C08981282F71
:1007F00030E08B819C81DC01A20FB31F8981882F9F
:1008000090E09C01215030408B819C81FC01E20FE3
:10081000F31F80818C938981815089838981823003
:1008200028F78B819C81FC0131968A8180830F900F
:100830000F900F900F90CF91DF910895DF93CF939A
:1008400000D000D0CDB7DEB79C838B831A8219828B
:100850003EC08981282F30E08B819C81FC01E20F12
:10086000F31F8081882F90E081709070882311F0B1
:1008700081E08A838981282F30E08B819C81DC0193
:10088000A20FB31F8981282F30E08B819C81FC014E
:10089000E20FF31F808186958C938A818130A1F4C9
:1008A0008981282F30E08B819C81DC01A20FB31F4E
:1008B0008981282F30E08B819C81FC01E20FF31F9E
:1008C000808180588C931A8289818F5F8983898186
:1008D000883008F4BECF0F900F900F900F90CF91FB
:1008E000DF910895DF93CF9300D000D0CDB7DEB76E
:1008F0009C838B831A82198257C08981282F30E00C
:100900008B819C81FC01E20FF31F8081881F882767
:10091000881F882F90E0907081309105A9F481E0C4
:100920008A838981282F30E08B819C81DC01A20F92
:10093000B31F8981282F30E08B819C81FC01E20F5D
:10094000F31F808180588C938981282F30E08B8120
:100950009C81DC01A20FB31F8981282F30E08B819D
:100960009C81FC01E20FF31F8081882F90E0880FAB
:10097000991F8C938A818130A1F48981282F30E0DE
:100980008B819C81DC01A20FB31F8981282F30E06D
:100990008B819C81FC01E20FF31F80818F5F8C9320
:1009A0001A8289818F5F89838981883008F4A5CF75
:1009B0000F900F900F900F90CF91DF910895DF93DC
:1009C000CF9300D00F92CDB7DEB79B838A838A8105
:1009D0009B810E941E048A819B810E941E041982B1
:1009E00007C08A819B810E948E0289818F5F8983E3
:1009F00089818830B0F38A819B810E9472048A8148
:100A00009B810E9472040F900F900F90CF91DF9105
:100A10000895DF93CF93CDB7DEB72E970FB6F89436
:100A2000DEBF0FBECDBFCE0102969B878A87EDE663
:100A3000F0E0FD87EC87F8E0FE87EC85FD8500801F
:100A40008C859D8501969D878C87EA85FB85008234
:100A50008A859B8501969B878A879E8591509E8774
:100A6000EE85EE2351F70E94E500198207C0CE0102
:100A700002960E948E0289818F5F898389818830E6
:100A8000B0F30E94830280E00E946903823021F467
:100A9000CE0102960E949F0381E00E94690382308A
:100AA00021F4CE0102960E94DF0382E00E946903D6
:100AB000823021F4CE0102960E941E0483E00E943F
:100AC0006903823021F4CE0102960E94720484E010
:100AD0000E946903823049F6CE0102960E94DF042B
:100AE000C4CF629FD001739FF001829FE00DF11D82
:100AF000649FE00DF11D929FF00D839FF00D749F98
:100B0000F00D659FF00D9927729FB00DE11DF91F43
:100B1000639FB00DE11DF91FBD01CF0111240895A0
:100B2000A1E21A2EAA1BBB1BFD010DC0AA1FBB1FF1
:100B3000EE1FFF1FA217B307E407F50720F0A21B63
:100B4000B30BE40BF50B661F771F881F991F1A94D0
:100B500069F760957095809590959B01AC01BD01FA
:080B6000CF010895F894FFCFC6
:100B680008090A0B0CFEFDFBF7EFDFBF7F0000341E
:060B7800484834000000B3
:00000001FF
