:100000000C942A000C943F000C943F000C943F0089
:100010000C943F000C943F000C943F000C943F0064
:100020000C943F000C943F000C943F000C943F0054
:100030000C943F000C943F000C943F000C943F0044
:100040000C943F000C943F000C943F000C943F0034
:100050000C943F0011241FBECFE5D8E0DEBFCDBF1A
:1000600010E0A0E6B0E0EAEEF8E002C005900D92E4
:10007000A837B107D9F70E94CF030C9473040C94EE
:100080000000DF93CF93CDB7DEB72C970FB6F8946F
:10009000DEBF0FBECDBF69877A878B879C87898536
:1000A0009A85AB85BC8522E731E040E050E0BC0199
:1000B000CD010E943204DC01CB0189839A83AB839A
:1000C000BC831D821E821F8218860CC000008D8199
:1000D0009E81AF81B8850196A11DB11D8D839E8340
:1000E000AF83B8872D813E814F81588589819A8160
:1000F000AB81BC81281739074A075B0738F32C9678
:100100000FB6F894DEBF0FBECDBFCF91DF9108953B
:10011000DF93CF93CDB7DEB72C970FB6F894DEBF41
:100120000FBECDBF69877A878B879C8789859A8523
:10013000AB85BC8527E731E040E050E0BC01CD0154
:100140000E943204DC01CB01895D9444A040B040A0
:1001500028EE33E040E050E0BC01CD010E945104A4
:10016000DA01C90189839A83AB83BC831D821E8215
:100170001F8218860CC000008D819E81AF81B885DA
:100180000196A11DB11D8D839E83AF83B8872D81FC
:100190003E814F81588589819A81AB81BC81281726
:1001A00039074A075B0738F32C960FB6F894DEBF81
:1001B0000FBECDBFCF91DF910895DF93CF93CDB721
:1001C000DEB7EAE3F0E08FE08083E7E3F0E08FEF73
:1001D0008083E4E3F0E08FEF8083E1E3F0E08FEFF2
:1001E0008083CF91DF910895DF93CF9300D0CDB777
:1001F000DEB789836A838981883060F58A818823A4
:10020000A1F4ABE3B0E0EBE3F0E08081482F89811B
:10021000282F30E081E090E0022E02C0880F991F65
:100220000A94E2F7842B8C93B3C0ABE3B0E0EBE32A
:10023000F0E08081482F8981282F30E081E090E034
:10024000022E02C0880F991F0A94E2F7809584233A
:100250008C939EC08981883090F18981803178F5B6
:100260008981885089838A818823A1F4A8E3B0E03A
:10027000E8E3F0E08081482F8981282F30E081E099
:1002800090E0022E02C0880F991F0A94E2F7842B97
:100290008C937EC0A8E3B0E0E8E3F0E08081482FD3
:1002A0008981282F30E081E090E0022E02C0880F83
:1002B000991F0A94E2F7809584238C9369C0898101
:1002C000803190F18981883178F5898180518983E5
:1002D0008A818823A1F4A5E3B0E0E5E3F0E0808122
:1002E000482F8981282F30E081E090E0022E02C063
:1002F000880F991F0A94E2F7842B8C9349C0A5E3D9
:10030000B0E0E5E3F0E08081482F8981282F30E0DC
:1003100081E090E0022E02C0880F991F0A94E2F754
:10032000809584238C9334C08981883188F18981B8
:10033000803270F58981885189838A818823A1F46C
:10034000A2E3B0E0E2E3F0E08081482F8981282F2A
:1003500030E081E090E0022E02C0880F991F0A94DD
:10036000E2F7842B8C9314C0A2E3B0E0E2E3F0E068
:100370008081482F8981282F30E081E090E0022E93
:1003800002C0880F991F0A94E2F7809584238C930A
:100390000F900F90CF91DF910895DF93CF9300D00E
:1003A00000D0CDB7DEB78C838C81883000F58C818E
:1003B0008B83E9E3F0E08081482F50E08B81282F88
:1003C00030E081E090E002C0880F991F2A95E2F7A3
:1003D0009A01282339238B81882F90E0A90102C03C
:1003E000559547958A95E2F7CA018A8374C08C8136
:1003F000803120F18C81883108F58C8188508B8385
:10040000E6E3F0E08081482F50E08B81282F30E038
:1004100081E090E002C0880F991F2A95E2F79A01C7
:10042000282339238B81882F90E0A90102C055959C
:1004300047958A95E2F7CA018A834DC08C81803145
:1004400020F18C81883108F58C8180518B83E6E323
:10045000F0E08081482F50E08B81282F30E081E050
:1004600090E002C0880F991F2A95E2F79A0128238D
:1004700039238B81882F90E0A90102C055954795BB
:100480008A95E2F7CA018A8326C08C81883118F1E7
:100490008C81803200F58C8188518B83E0E3F0E021
:1004A0008081482F50E08B81282F30E081E090E060
:1004B00002C0880F991F2A95E2F79A012823392351
:1004C0008B81882F90E0A90102C0559547958A95A8
:1004D000E2F7CA018A838A81882319F481E089833B
:1004E00004C08A81813009F4198289810F900F90AC
:1004F0000F900F90CF91DF910895DF93CF93CDB7F9
:10050000DEB762E370E080E090E00E94410088E3A3
:100510000E94B60261E070E080E090E00E9441003D
:100520008CE00E94B60261E070E080E090E00E9402
:10053000410081E00E94B60262E070E080E090E05D
:100540000E944100CF91DF910895DF93CF930F92E6
:10055000CDB7DEB7898388E060E00E94F40089812E
:100560000E94C7020F90CF91DF910895DF93CF9340
:100570000F92CDB7DEB7898388E061E00E94F40076
:1005800089810E94C7020F90CF91DF910895DF9378
:10059000CF9300D0CDB7DEB78A8389E061E00E94B7
:1005A000F400198234C08A81482F50E08981282FB5
:1005B00030E081E090E002C0880F991F2A95E2F7B1
:1005C0009A01282339238981882F90E0A90102C04C
:1005D000559547958A95E2F7CA01009759F08981A8
:1005E000882F90E0FC01E059FF4F808160E00E947D
:1005F000F4000AC08981882F90E0FC01E059FF4F88
:10060000808161E00E94F40089818F5F8983898104
:10061000883048F28AE060E00E94F40061E070E017
:1006200080E090E00E9441008AE061E00E94F400D6
:100630000F900F90CF91DF910895DF93CF9300D06B
:1006400000D0CDB7DEB79A8389836B834C838C81CE
:10065000882F90E000249695879507949695879526
:100660000794982F802D982F90688B81892B0E945A
:10067000B6020AC0E981FA8180810E94A5028981BF
:100680009A8101969A838983E981FA8180818823FE
:1006900089F70F900F900F900F90CF91DF910895F1
:1006A000DF93CF9300D0CDB7DEB79A8389830AC09A
:1006B000E981FA8180810E94A50289819A8101964F
:1006C0009A838983E981FA818081882389F70F9051
:1006D0000F90CF91DF910895DF93CF93CDB7DEB721
:1006E00081E00E94B60262E070E080E090E00E944B
:1006F0004100CF91DF910895DF93CF9300D000D0D8
:10070000CDB7DEB79B838A836C838C81882F90E082
:10071000880F991F880F991F880F991F80640E9466
:10072000B60219820EC08981282F30E08A819B8110
:10073000FC01E20FF31F80810E94A50289818F5F77
:1007400089838981883078F30F900F900F900F90F4
:10075000CF91DF910895DF93CF9300D00F92CDB763
:10076000DEB789836A834B838B81882F90E00024D6
:10077000969587950794969587950794982F802D41
:10078000982F90688A81892B0E94B60289810E94E5
:10079000A5020F900F900F90CF91DF910895DF93F6
:1007A000CF93CDB7DEB70E94DD000E947D020E948C
:1007B0006C0384E060E00E94F40085E060E00E9449
:1007C000F40084E00E94CD018130A9F480E060E073
:1007D0000E94F40081E060E00E94F40082E061E0A9
:1007E0000E94F40083E061E00E94F40080E690E063
:1007F0000E9450032EC085E00E94CD018130A9F4F3
:1008000080E061E00E94F40081E061E00E94F40079
:1008100082E060E00E94F40083E060E00E94F40067
:1008200086E690E00E94500314C080E061E00E94E0
:10083000F40081E061E00E94F40082E061E00E9447
:10084000F40083E061E00E94F4008BE690E00E94F7
:10085000500364E670E080E090E00E9441000E9456
:100860006C03AFCF629FD001739FF001829FE00DB8
:10087000F11D649FE00DF11D929FF00D839FF00D1F
:10088000749FF00D659FF00D9927729FB00DE11DCB
:10089000F91F639FB00DE11DF91FBD01CF011124A8
:1008A0000895A1E21A2EAA1BBB1BFD010DC0AA1FB1
:1008B000BB1FEE1FFF1FA217B307E407F50720F0C9
:1008C000A21BB30BE40BF50B661F771F881F991F44
:1008D0001A9469F760957095809590959B01AC018D
:0A08E000BD01CF010895F894FFCF89
:1008EA005249474854004C4546540053544F50000F
:0808FA0018191A1B1C1D1E1F1A
:00000001FF
