:100000000C942A000C9434000C9434000C943400AA
:100010000C9434000C9434000C9434000C94340090
:100020000C9434000C9434000C9434000C94340080
:100030000C9434000C9434000C9434000C94340070
:100040000C9434000C9434000C9434000C94340060
:100050000C94340011241FBECFE5D8E0DEBFCDBF25
:100060000E9440020C948B020C940000DF93CF930B
:10007000CDB7DEB72C970FB6F894DEBF0FBECDBF5D
:1000800069877A878B879C8789859A85AB85BC85AC
:1000900022E731E040E050E0BC01CD010E944A027D
:1000A000DC01CB0189839A83AB83BC831D821E82D2
:1000B0001F8218860CC000008D819E81AF81B8859B
:1000C0000196A11DB11D8D839E83AF83B8872D81BD
:1000D0003E814F81588589819A81AB81BC812817E7
:1000E00039074A075B0738F32C960FB6F894DEBF42
:1000F0000FBECDBFCF91DF910895DF93CF93CDB7E2
:10010000DEB72C970FB6F894DEBF0FBECDBF698760
:100110007A878B879C8789859A85AB85BC8527E7FD
:1001200031E040E050E0BC01CD010E944A02DC0118
:10013000CB01895D9444A040B04028EE33E040E01C
:1001400050E0BC01CD010E946902DA01C901898336
:100150009A83AB83BC831D821E821F8218860CC0CB
:1001600000008D819E81AF81B8850196A11DB11DD2
:100170008D839E83AF83B8872D813E814F815885C3
:1001800089819A81AB81BC81281739074A075B07AF
:1001900038F32C960FB6F894DEBF0FBECDBFCF91CB
:1001A000DF910895DF93CF93CDB7DEB7EAE3F0E0B8
:1001B0008FEF8083E7E3F0E081E08083E4E3F0E029
:1001C0001082E1E3F0E01082CF91DF910895DF9398
:1001D000CF9300D0CDB7DEB789836A838981883019
:1001E00060F58A818823A1F4ABE3B0E0EBE3F0E0B3
:1001F0008081482F8981282F30E081E090E0022E15
:1002000002C0880F991F0A94E2F7842B8C93B3C025
:10021000ABE3B0E0EBE3F0E08081482F8981282F49
:1002200030E081E090E0022E02C0880F991F0A940E
:10023000E2F7809584238C939EC08981883090F169
:100240008981803178F58981885089838A818823E2
:10025000A1F4A8E3B0E0E8E3F0E08081482F8981D1
:10026000282F30E081E090E0022E02C0880F991F15
:100270000A94E2F7842B8C937EC0A8E3B0E0E8E315
:10028000F0E08081482F8981282F30E081E090E0E4
:10029000022E02C0880F991F0A94E2F780958423EA
:1002A0008C9369C08981803190F18981883178F59A
:1002B0008981805189838A818823A1F4A5E3B0E0F4
:1002C000E5E3F0E08081482F8981282F30E081E04C
:1002D00090E0022E02C0880F991F0A94E2F7842B47
:1002E0008C9349C0A5E3B0E0E5E3F0E08081482FBE
:1002F0008981282F30E081E090E0022E02C0880F33
:10030000991F0A94E2F7809584238C9334C08981E5
:10031000883188F18981803270F58981885189839B
:100320008A818823A1F4A2E3B0E0E2E3F0E08081D7
:10033000482F8981282F30E081E090E0022E02C012
:10034000880F991F0A94E2F7842B8C9314C0A2E3C0
:10035000B0E0E2E3F0E08081482F8981282F30E08F
:1003600081E090E0022E02C0880F991F0A94E2F704
:10037000809584238C930F900F90CF91DF910895F7
:10038000DF93CF930F92CDB7DEB7898388E060E02B
:100390000E94E7008981982F917080E0692F0E9468
:1003A000E7008981882F90E08270907095958795FD
:1003B000982F81E0692F0E94E7008981882F90E0C3
:1003C000847090709595879595958795982F82E084
:1003D000692F0E94E7008981882F90E088709070D3
:1003E000959587959595879595958795982F83E011
:1003F000692F0E94E7008981882F90E080719070BA
:1004000095958795959587959595879595958795D4
:10041000982F84E0692F0E94E7008981882F90E05F
:100420008072907095958795959587959595879508
:100430009595879595958795982F85E0692F0E94CA
:10044000E7008981882F90E080749070082E892FB2
:10045000000C881F990B000C881F991F982F86E0AD
:10046000692F0E94E7008981982F991F9927991F6A
:1004700087E0692F0E94E7000F90CF91DF910895E8
:10048000DF93CF93CDB7DEB70E94D2008FEF0E94EB
:10049000C001FCCF629FD001739FF001829FE00DED
:1004A000F11D649FE00DF11D929FF00D839FF00DF3
:1004B000749FF00D659FF00D9927729FB00DE11D9F
:1004C000F91F639FB00DE11DF91FBD01CF0111247C
:1004D0000895A1E21A2EAA1BBB1BFD010DC0AA1F85
:1004E000BB1FEE1FFF1FA217B307E407F50720F09D
:1004F000A21BB30BE40BF50B661F771F881F991F18
:100500001A9469F760957095809590959B01AC0160
:0A051000BD01CF010895F894FFCF5C
:00000001FF
