:100000000C942A000C9427030C9447000C9447008E
:100010000C9447000C9447000C9447000C94470044
:100020000C9447000C9447000C945A060C942D062F
:100030000C9447000C9447000C9447000C94470024
:100040000C9447000C9447000C9447000C94470014
:100050000C94470011241FBECFE5D8E0DEBFCDBF12
:1000600010E0A0E6B0E0ECE1F0E102C005900D92F6
:10007000AC39B107D9F710E0ACE9B0E001C01D928E
:10008000AA3AB107E1F70E94C4060C940C080C943C
:100090000000DF93CF93CDB7DEB72C970FB6F8945F
:1000A000DEBF0FBECDBF69877A878B879C87898526
:1000B0009A85AB85BC8522E731E040E050E0BC0189
:1000C000CD010E94AB07DC01CB0189839A83AB830E
:1000D000BC831D821E821F8218860CC000008D8189
:1000E0009E81AF81B8850196A11DB11D8D839E8330
:1000F000AF83B8872D813E814F81588589819A8150
:10010000AB81BC81281739074A075B0738F32C9667
:100110000FB6F894DEBF0FBECDBFCF91DF9108952B
:10012000DF93CF93CDB7DEB72C970FB6F894DEBF31
:100130000FBECDBF69877A878B879C8789859A8513
:10014000AB85BC8527E731E040E050E0BC01CD0144
:100150000E94AB07DC01CB01895D9444A040B04014
:1001600028EE33E040E050E0BC01CD010E94EA07F8
:10017000DA01C90189839A83AB83BC831D821E8205
:100180001F8218860CC000008D819E81AF81B885CA
:100190000196A11DB11D8D839E83AF83B8872D81EC
:1001A0003E814F81588589819A81AB81BC81281716
:1001B00039074A075B0738F32C960FB6F894DEBF71
:1001C0000FBECDBFCF91DF910895DF93CF93CDB711
:1001D000DEB7EAE3F0E08FEF8083E7E3F0E08FEF54
:1001E0008083E4E3F0E08FEF8083E1E3F0E08BEFE6
:1001F0008083CF91DF910895DF93CF9300D0CDB767
:10020000DEB789836A838981883060F58A81882393
:10021000A1F4ABE3B0E0EBE3F0E08081482F89810B
:10022000282F30E081E090E0022E02C0880F991F55
:100230000A94E2F7842B8C93B3C0ABE3B0E0EBE31A
:10024000F0E08081482F8981282F30E081E090E024
:10025000022E02C0880F991F0A94E2F7809584232A
:100260008C939EC08981883090F18981803178F5A6
:100270008981885089838A818823A1F4A8E3B0E02A
:10028000E8E3F0E08081482F8981282F30E081E089
:1002900090E0022E02C0880F991F0A94E2F7842B87
:1002A0008C937EC0A8E3B0E0E8E3F0E08081482FC3
:1002B0008981282F30E081E090E0022E02C0880F73
:1002C000991F0A94E2F7809584238C9369C08981F1
:1002D000803190F18981883178F5898180518983D5
:1002E0008A818823A1F4A5E3B0E0E5E3F0E0808112
:1002F000482F8981282F30E081E090E0022E02C053
:10030000880F991F0A94E2F7842B8C9349C0A5E3C8
:10031000B0E0E5E3F0E08081482F8981282F30E0CC
:1003200081E090E0022E02C0880F991F0A94E2F744
:10033000809584238C9334C08981883188F18981A8
:10034000803270F58981885189838A818823A1F45C
:10035000A2E3B0E0E2E3F0E08081482F8981282F1A
:1003600030E081E090E0022E02C0880F991F0A94CD
:10037000E2F7842B8C9314C0A2E3B0E0E2E3F0E058
:100380008081482F8981282F30E081E090E0022E83
:1003900002C0880F991F0A94E2F7809584238C93FA
:1003A0000F900F90CF91DF910895DF93CF9300D0FE
:1003B00000D0CDB7DEB78C838C81883000F58C817E
:1003C0008B83E9E3F0E08081482F50E08B81282F78
:1003D00030E081E090E002C0880F991F2A95E2F793
:1003E0009A01282339238B81882F90E0A90102C02C
:1003F000559547958A95E2F7CA018A8374C08C8126
:10040000883020F18C81803108F58C8188508B8375
:10041000E6E3F0E08081482F50E08B81282F30E028
:1004200081E090E002C0880F991F2A95E2F79A01B7
:10043000282339238B81882F90E0A90102C055958C
:1004400047958A95E2F7CA018A834DC08C81803135
:1004500020F18C81883108F58C8180518B83E6E313
:10046000F0E08081482F50E08B81282F30E081E040
:1004700090E002C0880F991F2A95E2F79A0128237D
:1004800039238B81882F90E0A90102C055954795AB
:100490008A95E2F7CA018A8326C08C81883118F1D7
:1004A0008C81803200F58C8188518B83E0E3F0E011
:1004B0008081482F50E08B81282F30E081E090E050
:1004C00002C0880F991F2A95E2F79A012823392341
:1004D0008B81882F90E0A90102C0559547958A9598
:1004E000E2F7CA018A838A81882319F481E089832B
:1004F00004C08A81813009F4198289810F900F909C
:100500000F900F90CF91DF910895DF93CF93CDB7E8
:10051000DEB7A5E5B0E0E5E5F0E0808181608C9391
:10052000A5E5B0E0E5E5F0E0808182608C93ABE585
:10053000B0E0EBE5F0E080818F7B8C93AAE5B0E042
:10054000EAE5F0E0808180648C93CF91DF9108959B
:10055000DF93CF9300D0CDB7DEB79A8389838981AB
:100560009A8190939D0080939C000F900F90CF9163
:10057000DF910895DF93CF930F92CDB7DEB78983D4
:100580008981813079F4A5E5B0E0E5E5F0E080818E
:1005900081608C93A5E5B0E0E5E5F0E080818D7F9A
:1005A0008C9335C08981882379F4A5E5B0E0E5E531
:1005B000F0E080818E7F8C93A5E5B0E0E5E5F0E08A
:1005C00080818D7F8C9323C08981823079F4A5E569
:1005D000B0E0E5E5F0E080818E7F8C93A5E5B0E0AA
:1005E000E5E5F0E0808182608C9311C089818330E1
:1005F00071F4A5E5B0E0E5E5F0E0808181608C93E1
:10060000A5E5B0E0E5E5F0E0808182608C930F9095
:10061000CF91DF910895DF93CF93CDB7DEB7ABE5F0
:10062000B0E0EBE5F0E0808180648C93CF91DF91C6
:100630000895DF93CF93CDB7DEB7ABE5B0E0EBE540
:10064000F0E080818F7B8C93CF91DF9108951F9292
:100650000F920FB60F9211242F933F934F935F93F6
:100660006F937F938F939F93AF93BF93EF93FF937A
:10067000DF93CF93CDB7DEB7E0919C00F0919D0062
:100680000995CF91DF91FF91EF91BF91AF919F912C
:100690008F917F916F915F914F913F912F910F902B
:1006A0000FBE0F901F901895DF93CF93CDB7DEB795
:1006B000AFE5B0E0EFE5F0E0808180688C93CF910A
:1006C000DF910895DF93CF93CDB7DEB7AFE5B0E00C
:1006D000EFE5F0E080818F778C93CF91DF910895E3
:1006E000DF93CF93CDB7DEB762E370E080E090E0B8
:1006F0000E94490088E30E94A90361E070E080E065
:1007000090E00E9449008CE00E94A90361E070E043
:1007100080E090E00E94490081E00E94A90362E02D
:1007200070E080E090E00E944900CF91DF91089551
:10073000DF93CF930F92CDB7DEB789838DE160E071
:100740000E94FC0089810E94BA030F90CF91DF9133
:100750000895DF93CF930F92CDB7DEB789838DE1F4
:1007600061E00E94FC0089810E94BA030F90CF9142
:10077000DF910895DF93CF9300D0CDB7DEB78A83A2
:100780008EE161E00E94FC00198234C08A81482F0A
:1007900050E08981282F30E081E090E002C0880F8E
:1007A000991F2A95E2F79A01282339238981882FF6
:1007B00090E0A90102C0559547958A95E2F7CA01D4
:1007C000009759F08981882F90E0FC01E258FF4F93
:1007D000808160E00E94FC000AC08981882F90E03F
:1007E000FC01E258FF4F808161E00E94FC0089819A
:1007F0008F5F89838981883048F28FE160E00E94B1
:10080000FC0061E070E080E090E00E9449008FE130
:1008100061E00E94FC000F900F90CF91DF9108954E
:10082000DF93CF9300D000D0CDB7DEB79A83898312
:100830006B834C838C81882F90E00024969587955C
:100840000794969587950794982F802D982F9068F8
:100850008B81892B0E94A9030AC0E981FA818081DA
:100860000E94980389819A8101969A838983E981FC
:10087000FA818081882389F70F900F900F900F9055
:10088000CF91DF910895DF93CF9300D0CDB7DEB73E
:100890009A8389830AC0E981FA8180810E94980342
:1008A00089819A8101969A838983E981FA8180817D
:1008B000882389F70F900F90CF91DF910895DF93F0
:1008C000CF93CDB7DEB781E00E94A90362E070E06C
:1008D00080E090E00E944900CF91DF910895DF937E
:1008E000CF9300D000D0CDB7DEB79B838A836C83D3
:1008F0008C81882F90E0880F991F880F991F880F8F
:10090000991F80640E94A90319820EC08981282F33
:1009100030E08A819B81FC01E20FF31F80810E94FD
:10092000980389818F5F89838981883078F30F905C
:100930000F900F900F90CF91DF910895DF93CF9399
:1009400000D00F92CDB7DEB789836A834B838B814A
:10095000882F90E000249695879507949695879523
:100960000794982F802D982F90688A81892B0E9458
:10097000A90389810E9498030F900F900F90CF9147
:10098000DF910895DF93CF93CDB7DEB7A9E5B0E04F
:10099000E9E5F0E080818B7F8C93A8E5B0E0E8E5A5
:1009A000F0E0808184608C93AFE4B0E0EFE4F0E0AD
:1009B00080818F778C93AFE4B0E0EFE4F0E080814A
:1009C0008F7B8C93AFE4B0E0EFE4F0E080818F7D2B
:1009D0008C93AFE4B0E0EFE4F0E080818F7E8C9305
:1009E000AFE4B0E0EFE4F0E080818E7F8C93AFE481
:1009F000B0E0EFE4F0E080818D7F8C93AEE4B0E076
:100A0000EEE4F0E08081877F8C93AEE4B0E0EEE42A
:100A1000F0E080818F7E8C93CF91DF910895DF93FA
:100A2000CF93CDB7DEB7AEE4B0E0EEE4F0E0808186
:100A300082608C93CF91DF910895DF93CF93CDB7F0
:100A4000DEB7AEE4B0E0EEE4F0E080818E7F8C9320
:100A5000AEE4B0E0EEE4F0E080818D7F8C93AEE414
:100A6000B0E0EEE4F0E080818B7F8C93CF91DF915A
:100A70000895DF93CF93CDB7DEB7A9E5B0E0E9E500
:100A8000F0E0808184608C93CF91DF910895DF93B3
:100A9000CF93CDB7DEB7A9E5B0E0E9E5F0E080811E
:100AA0008B7F8C93CF91DF910895DF93CF93CDB758
:100AB000DEB7ECE4F0E080819181CF91DF91089581
:100AC000DF93CF93CDB7DEB7ECE4F0E01182108274
:100AD000CF91DF910895DF93CF93CDB7DEB7A8E52F
:100AE000B0E0E8E5F0E0808181608C93A8E5B0E0BB
:100AF000E8E5F0E0808182608C93A9E5B0E0E9E56B
:100B0000F0E080818E7F8C93A9E5B0E0E9E5F0E02C
:100B100080818D7F8C93A3E5B0E0E3E5F0E08081F8
:100B200080618C93A3E5B0E0E3E5F0E08081806232
:100B30008C93ECE5F0E082E38083A3E5B0E0E3E5AD
:100B4000F0E0808188608C93A3E5B0E0E3E5F0E01D
:100B5000808180648C93A3E5B0E0E3E5F0E08081E0
:100B600082608C93CF91DF910895DF93CF93CDB7BF
:100B7000DEB7A9E5B0E0E9E5F0E0808181608C9323
:100B8000CF91DF910895DF93CF93CDB7DEB7A9E57D
:100B9000B0E0E9E5F0E080818E7F8C93CF91DF912A
:100BA0000895DF93CF93CDB7DEB7A9E5B0E0E9E5CF
:100BB000F0E0808182608C93CF91DF910895DF9384
:100BC000CF93CDB7DEB7A9E5B0E0E9E5F0E08081ED
:100BD0008D7F8C93CF91DF910895DF93CF9300D0D9
:100BE000CDB7DEB79A83898389819A8190939F00DC
:100BF00080939E000F900F90CF91DF910895DF9327
:100C0000CF9300D0CDB7DEB79A83898389819A814B
:100C10009093A1008093A0000F900F90CF91DF914F
:100C20000895DF93CF930F92CDB7DEB78983E2E5C6
:100C3000F0E0898180830F90CF91DF910895DF9359
:100C4000CF930F92CDB7DEB78983ECE5F0E08981D1
:100C500080830F90CF91DF9108951F920F920FB66E
:100C60000F9211242F933F934F935F936F937F9332
:100C70008F939F93AF93BF93EF93FF93DF93CF93A4
:100C8000CDB7DEB7E0919E00F0919F000995CF911E
:100C9000DF91FF91EF91BF91AF919F918F917F91E4
:100CA0006F915F914F913F912F910F900FBE0F90D9
:100CB0001F9018951F920F920FB60F9211242F9329
:100CC0003F934F935F936F937F938F939F93AF93D4
:100CD000BF93EF93FF93DF93CF93CDB7DEB7E09150
:100CE000A000F091A1000995CF91DF91FF91EF91C4
:100CF000BF91AF919F918F917F916F915F914F9134
:100D00003F912F910F900FBE0F901F901895DF937A
:100D1000CF93CDB7DEB78091A800882391F580915D
:100D2000A2008823D1F480E060E00E94FC000E94D1
:100D30000F0582E00E94BA028091A700813049F439
:100D40000E9455059093A6008093A50081E08093B2
:100D5000A80081E08093A20014C08091A20081309D
:100D600081F40E9455059093A4008093A3000E94F3
:100D7000600583E00E94BA0281E08093A700109290
:100D8000A200CF91DF910895DF93CF9300D000D0E0
:100D900000D0CDB7DEB70E94E5008AE160E00E9496
:100DA000FC000E94700384E790E060E040E00E9455
:100DB000100489E790E060E041E00E9410040E9486
:100DC000C2040E946B050E94850287E896E00E949B
:100DD000A8020E940B030E9454038091A90088235B
:100DE000E1F78091A8008130C1F78091A300909134
:100DF000A40008969093A4008093A3008091A5007E
:100E00009091A60040979093A6008093A500209112
:100E1000A3003091A40084E690E0289FA001299FC0
:100E2000500D389F500D11242091A3003091A40043
:100E30008091A5009091A600280F391FCA01B90121
:100E40000E94D607CB018E832091A3003091A4008D
:100E50008091A5009091A600820F931F9C0140E015
:100E600050E080E492E4AFE0B0E0BC01CD010E942C
:100E7000EA07DA01C9018A839B83AC83BD8322C060
:100E80008E819AE0692F0E94CA07892F89838E81FB
:100E90009AE0692F0E94CA078E838981882F90E08B
:100EA000880F991FFC01E957FF4F808191812091A4
:100EB0008600622F40E00E941004809186008150DD
:100EC000809386008E818823D9F688E080938600FF
:100ED00036C08A819B81AC81BD812AE030E040E050
:100EE00050E0BC01CD010E94EA07DC01CB018983FF
:100EF0008A819B81AC81BD812AE030E040E050E0F6
:100F0000BC01CD010E94EA07DA01C9018A839B83F3
:100F1000AC83BD838981882F90E0880F991FFC01E5
:100F2000E957FF4F8081918120918600622F41E037
:100F30000E941004809186008150809386008A81EF
:100F40009B81AC81BD810097A105B10511F681E0BF
:100F50008093A90042CF629FD001739FF001829FCE
:100F6000E00DF11D649FE00DF11D929FF00D839F38
:100F7000F00D749FF00D659FF00D9927729FB00DD5
:100F8000E11DF91F639FB00DE11DF91FBD01CF01E8
:100F900011240895991B79E004C0991F961708F051
:100FA000961B881F7A95C9F780950895AA1BBB1BCD
:100FB00051E107C0AA1FBB1FA617B70710F0A61B59
:100FC000B70B881F991F5A95A9F780959095BC017A
:100FD000CD010895A1E21A2EAA1BBB1BFD010DC075
:100FE000AA1FBB1FEE1FFF1FA217B307E407F507D9
:100FF00020F0A21BB30BE40BF50B661F771F881FB5
:10100000991F1A9469F760957095809590959B014A
:0C101000AC01BD01CF010895F894FFCFA2
:10101C003000310032003300340035003600370028
:10102C0038003900445554590046524551001011AE
:10103C00121314151617086000620064006600682D
:0C104C00006A006C006E00700072000072
:00000001FF
