:100000000C942A000C9447000C9447000C94470071
:100010000C9447000C9447000C9447000C94470044
:100020000C9447000C9447000C9447000C94470034
:100030000C9447000C9447000C9447000C94470024
:100040000C940F010C9447000C9447000C9447004B
:100050000C94470011241FBECFE5D8E0DEBFCDBF12
:1000600010E0A0E6B0E0E6ECFBE002C005900D92E7
:10007000A039B107D9F710E0A0E9B0E001C01D92A6
:10008000A439B107E1F70E94D9040C94E1050C945E
:100090000000DF93CF93CDB7DEB7A7E2B0E0E7E291
:1000A000F0E080818F778C93A7E2B0E0E7E2F0E0A8
:1000B000808180648C93A6E2B0E0E6E2F0E080818B
:1000C00086608C93A7E2B0E0E7E2F0E080818F7D6C
:1000D0008C93A6E2B0E0E6E2F0E080818F7D8C9325
:1000E000A6E2B0E0E6E2F0E0808180688C93CF91F8
:1000F000DF910895DF93CF9300D000D0CDB7DEB766
:1001000089837B836A83A7E2B0E0E7E2F0E0908135
:100110008981892B8C93A6E2B0E0E6E2F0E0808151
:1001200080648C93E6E2F0E08081882F90E0887014
:10013000907095958795959587959595879581303C
:10014000910511F41C822AC0E6E2F0E08081882F3C
:1001500090E0807190709595879595958795959588
:10016000879595958795009779F3A6E2B0E0E6E24A
:10017000F0E0808180618C93E4E2F0E08081918105
:10018000EA81FB8191838083EA81FB818081918177
:10019000909393008093920081E08C838C810F90E8
:1001A0000F900F900F90CF91DF910895DF93CF9331
:1001B000CDB7DEB78091920090919300CF91DF91FF
:1001C0000895DF93CF93CDB7DEB7A6E2B0E0E6E2C5
:1001D000F0E0808188608C93CF91DF910895DF9368
:1001E000CF93CDB7DEB7A6E2B0E0E6E2F0E08081E3
:1001F000877F8C93CF91DF910895DF93CF9300D0C9
:10020000CDB7DEB79A83898389819A8190939100D3
:10021000809390000F900F90CF91DF9108951F92DF
:100220000F920FB60F9211248F939F93EF93FF932A
:10023000DF93CF93CDB7DEB7E4E2F0E08081918128
:100240009093930080939200CF91DF91FF91EF9173
:100250009F918F910F900FBE0F901F901895DF9375
:10026000CF93CDB7DEB72C970FB6F894DEBF0FBE95
:10027000CDBF69877A878B879C8789859A85AB856F
:10028000BC8522E731E040E050E0BC01CD010E9496
:10029000A005DC01CB0189839A83AB83BC831D82DB
:1002A0001E821F8218860CC000008D819E81AF8146
:1002B000B8850196A11DB11D8D839E83AF83B8873C
:1002C0002D813E814F81588589819A81AB81BC8186
:1002D000281739074A075B0738F32C960FB6F894AE
:1002E000DEBF0FBECDBFCF91DF910895DF93CF93D7
:1002F000CDB7DEB72C970FB6F894DEBF0FBECDBFDB
:1003000069877A878B879C8789859A85AB85BC8529
:1003100027E731E040E050E0BC01CD010E94A0059C
:10032000DC01CB01895D9444A040B04028EE33E06D
:1003300040E050E0BC01CD010E94BF05DA01C901D7
:1003400089839A83AB83BC831D821E821F82188699
:100350000CC000008D819E81AF81B8850196A11DE2
:10036000B11D8D839E83AF83B8872D813E814F81E0
:10037000588589819A81AB81BC81281739074A0742
:100380005B0738F32C960FB6F894DEBF0FBECDBFD7
:10039000CF91DF910895DF93CF93CDB7DEB7EAE336
:1003A000F0E08FEF8083E7E3F0E08FEF8083E4E31A
:1003B000F0E08FEF8083E1E3F0E08FEB8083CF917B
:1003C000DF910895DF93CF9300D0CDB7DEB7898357
:1003D0006A838981883060F58A818823A1F4ABE340
:1003E000B0E0EBE3F0E08081482F8981282F30E0F6
:1003F00081E090E0022E02C0880F991F0A94E2F774
:10040000842B8C93B3C0ABE3B0E0EBE3F0E08081EE
:10041000482F8981282F30E081E090E0022E02C031
:10042000880F991F0A94E2F7809584238C939EC0CD
:100430008981883090F18981803178F5898188506F
:1004400089838A818823A1F4A8E3B0E0E8E3F0E09F
:100450008081482F8981282F30E081E090E0022EB2
:1004600002C0880F991F0A94E2F7842B8C937EC0F8
:10047000A8E3B0E0E8E3F0E08081482F8981282FED
:1004800030E081E090E0022E02C0880F991F0A94AC
:10049000E2F7809584238C9369C08981803190F143
:1004A0008981883178F58981805189838A8188237F
:1004B000A1F4A5E3B0E0E5E3F0E08081482F898175
:1004C000282F30E081E090E0022E02C0880F991FB3
:1004D0000A94E2F7842B8C9349C0A5E3B0E0E5E3EE
:1004E000F0E08081482F8981282F30E081E090E082
:1004F000022E02C0880F991F0A94E2F78095842388
:100500008C9334C08981883188F18981803270F57B
:100510008981885189838A818823A1F4A2E3B0E08C
:10052000E2E3F0E08081482F8981282F30E081E0EC
:1005300090E0022E02C0880F991F0A94E2F7842BE4
:100540008C9314C0A2E3B0E0E2E3F0E08081482F96
:100550008981282F30E081E090E0022E02C0880FD0
:10056000991F0A94E2F7809584238C930F900F9043
:10057000CF91DF910895DF93CF9300D000D0CDB716
:10058000DEB78C838C81883000F58C818B83E9E326
:10059000F0E08081482F50E08B81282F30E081E00F
:1005A00090E002C0880F991F2A95E2F79A0128234C
:1005B00039238B81882F90E0A90102C0559547957A
:1005C0008A95E2F7CA018A8374C08C81883020F151
:1005D0008C81803108F58C8188508B83E6E3F0E0D4
:1005E0008081482F50E08B81282F30E081E090E01F
:1005F00002C0880F991F2A95E2F79A012823392310
:100600008B81882F90E0A90102C0559547958A9566
:10061000E2F7CA018A834DC08C81803120F18C8140
:10062000883108F58C8180518B83E6E3F0E080818E
:10063000482F50E08B81282F30E081E090E002C00D
:10064000880F991F2A95E2F79A01282339238B8175
:10065000882F90E0A90102C0559547958A95E2F749
:10066000CA018A8326C08C81883118F18C8180323E
:1006700000F58C8188518B83E0E3F0E08081482F86
:1006800050E08B81282F30E081E090E002C0880F9D
:10069000991F2A95E2F79A01282339238B81882F05
:1006A00090E0A90102C0559547958A95E2F7CA01E5
:1006B0008A838A81882319F481E0898304C08A812E
:1006C000813009F4198289810F900F900F900F905B
:1006D000CF91DF910895DF93CF93CDB7DEB7AFE52C
:1006E000B0E0EFE5F0E0808180688C93CF91DF91FE
:1006F0000895DF93CF93CDB7DEB7AFE5B0E0EFE578
:10070000F0E080818F778C93CF91DF910895DF9314
:10071000CF93CDB7DEB762E370E080E090E00E9457
:100720002F0188E30E94C00361E070E080E090E068
:100730000E942F018CE00E94C00361E070E080E025
:1007400090E00E942F0181E00E94C00362E070E00F
:1007500080E090E00E942F01CF91DF910895DF9318
:10076000CF930F92CDB7DEB7898388E160E00E9416
:10077000E20189810E94D1030F90CF91DF9108950A
:10078000DF93CF930F92CDB7DEB7898388E161E025
:100790000E94E20189810E94D1030F90CF91DF91E5
:1007A0000895DF93CF9300D0CDB7DEB78A8389E178
:1007B00061E00E94E201198234C08A81482F50E032
:1007C0008981282F30E081E090E002C0880F991FD6
:1007D0002A95E2F79A01282339238981882F90E00E
:1007E000A90102C0559547958A95E2F7CA0100977D
:1007F00059F08981882F90E0FC01EC58FF4F8081EF
:1008000060E00E94E2010AC08981882F90E0FC012B
:10081000EC58FF4F808161E00E94E20189818F5F87
:1008200089838981883048F28AE160E00E94E20190
:1008300061E070E080E090E00E942F018AE161E0D9
:100840000E94E2010F900F90CF91DF910895DF9306
:10085000CF9300D000D0CDB7DEB79A8389836B8366
:100860004C838C81882F90E000249695879507947F
:10087000969587950794982F802D982F90688B8157
:10088000892B0E94C0030AC0E981FA8180810E94FD
:10089000AF0389819A8101969A838983E981FA81DC
:1008A0008081882389F70F900F900F900F90CF9140
:1008B000DF910895DF93CF9300D0CDB7DEB79A8351
:1008C00089830AC0E981FA8180810E94AF0389810E
:1008D0009A8101969A838983E981FA8180818823AC
:1008E00089F70F900F90CF91DF910895DF93CF9309
:1008F000CDB7DEB781E00E94C00362E070E080E027
:1009000090E00E942F01CF91DF910895DF93CF9364
:1009100000D000D0CDB7DEB79B838A836C838C81F7
:10092000882F90E0880F991F880F991F880F991FB3
:1009300080640E94C00319820EC08981282F30E094
:100940008A819B81FC01E20FF31F80810E94AF032B
:1009500089818F5F89838981883078F30F900F9028
:100960000F900F90CF91DF910895DF93CF9300D038
:100970000F92CDB7DEB789836A834B838B81882F33
:1009800090E000249695879507949695879507940F
:10099000982F802D982F90688A81892B0E94C00300
:1009A00089810E94AF030F900F900F90CF91DF913C
:1009B0000895EF92FF920F931F93DF93CF93CDB7DC
:1009C000DEB760970FB6F894DEBF0FBECDBF88E0EC
:1009D0008E870E94CB010E9487030E9476040E94AA
:1009E00049000E946B039E01215F3F4F80E0B901E7
:1009F0000E947A008F859889CC01A0E0B0E08D83B9
:100A00009E83AF83B8872D813E814F815885DA015F
:100A1000C901880F991FAA1FBB1F880F991FAA1F02
:100A2000BB1F820F931FA41FB51F072E7AE0B69538
:100A3000A795979587957A95D1F7702D89879A878D
:100A4000AB87BC8725E030E040E050E089859A859F
:100A5000AB85BC8579018A01E81AF90A0A0B1B0BE0
:100A6000D801C70120EA36E841E050E0BC01CD01E1
:100A70000E94A005DC01CB0189839A83AB83BC83F0
:100A800089859A85AB85BC8524E630E040E050E05E
:100A9000BC01CD010E94A0059B01AC0189819A8116
:100AA000AB81BC81BC01CD010E94BF05DA01C90147
:100AB00089839A83AB83BC8332C089819A81AB815D
:100AC000BC812AE030E040E050E0BC01CD010E9452
:100AD000BF05DC01CB018D878D85882F90E0880FC5
:100AE000991FFC01E458FF4F808191816E8540E0A1
:100AF0000E94270489819A81AB81BC812AE030E081
:100B000040E050E0BC01CD010E94BF05DA01C901FF
:100B100089839A83AB83BC838E8581508E8789813C
:100B20009A81AB81BC810097A105B10531F688E0BF
:100B30008E8762E370E080E090E00E942F0153CF47
:100B4000629FD001739FF001829FE00DF11D649FB1
:100B5000E00DF11D929FF00D839FF00D749FF00D3D
:100B6000659FF00D9927729FB00DE11DF91F639FDE
:100B7000B00DE11DF91FBD01CF0111240895A1E2BF
:100B80001A2EAA1BBB1BFD010DC0AA1FBB1FEE1F07
:100B9000FF1FA217B307E407F50720F0A21BB30B52
:100BA000E40BF50B661F771F881F991F1A9469F7CE
:100BB00060957095809590959B01AC01BD01CF012A
:060BC0000895F894FFCF38
:100BC6003000310032003300340035003600370083
:100BD6003800390010111213141516176000620040
:100BE6006400660068006A006C006E0070007200A7
:00000001FF
