:100000000C942A000C9447000C9447000C94470071
:100010000C9447000C9447000C9447000C94470044
:100020000C9447000C9447000C9447000C945B021E
:100030000C9447000C9447000C9447000C94470024
:100040000C9447000C9447000C9447000C94470014
:100050000C94470011241FBECFE5D8E0DEBFCDBF12
:1000600010E0A0E6B0E0E4EFF5E002C005900D92EC
:10007000AA36B107D9F710E0AAE6B0E001C01D9298
:10008000AF36B107E1F70E94E1020C94F8020C943C
:100090000000DF93CF93CDB7DEB7EAE3F0E087E06F
:1000A0008083E7E3F0E08FEF8083E4E3F0E08FEF1D
:1000B0008083E1E3F0E01082CF91DF910895DF9338
:1000C000CF9300D0CDB7DEB789836A83898188302A
:1000D00060F58A818823A1F4ABE3B0E0EBE3F0E0C4
:1000E0008081482F8981282F30E081E090E0022E26
:1000F00002C0880F991F0A94E2F7842B8C93B3C037
:10010000ABE3B0E0EBE3F0E08081482F8981282F5A
:1001100030E081E090E0022E02C0880F991F0A941F
:10012000E2F7809584238C939EC08981883090F17A
:100130008981803178F58981885089838A818823F3
:10014000A1F4A8E3B0E0E8E3F0E08081482F8981E2
:10015000282F30E081E090E0022E02C0880F991F26
:100160000A94E2F7842B8C937EC0A8E3B0E0E8E326
:10017000F0E08081482F8981282F30E081E090E0F5
:10018000022E02C0880F991F0A94E2F780958423FB
:100190008C9369C08981803190F18981883178F5AB
:1001A0008981805189838A818823A1F4A5E3B0E005
:1001B000E5E3F0E08081482F8981282F30E081E05D
:1001C00090E0022E02C0880F991F0A94E2F7842B58
:1001D0008C9349C0A5E3B0E0E5E3F0E08081482FCF
:1001E0008981282F30E081E090E0022E02C0880F44
:1001F000991F0A94E2F7809584238C9334C08981F7
:10020000883188F18981803270F5898188518983AC
:100210008A818823A1F4A2E3B0E0E2E3F0E08081E8
:10022000482F8981282F30E081E090E0022E02C023
:10023000880F991F0A94E2F7842B8C9314C0A2E3D1
:10024000B0E0E2E3F0E08081482F8981282F30E0A0
:1002500081E090E0022E02C0880F991F0A94E2F715
:10026000809584238C930F900F90CF91DF91089508
:10027000DF93CF9300D000D0CDB7DEB78C838C81D5
:10028000883000F58C818B83E9E3F0E08081482F92
:1002900050E08B81282F30E081E090E002C0880F91
:1002A000991F2A95E2F79A01282339238B81882FF9
:1002B00090E0A90102C0559547958A95E2F7CA01D9
:1002C0008A8374C08C81803120F18C81883108F55B
:1002D0008C8188508B83E6E3F0E08081482F50E0EA
:1002E0008B81282F30E081E090E002C0880F991FB9
:1002F0002A95E2F79A01282339238B81882F90E0F1
:10030000A90102C0559547958A95E2F7CA018A83EB
:100310004DC08C81803120F18C81883108F58C8131
:1003200080518B83E6E3F0E08081482F50E08B81A1
:10033000282F30E081E090E002C0880F991F2A95B5
:10034000E2F79A01282339238B81882F90E0A901B5
:1003500002C0559547958A95E2F7CA018A8326C05F
:100360008C81883118F18C81803200F58C81885124
:100370008B83E0E3F0E08081482F50E08B81282FD1
:1003800030E081E090E002C0880F991F2A95E2F7E3
:100390009A01282339238B81882F90E0A90102C07C
:1003A000559547958A95E2F7CA018A838A81882301
:1003B00019F481E0898304C08A81813009F41982AB
:1003C00089810F900F900F900F90CF91DF9108953A
:1003D000DF93CF93CDB7DEB7AFE5B0E0EFE5F0E068
:1003E000808180688C93CF91DF910895DF93CF93C4
:1003F000CDB7DEB7AFE5B0E0EFE5F0E080818F7715
:100400008C93CF91DF910895DF93CF930F92CDB767
:10041000DEB780916A008F5F80936A00198227C0DF
:1004200040916A008981282F30E0C901880F991F07
:10043000820F931FFC01EE59FF4F9081842F692F8B
:100440000E94EC02892F882379F48981282F30E0DB
:10045000C901880F991F820F931FFC01E05AFF4FBB
:100460000190F081E02D099589818F5F89838981D1
:100470008330B0F20F90CF91DF910895DF93CF9347
:10048000CDB7DEB7E2E5F0E08FE78083A9E5B0E025
:10049000E9E5F0E0808181608C93A8E5B0E0E8E5D3
:1004A000F0E0808181608C93E3E5F0E082E080837E
:1004B000CF91DF9108951F920F920FB60F921124E2
:1004C0002F933F934F935F936F937F938F939F935C
:1004D000AF93BF93EF93FF93DF93CF93CDB7DEB787
:1004E00080916B0090916C00A0916D00B0916E00B6
:1004F0000196A11DB11D80936B0090936C00A09399
:100500006D00B0936E0080916B0090916C00A09193
:100510006D00B0916E008B3126E0920720E0A207BB
:1005200020E0B20771F410926B0010926C001092F0
:100530006D0010926E00E2E5F0E08FE780830E948C
:100540000402CF91DF91FF91EF91BF91AF919F9105
:100550008F917F916F915F914F913F912F910F906C
:100560000FBE0F901F901895DF93CF93CDB7DEB7D6
:10057000ABE3B0E0EBE3F0E0908181E089278C937E
:10058000CF91DF910895DF93CF93CDB7DEB7ABE383
:10059000B0E0EBE3F0E0908182E089278C93CF918B
:1005A000DF910895DF93CF93CDB7DEB7ABE3B0E033
:1005B000EBE3F0E0908184E089278C93CF91DF9189
:1005C0000895DF93CF93CDB7DEB70E9449000E9414
:1005D0003E020E94E801FFCF991B79E004C0991FF9
:1005E000961708F0961B881F7A95C9F7809508958D
:0405F000F894FFCFAD
:0A05F400B40201C30202D2020300A8
:00000001FF
