:100000000C942A000C9447000C9447000C94470071
:100010000C9447000C9447000C9402050C94470084
:100020000C9447000C9447000C9410060C94E305C4
:100030000C9447000C9447000C9447000C94470024
:100040000C9447000C9447000C9447000C94470014
:100050000C94470011241FBECFE5D8E0DEBFCDBF12
:1000600010E0A0E6B0E0EAEEFFE002C005900D92DD
:10007000AC39B107D9F710E0ACE9B0E001C01D928E
:10008000AA3AB107E1F70E94AD060C94F3070C946D
:100090000000DF93CF93CDB7DEB72C970FB6F8945F
:1000A000DEBF0FBECDBF69877A878B879C87898526
:1000B0009A85AB85BC8522E731E040E050E0BC0189
:1000C000CD010E94B207DC01CB0189839A83AB8307
:1000D000BC831D821E821F8218860CC000008D8189
:1000E0009E81AF81B8850196A11DB11D8D839E8330
:1000F000AF83B8872D813E814F81588589819A8150
:10010000AB81BC81281739074A075B0738F32C9667
:100110000FB6F894DEBF0FBECDBFCF91DF9108952B
:10012000DF93CF93CDB7DEB72C970FB6F894DEBF31
:100130000FBECDBF69877A878B879C8789859A8513
:10014000AB85BC8527E731E040E050E0BC01CD0144
:100150000E94B207DC01CB01895D9444A040B0400D
:1001600028EE33E040E050E0BC01CD010E94D10711
:10017000DA01C90189839A83AB83BC831D821E8205
:100180001F8218860CC000008D819E81AF81B885CA
:100190000196A11DB11D8D839E83AF83B8872D81EC
:1001A0003E814F81588589819A81AB81BC81281716
:1001B00039074A075B0738F32C960FB6F894DEBF71
:1001C0000FBECDBFCF91DF910895DF93CF93CDB711
:1001D000DEB7EAE3F0E08FEF8083E7E3F0E08FEF54
:1001E0008083E4E3F0E08FEF8083E1E3F0E08FEBE6
:1001F0008083CF91DF910895DF93CF9300D0CDB767
:10020000DEB789836A838981883060F58A81882393
:10021000A1F4ABE3B0E0EBE3F0E08081482F89810B
:10022000282F30E081E090E0022E02C0880F991F55
:100230000A94E2F7842B8C93B3C0ABE3B0E0EBE31A
:10024000F0E08081482F8981282F30E081E090E024
:10025000022E02C0880F991F0A94E2F7809584232A
:100260008C939EC08981883090F18981803178F5A6
:100270008981885089838A818823A1F4A8E3B0E02A
:10028000E8E3F0E08081482F8981282F30E081E089
:1002900090E0022E02C0880F991F0A94E2F7842B87
:1002A0008C937EC0A8E3B0E0E8E3F0E08081482FC3
:1002B0008981282F30E081E090E0022E02C0880F73
:1002C000991F0A94E2F7809584238C9369C08981F1
:1002D000803190F18981883178F5898180518983D5
:1002E0008A818823A1F4A5E3B0E0E5E3F0E0808112
:1002F000482F8981282F30E081E090E0022E02C053
:10030000880F991F0A94E2F7842B8C9349C0A5E3C8
:10031000B0E0E5E3F0E08081482F8981282F30E0CC
:1003200081E090E0022E02C0880F991F0A94E2F744
:10033000809584238C9334C08981883188F18981A8
:10034000803270F58981885189838A818823A1F45C
:10035000A2E3B0E0E2E3F0E08081482F8981282F1A
:1003600030E081E090E0022E02C0880F991F0A94CD
:10037000E2F7842B8C9314C0A2E3B0E0E2E3F0E058
:100380008081482F8981282F30E081E090E0022E83
:1003900002C0880F991F0A94E2F7809584238C93FA
:1003A0000F900F90CF91DF910895DF93CF9300D0FE
:1003B00000D0CDB7DEB78C838C81883000F58C817E
:1003C0008B83E9E3F0E08081482F50E08B81282F78
:1003D00030E081E090E002C0880F991F2A95E2F793
:1003E0009A01282339238B81882F90E0A90102C02C
:1003F000559547958A95E2F7CA018A8374C08C8126
:10040000883020F18C81803108F58C8188508B8375
:10041000E6E3F0E08081482F50E08B81282F30E028
:1004200081E090E002C0880F991F2A95E2F79A01B7
:10043000282339238B81882F90E0A90102C055958C
:1004400047958A95E2F7CA018A834DC08C81803135
:1004500020F18C81883108F58C8180518B83E6E313
:10046000F0E08081482F50E08B81282F30E081E040
:1004700090E002C0880F991F2A95E2F79A0128237D
:1004800039238B81882F90E0A90102C055954795AB
:100490008A95E2F7CA018A8326C08C81883118F1D7
:1004A0008C81803200F58C8188518B83E0E3F0E011
:1004B0008081482F50E08B81282F30E081E090E050
:1004C00002C0880F991F2A95E2F79A012823392341
:1004D0008B81882F90E0A90102C0559547958A9598
:1004E000E2F7CA018A838A81882319F481E089832B
:1004F00004C08A81813009F4198289810F900F909C
:100500000F900F90CF91DF910895DF93CF93CDB7E8
:10051000DEB7AFE5B0E0EFE5F0E0808180688C9376
:10052000CF91DF910895DF93CF93CDB7DEB7AFE5DD
:10053000B0E0EFE5F0E080818F778C93CF91DF9191
:100540000895DF93CF93CDB7DEB762E370E080E02C
:1005500090E00E94490088E30E94DA0261E070E0C6
:1005600080E090E00E9449008CE00E94DA0261E0A5
:1005700070E080E090E00E94490081E00E94DA0291
:1005800062E070E080E090E00E944900CF91DF914E
:100590000895DF93CF930F92CDB7DEB7898388E1BB
:1005A00060E00E94FC0089810E94EB020F90CF91D5
:1005B000DF910895DF93CF930F92CDB7DEB7898394
:1005C00088E161E00E94FC0089810E94EB020F90AB
:1005D000CF91DF910895DF93CF9300D0CDB7DEB7F1
:1005E0008A8389E161E00E94FC00198234C08A811B
:1005F000482F50E08981282F30E081E090E002C050
:10060000880F991F2A95E2F79A01282339238981B7
:10061000882F90E0A90102C0559547958A95E2F789
:10062000CA01009759F08981882F90E0FC01E258B7
:10063000FF4F808160E00E94FC000AC08981882F02
:1006400090E0FC01E258FF4F808161E00E94FC00D5
:1006500089818F5F89838981883048F28AE160E0EF
:100660000E94FC0061E070E080E090E00E944900A0
:100670008AE161E00E94FC000F900F90CF91DF9122
:100680000895DF93CF9300D000D0CDB7DEB79A8323
:1006900089836B834C838C81882F90E0002496950E
:1006A00087950794969587950794982F802D982F76
:1006B00090688B81892B0E94DA020AC0E981FA8155
:1006C00080810E94C90289819A8101969A838983D7
:1006D000E981FA818081882389F70F900F900F902C
:1006E0000F90CF91DF910895DF93CF9300D0CDB7D6
:1006F000DEB79A8389830AC0E981FA8180810E94EA
:10070000C90289819A8101969A838983E981FA8154
:100710008081882389F70F900F90CF91DF91089502
:10072000DF93CF93CDB7DEB781E00E94DA0262E0BB
:1007300070E080E090E00E944900CF91DF91089541
:10074000DF93CF9300D000D0CDB7DEB79B838A83F1
:100750006C838C81882F90E0880F991F880F991FD8
:10076000880F991F80640E94DA0219820EC0898165
:10077000282F30E08A819B81FC01E20FF31F8081EA
:100780000E94C90289818F5F89838981883078F3CB
:100790000F900F900F900F90CF91DF910895DF93FE
:1007A000CF9300D00F92CDB7DEB789836A834B8396
:1007B0008B81882F90E000249695879507949695D5
:1007C00087950794982F802D982F90688A81892B80
:1007D0000E94DA0289810E94C9020F900F900F9047
:1007E000CF91DF910895DF93CF93CDB7DEB7A9E521
:1007F000B0E0E9E5F0E080818B7F8C93A8E5B0E084
:10080000E8E5F0E0808184608C93AFE4B0E0EFE451
:10081000F0E080818F778C93AFE4B0E0EFE4F0E01C
:1008200080818F7B8C93AFE4B0E0EFE4F0E08081D7
:100830008F7D8C93AFE4B0E0EFE4F0E080818F7EB9
:100840008C93AFE4B0E0EFE4F0E080818E7F8C9396
:10085000AFE4B0E0EFE4F0E080818D7F8C93AEE414
:10086000B0E0EEE4F0E08081877F8C93AEE4B0E00E
:10087000EEE4F0E080818F7E8C93CF91DF9108953C
:10088000DF93CF93CDB7DEB7AEE4B0E0EEE4F0E0B7
:10089000808181608C93CF91DF910895DF93CF9316
:1008A000CDB7DEB7AEE4B0E0EEE4F0E080818E7F5D
:1008B0008C93AEE4B0E0EEE4F0E080818D7F8C9329
:1008C000AEE4B0E0EEE4F0E080818B7F8C93CF91DA
:1008D000DF910895DF93CF93CDB7DEB7A9E5B0E000
:1008E000E9E5F0E0808184608C93CF91DF910895F9
:1008F000DF93CF93CDB7DEB7A9E5B0E0E9E5F0E04F
:1009000080818B7F8C93CF91DF910895DF93CF937C
:10091000CDB7DEB7ECE4F0E080819181CF91DF913B
:100920000895DF93CF93CDB7DEB7ECE4F0E011820A
:100930001082CF91DF910895DF93CF930F92CDB7BF
:10094000DEB789838981813079F4AEE4B0E0EEE4EA
:10095000F0E0808180648C93AEE4B0E0EEE4F0E0FF
:10096000808180688C9311C08981882371F4AEE402
:10097000B0E0EEE4F0E080818F7B8C93AEE4B0E0F9
:10098000EEE4F0E0808180688C930F90CF91DF914E
:100990000895DF93CF93CDB7DEB7A9E5B0E0E9E5E1
:1009A000F0E0808180628C93CF91DF910895DF9396
:1009B000CF93CDB7DEB7A9E5B0E0E9E5F0E08081FF
:1009C0008F7D8C93CF91DF910895DF93CF93CDB737
:1009D000DEB7E6E4F0E080819181CF91DF91089568
:1009E000DF93CF9300D0CDB7DEB79A838983898117
:1009F0009A8190939D0080939C000F900F90CF91CF
:100A0000DF9108951F920F920FB60F9211242F932A
:100A10003F934F935F936F937F938F939F93AF9386
:100A2000BF93EF93FF93DF93CF93CDB7DEB7E09102
:100A30009C00F0919D000995CF91DF91FF91EF917E
:100A4000BF91AF919F918F917F916F915F914F91E6
:100A50003F912F910F900FBE0F901F901895DF932D
:100A6000CF93CDB7DEB7A8E5B0E0E8E5F0E0808150
:100A700081608C93A8E5B0E0E8E5F0E080818260D9
:100A80008C93A9E5B0E0E9E5F0E080818E7F8C935E
:100A9000A9E5B0E0E9E5F0E080818D7F8C93E2E5A7
:100AA000F0E08BE98083A3E5B0E0E3E5F0E080814E
:100AB000877F8C93A3E5B0E0E3E5F0E080818F7B56
:100AC0008C93A3E5B0E0E3E5F0E0808183608C9354
:100AD000CF91DF910895DF93CF93CDB7DEB7A9E52E
:100AE000B0E0E9E5F0E0808181608C93CF91DF9107
:100AF0000895DF93CF93CDB7DEB7A9E5B0E0E9E580
:100B0000F0E080818E7F8C93CF91DF910895DF9309
:100B1000CF93CDB7DEB7A9E5B0E0E9E5F0E080819D
:100B200082608C93CF91DF910895DF93CF93CDB7FF
:100B3000DEB7A9E5B0E0E9E5F0E080818D7F8C9338
:100B4000CF91DF910895DF93CF9300D0CDB7DEB77B
:100B50009A83898389819A8190939F0080939E00D4
:100B60000F900F90CF91DF910895DF93CF9300D036
:100B7000CDB7DEB79A83898389819A819093A1004A
:100B80008093A0000F900F90CF91DF910895DF9395
:100B9000CF930F92CDB7DEB78983E2E5F0E089818C
:100BA00080830F90CF91DF910895DF93CF930F92C1
:100BB000CDB7DEB78983ECE5F0E0898180830F90C3
:100BC000CF91DF9108951F920F920FB60F921124CB
:100BD0002F933F934F935F936F937F938F939F9345
:100BE000AF93BF93EF93FF93DF93CF93CDB7DEB770
:100BF000E0919E00F0919F000995CF91DF91FF91C8
:100C0000EF91BF91AF919F918F917F916F915F9184
:100C10004F913F912F910F900FBE0F901F901895FD
:100C20001F920F920FB60F9211242F933F934F9361
:100C30005F936F937F938F939F93AF93BF93EF9344
:100C4000FF93DF93CF93CDB7DEB7E091A000F09193
:100C5000A1000995CF91DF91FF91EF91BF91AF91E5
:100C60009F918F917F916F915F914F913F912F91C4
:100C70000F900FBE0F901F901895DF93CF9300D069
:100C8000CDB7DEB780918600282F30E03A832983E4
:100C900049815A8142305105C1F089819A8183305E
:100CA000910569F129813A8121303105A1F580E072
:100CB00060E00E94FC000E94E5049093A5008093F0
:100CC000A40080E00E949C0426C00E94E50490934A
:100CD000A7008093A6002091A6003091A7008091E4
:100CE000A4009091A500A901481B590BCA0190933B
:100CF000A3008093A20081E00E949C040CC00E948B
:100D0000E5042091A6003091A700821B930B9093DD
:100D1000A9008093A800809186008F5F8093860051
:100D200080918600843011F40E94D7040F900F90B8
:100D3000CF91DF910895DF93CF93CDB7DEB78BE9E5
:100D40000E94C705A8E3B0E0E8E3F0E0908188E006
:100D500089278C93CF91DF910895EF92FF920F93A3
:100D60001F93DF93CF93CDB7DEB729970FB6F894D3
:100D7000DEBF0FBECDBF0E94E5008EE160E00E94A5
:100D8000FC000E94A10284E790E060E040E00E9445
:100D9000410389E790E060E041E00E9441030E9446
:100DA0002F050E94F3030E9440048DE396E00E9409
:100DB000F00481E00E949C040E94C9048BE996E043
:100DC0000E94A3050E946B050E9485028091860007
:100DD0008430E1F78091A2009091A300CC01A0E0C3
:100DE000B0E024E630E040E050E0BC01CD010E94DC
:100DF000B2077B018C012091A2003091A300809169
:100E0000A8009091A900820F931F9C0140E050E040
:100E1000C801B7010E94D107DA01C9018E839F83FF
:100E2000A887B9872091A2003091A3008091A800E3
:100E30009091A900820F931F9C0140E050E080E058
:100E400092E1AAE7B0E0BC01CD010E94D107DA012E
:100E5000C9018A839B83AC83BD8336C08E819F8109
:100E6000A885B9852AE030E040E050E0BC01CD0122
:100E70000E94D107DC01CB0189838E819F81A885E7
:100E8000B9852AE030E040E050E0BC01CD010E948D
:100E9000D107DA01C9018E839F83A887B987898129
:100EA000882F90E0880F991FFC01E857FF4F808141
:100EB000918120918700622F40E00E944103809140
:100EC00087008150809387008E819F81A885B98596
:100ED0000097A105B10511F688E08093870036C020
:100EE0008A819B81AC81BD812AE030E040E050E006
:100EF000BC01CD010E94D107DC01CB0189838A812D
:100F00009B81AC81BD812AE030E040E050E0BC0133
:100F1000CD010E94D107DA01C9018A839B83AC838A
:100F2000BD838981882F90E0880F991FFC01E857C5
:100F3000FF4F8081918120918700622F41E00E94C4
:100F40004103809187008150809387008A819B8133
:100F5000AC81BD810097A105B10511F685E08093B4
:100F6000860034CF629FD001739FF001829FE00D15
:100F7000F11D649FE00DF11D929FF00D839FF00D18
:100F8000749FF00D659FF00D9927729FB00DE11DC4
:100F9000F91F639FB00DE11DF91FBD01CF011124A1
:100FA0000895A1E21A2EAA1BBB1BFD010DC0AA1FAA
:100FB000BB1FEE1FFF1FA217B307E407F50720F0C2
:100FC000A21BB30BE40BF50B661F771F881F991F3D
:100FD0001A9469F760957095809590959B01AC0186
:0A0FE000BD01CF010895F894FFCF82
:100FEA00300031003200330034003500360037005B
:100FFA0038003900445554590046524551001011E1
:10100A0012131415161701086000620064006600C6
:0C101A0068006A006C006E00700072003C
:00000001FF
