:100000000C942A000C943F000C943F000C943F0089
:100010000C943F000C943F000C943F000C943F0064
:100020000C943F000C943F000C943F000C943F0054
:100030000C943F000C943F000C943F000C943F0044
:100040000C943F000C943F000C943F000C943F0034
:100050000C943F0011241FBECFE5D8E0DEBFCDBF1A
:1000600010E0A0E6B0E0E0E2FDE002C005900D92F5
:10007000A637B107D9F70E9437050C948E060C9469
:100080000000DF93CF93CDB7DEB72C970FB6F8946F
:10009000DEBF0FBECDBF69877A878B879C87898536
:1000A0009A85AB85BC8522E731E040E050E0BC0199
:1000B000CD010E944D06DC01CB0189839A83AB837D
:1000C000BC831D821E821F8218860CC000008D8199
:1000D0009E81AF81B8850196A11DB11D8D839E8340
:1000E000AF83B8872D813E814F81588589819A8160
:1000F000AB81BC81281739074A075B0738F32C9678
:100100000FB6F894DEBF0FBECDBFCF91DF9108953B
:10011000DF93CF93CDB7DEB72C970FB6F894DEBF41
:100120000FBECDBF69877A878B879C8789859A8523
:10013000AB85BC8527E731E040E050E0BC01CD0154
:100140000E944D06DC01CB01895D9444A040B04083
:1001500028EE33E040E050E0BC01CD010E946C0687
:10016000DA01C90189839A83AB83BC831D821E8215
:100170001F8218860CC000008D819E81AF81B885DA
:100180000196A11DB11D8D839E83AF83B8872D81FC
:100190003E814F81588589819A81AB81BC81281726
:1001A00039074A075B0738F32C960FB6F894DEBF81
:1001B0000FBECDBFCF91DF910895DF93CF93CDB721
:1001C000DEB7EAE3F0E08FEF8083E7E3F0E087E07B
:1001D0008083E4E3F0E01082E1E3F0E08FEF8083DE
:1001E000CF91DF910895DF93CF9300D0CDB7DEB7E5
:1001F00089836A838981883060F58A818823A1F4A4
:10020000ABE3B0E0EBE3F0E08081482F8981282F59
:1002100030E081E090E0022E02C0880F991F0A941E
:10022000E2F7842B8C93B3C0ABE3B0E0EBE3F0E0F8
:100230008081482F8981282F30E081E090E0022ED4
:1002400002C0880F991F0A94E2F7809584238C934B
:100250009EC08981883090F18981803178F58981CB
:10026000885089838A818823A1F4A8E3B0E0E8E379
:10027000F0E08081482F8981282F30E081E090E0F4
:10028000022E02C0880F991F0A94E2F7842B8C93E8
:100290007EC0A8E3B0E0E8E3F0E08081482F8981E8
:1002A000282F30E081E090E0022E02C0880F991FD5
:1002B0000A94E2F7809584238C9369C08981803108
:1002C00090F18981883178F58981805189838A818B
:1002D0008823A1F4A5E3B0E0E5E3F0E08081482FB6
:1002E0008981282F30E081E090E0022E02C0880F43
:1002F000991F0A94E2F7842B8C9349C0A5E3B0E0E0
:10030000E5E3F0E08081482F8981282F30E081E00B
:1003100090E0022E02C0880F991F0A94E2F78095A0
:1003200084238C9334C08981883188F1898180321B
:1003300070F58981885189838A818823A1F4A2E399
:10034000B0E0E2E3F0E08081482F8981282F30E09F
:1003500081E090E0022E02C0880F991F0A94E2F714
:10036000842B8C9314C0A2E3B0E0E2E3F0E0808140
:10037000482F8981282F30E081E090E0022E02C0D2
:10038000880F991F0A94E2F7809584238C930F902D
:100390000F90CF91DF910895DF93CF93CDB7DEB764
:1003A00062E370E080E090E00E94410088E30E94F8
:1003B000050264E670E080E090E00E9488008CE036
:1003C0000E94050264E670E080E090E00E948800F0
:1003D00081E00E94050262E070E080E090E00E940F
:1003E0004100CF91DF910895DF93CF930F92CDB766
:1003F000DEB7898388E060E00E94F30089810E9473
:1004000016020F90CF91DF910895DF93CF930F9253
:10041000CDB7DEB7898388E061E00E94F30089816F
:100420000E9416020F90CF91DF910895DF93CF9332
:100430000F92CDB7DEB7898389E061E00E94F300B7
:100440008981882F90E081709070882329F088E15D
:1004500060E00E94F30004C088E161E00E94F300C4
:100460008981882F90E0827090709595879500978C
:1004700029F089E160E00E94F30004C089E161E0B5
:100480000E94F3008981882F90E084709070959588
:10049000879595958795009729F08AE160E00E94FD
:1004A000F30004C08AE161E00E94F3008981882F93
:1004B00090E088709070959587959595879595951E
:1004C0008795009729F08BE160E00E94F30004C05B
:1004D0008BE161E00E94F3008981882F90E08071B8
:1004E0009070959587959595879595958795959510
:1004F0008795009729F08CE160E00E94F30004C02A
:100500008CE161E00E94F3008981882F90E0807285
:1005100090709595879595958795959587959595DF
:10052000879595958795009729F08DE160E00E9469
:10053000F30004C08DE161E00E94F3008981882FFF
:1005400090E080749070082E892F000C881F990B02
:10055000000C881F991F009729F08EE160E00E942F
:10056000F30004C08EE161E00E94F3008981881FDE
:100570008827881F882F90E09070009729F08FE1DE
:1005800060E00E94F30004C08FE161E00E94F3008C
:100590008AE060E00E94F30064E670E080E090E0B2
:1005A0000E9488008AE061E00E94F3000F90CF91E2
:1005B000DF910895DF93CF9300D00F92CDB7DEB7D0
:1005C0009B838A831982C9C18981882F90E0FC01AD
:1005D000E05AFF4F8081882F90E0817090708823CF
:1005E00029F080E060E00E94F30004C080E061E058
:1005F0000E94F3008981882F90E0FC01E05AFF4FB0
:100600008081882F90E082709070959587950097F3
:1006100029F081E060E00E94F30004C081E061E025
:100620000E94F3008981882F90E0FC01E05AFF4F7F
:100630008081882F90E0847090709595879595952E
:100640008795009729F082E060E00E94F30004C0E3
:1006500082E061E00E94F3008981882F90E0FC0134
:10066000E05AFF4F8081882F90E0887090709595B8
:1006700087959595879595958795009729F083E0BF
:1006800060E00E94F30004C083E061E00E94F30098
:100690008981882F90E0FC01E05AFF4F8081882FEC
:1006A00090E0807190709595879595958795959533
:1006B000879595958795009729F084E060E00E94E2
:1006C000F30004C084E061E00E94F3008981882F78
:1006D00090E0FC01E05AFF4F8081882F90E080720B
:1006E000907095958795959587959595879595950E
:1006F000879595958795009729F085E060E00E94A1
:10070000F30004C085E061E00E94F3008981882F36
:1007100090E0FC01E05AFF4F8081882F90E08074C8
:100720009070082E892F000C881F990B000C881FD1
:10073000991F009729F086E060E00E94F30004C052
:1007400086E061E00E94F3008981882F90E0FC013F
:10075000E05AFF4F8081881F8827881F882F90E0EC
:100760009070009729F087E060E00E94F30004C0D9
:1007700087E061E00E94F3008981282F30E08A81C0
:100780009B81FC01E20FF31F8081882F90E0817034
:100790009070882329F080E060E00E94F30004C09C
:1007A00080E061E00E94F3008981282F30E08A8197
:1007B0009B81FC01E20FF31F8081882F90E0827003
:1007C000907095958795009729F081E060E00E94F0
:1007D000F30004C081E061E00E94F3008981282FCA
:1007E00030E08A819B81FC01E20FF31F8081882F1A
:1007F00090E0847090709595879595958795009772
:1008000029F082E060E00E94F30004C082E061E031
:100810000E94F3008981282F30E08A819B81FC01AE
:10082000E20FF31F8081882F90E08870907095957B
:1008300087959595879595958795009729F083E0FD
:1008400060E00E94F30004C083E061E00E94F300D6
:100850008981282F30E08A819B81FC01E20FF31F00
:100860008081882F90E080719070959587959595FF
:1008700087959595879595958795009729F084E0BC
:1008800060E00E94F30004C084E061E00E94F30095
:100890008981282F30E08A819B81FC01E20FF31FC0
:1008A0008081882F90E080729070959587959595BE
:1008B00087959595879595958795959587950097B3
:1008C00029F085E060E00E94F30004C085E061E06B
:1008D0000E94F3008981282F30E08A819B81FC01EE
:1008E000E20FF31F8081882F90E080749070082EB3
:1008F000892F000C881F990B000C881F991F0097E7
:1009000029F086E060E00E94F30004C086E061E028
:100910000E94F3008981282F30E08A819B81FC01AD
:10092000E20FF31F8081881F8827881F882F90E09F
:100930009070009729F087E060E00E94F30004C007
:1009400087E061E00E94F30062E070E080E090E008
:100950000E94410089818F5F89838981883008F4F2
:1009600033CE0F900F900F90CF91DF910895DF93CA
:10097000CF930F92CDB7DEB7898388E060E00E9405
:10098000F3008981982F917088E1692F0E94F3000C
:100990008981882F90E08270907095958795982F27
:1009A00089E1692F0E94F3008981882F90E084708B
:1009B00090709595879595958795982F8AE1692FE1
:1009C0000E94F3008981882F90E08870907095953F
:1009D00087959595879595958795982F8BE1692FA4
:1009E0000E94F3008981882F90E080719070959526
:1009F0008795959587959595879595958795982F42
:100A00008CE1692F0E94F3008981882F90E0807229
:100A100090709595879595958795959587959595DA
:100A2000879595958795982F8DE1692F0E94F30002
:100A30008981882F90E080749070082E892F000C97
:100A4000881F990B000C881F991F982F8EE1692F22
:100A50000E94F3008981982F991F9927991F8FE190
:100A6000692F0E94F3000F90CF91DF910895DF93DB
:100A7000CF93CDB7DEB7A2970FB6F894DEBF0FBE07
:100A8000CDBFCE0104969A8F898FADE6B0E0BC8FC2
:100A9000AB8FB8E0BD8FEB8DFC8D00808B8D9C8D76
:100AA00001969C8F8B8FA98DBA8D0C92E98DFA8D52
:100AB0003196FA8FE98FFD8DF150FD8F8D8D882352
:100AC00051F788E0FE013C96DF01982F1D929A9520
:100AD000E9F788EF8C87DE015496BF8FAE8FE8E68A
:100AE000F0E0F9A3E8A3F5E0FAA3A8A1B9A10C905E
:100AF000E8A1F9A13196F9A3E8A3AE8DBF8D0C92C0
:100B0000EE8DFF8D3196FF8FEE8FFAA1F150FAA393
:100B10008AA1882351F71B820E94DD000E94CC012C
:100B20008C8586958C878D85880F8D878E8586959B
:100B30008E878F85880F8F8788898695888B89898E
:100B4000880F898B8A8986958A8B8B89880F8B8BF6
:100B50008C85882F90E081709070882319F08D85A6
:100B600081608D878D85881F8827881F882F90E05A
:100B700090708130910519F48E8580688E878E85FE
:100B8000882F90E081709070882319F08F858160A4
:100B90008F878F85881F8827881F882F90E0907007
:100BA0008130910519F488898068888B8889882F1D
:100BB00090E081709070882319F089898160898B19
:100BC0008989881F8827881F882F90E0907081303E
:100BD000910519F48A8980688A8B8A89882F90E028
:100BE00081709070882319F08B8981608B8B8B8941
:100BF000881F8827881F882F90E09070813091058A
:100C000019F48C8580688C871A822DC0198221C0C6
:100C1000ABE3B0E08981282F30E0CE010496FC01DF
:100C2000E20FF31F80818C93A2E3B0E08981282F2B
:100C300030E0CE010C96FC01E20FF31F80818C9313
:100C400062E070E080E090E00E94410089818F5F67
:100C5000898389818830E0F2EBE3F0E08FEF8083D5
:100C60008A818F5F8A838A818E3380F28B8185307F
:100C700029F48FEF8B8381E00E9405028B81282F5E
:100C800030E0CE014496FC01E20FF31F80810E9408
:100C9000F4018B818F5F8B8343CF629FD001739F61
:100CA000F001829FE00DF11D649FE00DF11D929F08
:100CB000F00D839FF00D749FF00D659FF00D992747
:100CC000729FB00DE11DF91F639FB00DE11DF91F6B
:100CD000BD01CF0111240895A1E21A2EAA1BBB1B4E
:100CE000FD010DC0AA1FBB1FEE1FFF1FA217B307F8
:100CF000E407F50720F0A21BB30BE40BF50B661F0E
:100D0000771F881F991F1A9469F7609570958095D1
:100D100090959B01AC01BD01CF010895F894FFCFE0
:100D2000FEFDFBF7EFDFBF7F736E616B65FEFDFBC2
:060D3000F7EFDFBF7F00BA
:00000001FF
