:100000000C942A000C9447000C9447000C94470071
:100010000C9447000C9447000C9447000C94470044
:100020000C9447000C9447000C9447000C94A004D7
:100030000C9447000C9447000C9447000C94470024
:100040000C9447000C9447000C9447000C94470014
:100050000C94470011241FBECFE5D8E0DEBFCDBF12
:1000600010E0A0E6B0E0E0E1FBE002C005900D92F8
:10007000AA36B107D9F710E0AAE6B0E001C01D9298
:10008000AE37B107E1F70E94CD040C9486050C94BD
:100090000000DF93CF93CDB7DEB7EAE3F0E080EF67
:1000A0008083E7E3F0E08FEF8083E4E3F0E08FEF1D
:1000B0008083E1E3F0E01082CF91DF910895DF9338
:1000C000CF9300D0CDB7DEB789836A83898188302A
:1000D00060F58A818823A1F4ABE3B0E0EBE3F0E0C4
:1000E0008081482F8981282F30E081E090E0022E26
:1000F00002C0880F991F0A94E2F7842B8C93B3C037
:10010000ABE3B0E0EBE3F0E08081482F8981282F5A
:1001100030E081E090E0022E02C0880F991F0A941F
:10012000E2F7809584238C939EC08981883090F17A
:100130008981803178F58981885089838A818823F3
:10014000A1F4A8E3B0E0E8E3F0E08081482F8981E2
:10015000282F30E081E090E0022E02C0880F991F26
:100160000A94E2F7842B8C937EC0A8E3B0E0E8E326
:10017000F0E08081482F8981282F30E081E090E0F5
:10018000022E02C0880F991F0A94E2F780958423FB
:100190008C9369C08981803190F18981883178F5AB
:1001A0008981805189838A818823A1F4A5E3B0E005
:1001B000E5E3F0E08081482F8981282F30E081E05D
:1001C00090E0022E02C0880F991F0A94E2F7842B58
:1001D0008C9349C0A5E3B0E0E5E3F0E08081482FCF
:1001E0008981282F30E081E090E0022E02C0880F44
:1001F000991F0A94E2F7809584238C9334C08981F7
:10020000883188F18981803270F5898188518983AC
:100210008A818823A1F4A2E3B0E0E2E3F0E08081E8
:10022000482F8981282F30E081E090E0022E02C023
:10023000880F991F0A94E2F7842B8C9314C0A2E3D1
:10024000B0E0E2E3F0E08081482F8981282F30E0A0
:1002500081E090E0022E02C0880F991F0A94E2F715
:10026000809584238C930F900F90CF91DF91089508
:10027000DF93CF9300D000D0CDB7DEB78C838C81D5
:10028000883000F58C818B83E9E3F0E08081482F92
:1002900050E08B81282F30E081E090E002C0880F91
:1002A000991F2A95E2F79A01282339238B81882FF9
:1002B00090E0A90102C0559547958A95E2F7CA01D9
:1002C0008A8374C08C81883020F18C81803108F55C
:1002D0008C8188508B83E6E3F0E08081482F50E0EA
:1002E0008B81282F30E081E090E002C0880F991FB9
:1002F0002A95E2F79A01282339238B81882F90E0F1
:10030000A90102C0559547958A95E2F7CA018A83EB
:100310004DC08C81803120F18C81883108F58C8131
:1003200080518B83E6E3F0E08081482F50E08B81A1
:10033000282F30E081E090E002C0880F991F2A95B5
:10034000E2F79A01282339238B81882F90E0A901B5
:1003500002C0559547958A95E2F7CA018A8326C05F
:100360008C81883118F18C81803200F58C81885124
:100370008B83E0E3F0E08081482F50E08B81282FD1
:1003800030E081E090E002C0880F991F2A95E2F7E3
:100390009A01282339238B81882F90E0A90102C07C
:1003A000559547958A95E2F7CA018A838A81882301
:1003B00019F481E0898304C08A81813009F41982AB
:1003C00089810F900F900F900F90CF91DF9108953A
:1003D000DF93CF93CDB7DEB7AFE5B0E0EFE5F0E068
:1003E000808180688C93CF91DF910895DF93CF93C4
:1003F000CDB7DEB7AFE5B0E0EFE5F0E080818F7715
:100400008C93CF91DF910895DF93CF93CDB7DEB773
:1004100010926B0010926A0084E061E00E945F001D
:1004200085E060E00E945F0086E060E00E945F007F
:1004300087E060E00E945F0080E00E945F0284E04D
:1004400060E00E945F0085E061E00E945F0086E05E
:1004500060E00E945F0087E060E00E945F0081E052
:100460000E945F0284E060E00E945F0085E060E03F
:100470000E945F0086E061E00E945F0087E060E02C
:100480000E945F0082E00E945F0284E060E00E94C0
:100490005F0085E060E00E945F0086E060E00E940F
:1004A0005F0087E061E00E945F0083E00E945F02DE
:1004B00080916A0090916B00CF91DF910895DF9356
:1004C000CF930F92CDB7DEB7898380E00E943801C9
:1004D0008130A9F48981282F30E081E090E002C0CA
:1004E000880F991F2A95E2F79C0180916A009091EC
:1004F0006B00822B932B90936B0080936A0081E0BA
:100500000E9438018130C1F48981882F90E09C01DC
:100510002C5F3F4F81E090E002C0880F991F2A9521
:10052000E2F79C0180916A0090916B00822B932BE3
:1005300090936B0080936A0082E00E9438018130C2
:10054000C1F48981882F90E09C01285F3F4F81E0B2
:1005500090E002C0880F991F2A95E2F79C018091D4
:100560006A0090916B00822B932B90936B00809389
:100570006A0083E00E9438018130C1F48981882FAC
:1005800090E09C01245F3F4F81E090E002C0880F23
:10059000991F2A95E2F79C0180916A0090916B0067
:1005A000822B932B90936B0080936A000F90CF91D6
:1005B000DF910895DF93CF930F92CDB7DEB780918F
:1005C000710090917200A0917300B0917400019637
:1005D000A11DB11D8093710090937200A0937300D0
:1005E000B0937400209171003091720040917300BB
:1005F0005091740080916C0090916D00A0916E00FC
:10060000B0916F00281739074A075B0709F076C0D9
:100610001092710010927200109273001092740088
:10062000809170000E949204198264C08981882F91
:1006300090E0880F991FFC01EB58FF4F808191815A
:10064000009709F454C08981882F90E0880F991F82
:10065000FC01EB58FF4F0190F081E02D8281813049
:1006600009F045C08981882F90E0880F991FFC010F
:10067000EB58FF4F0190F081E02D8181882349F5EF
:100680008981882F90E0880F991FFC01EB58FF4F5C
:10069000A081B1818981882F90E0880F991FFC018A
:1006A000EB58FF4F0190F081E02D80818150119631
:1006B0008C938981882F90E0880F991FFC01EB585B
:1006C000FF4F0190F081E02D0380F481E02D09952A
:1006D0000EC08981882F90E0880F991FFC01EB588C
:1006E000FF4F0190F081E02D8181815081838981CC
:1006F0008F5F89838981823008F498CF0F90CF91E2
:10070000DF910895DF93CF93CDB7DEB728970FB66B
:10071000F894DEBF0FBECDBF8AED92E00E94800448
:1007200080E090E4A0E0B0E08D839E83AF83B88743
:1007300088EE93E0A0E0B0E02D813E814F815885A6
:10074000BC01CD010E946405DA01C90180936C00EF
:1007500090936D00A0936E00B0936F0088EE93E0CD
:10076000A0E0B0E02D813E814F815885BC01CD01D4
:100770000E946405DC01CB0189839A83AB83BC832F
:1007800089819A81AB81BC810097A105B10549F1AE
:1007900080916C0090916D00A0916E00B0916F00FF
:1007A0000196A11DB11D80936C0090936D00A093E4
:1007B0006E00B0936F0089819A81AB81BC81BA2FA2
:1007C000A92F982F88272D813E814F815885BC0104
:1007D000CD010E946405DA01C90181958093700002
:1007E00002C01092700028960FB6F894DEBF0FBEBC
:1007F000CDBFCF91DF910895DF93CF9300D00F92BB
:10080000CDB7DEB79A8389836B838B81823060F4A6
:100810008B81882F90E0880F991FFC01EB58FF4FC8
:1008200089819A81918380830F900F900F90CF914F
:10083000DF910895DF93CF930F92CDB7DEB7898311
:100840008981882F90E0880F991FFC01EB58FF4F9A
:10085000118210820F90CF91DF910895DF93CF9393
:1008600000D0CDB7DEB789836A838981882F90E075
:10087000880F991FFC01EB58FF4F0190F081E02D8C
:100880008A8182830F900F90CF91DF910895DF933B
:10089000CF93CDB7DEB7A8E5B0E0E8E5F0E0808122
:1008A00081608C93A9E5B0E0E9E5F0E080818E7F7E
:1008B0008C93E2E5F0E08DE28083E3E5F0E085E013
:1008C0008083CF91DF910895DF93CF93CDB7DEB7CB
:1008D000A9E5B0E0E9E5F0E0808181608C93CF91FB
:1008E000DF910895DF93CF93CDB7DEB7A9E5B0E0F0
:1008F000E9E5F0E080818E7F8C93CF91DF910895C0
:10090000DF93CF9300D0CDB7DEB79A8389838981F7
:100910009A8190937A00809379000F900F90CF91F5
:10092000DF910895DF93CF930F92CDB7DEB7898320
:10093000E2E5F0E0898180830F90CF91DF91089507
:100940001F920F920FB60F9211242F933F934F9344
:100950005F936F937F938F939F93AF93BF93EF9327
:10096000FF93DF93CF93CDB7DEB7E0917900F0919D
:100970007A000995CF91DF91FF91EF91BF91AF91EF
:100980009F918F917F916F915F914F913F912F91A7
:100990000F900FBE0F901F901895DF93CF93CDB798
:1009A000DEB70E94490080E060E00E945F0081E0C5
:1009B00060E00E945F0082E060E00E945F0083E0F0
:1009C00060E00E945F000E9447040E9464040E944D
:1009D00082030E94E80180E690E060E00E94FC0350
:1009E000FFCFDF93CF93CDB7DEB780917C00882314
:1009F00041F488E060E00E945F0081E080937C0029
:100A00000AC080917C00813031F488E061E00E946E
:100A10005F0010927C00CF91DF910895DF93CF9318
:100A200000D00F92CDB7DEB70E9404029B838A8369
:100A3000198240C08981282F30E081E090E002C017
:100A4000880F991F2A95E2F79C018A819B812823B0
:100A500039238981882F90E0A90102C056954795D6
:100A60008A95E2F7CA018130910581F480917D0079
:100A70008823E9F489818093650085E690E061E050
:100A80000E94FC0381E080937D0011C08A819B81DC
:100A9000009769F480917C00813021F40E94F10478
:100AA00010927C0081E00E941A0410927D008981DE
:100AB0008F5F89838981803108F4BCCF0F900F90BC
:100AC0000F90CF91DF910895A1E21A2EAA1BBB1BB4
:100AD000FD010DC0AA1FBB1FEE1FFF1FA217B3070A
:100AE000E407F50720F0A21BB30BE40BF50B661F20
:100AF000771F881F991F1A9469F7609570958095E4
:100B000090959B01AC01BD01CF010895F894FFCFF2
:0A0B1000C800010E05000001F10409
:00000001FF
