:100000000C942A000C9447000C9447000C94470071
:100010000C9447000C9447000C9447000C94470044
:100020000C9447000C9447000C9447000C94470034
:100030000C94C5030C9447000C9447000C944700A3
:100040000C9447000C9447000C9447000C94470014
:100050000C94470011241FBECFE5D8E0DEBFCDBF12
:1000600012E0A0E6B0E0E4E6F8E002C005900D92F0
:10007000A835B107D9F712E0A8E5B2E001C01D929A
:10008000AA35B107E1F70E94E0030C9430040C9408
:100090000000DF93CF93CDB7DEB72C970FB6F8945F
:1000A000DEBF0FBECDBF69877A878B879C87898526
:1000B0009A85AB85BC8522E731E040E050E0BC0189
:1000C000CD010E94EF03DC01CB0189839A83AB83CE
:1000D000BC831D821E821F8218860CC000008D8189
:1000E0009E81AF81B8850196A11DB11D8D839E8330
:1000F000AF83B8872D813E814F81588589819A8150
:10010000AB81BC81281739074A075B0738F32C9667
:100110000FB6F894DEBF0FBECDBFCF91DF9108952B
:10012000DF93CF93CDB7DEB72C970FB6F894DEBF31
:100130000FBECDBF69877A878B879C8789859A8513
:10014000AB85BC8527E731E040E050E0BC01CD0144
:100150000E94EF03DC01CB01895D9444A040B040D4
:1001600028EE33E040E050E0BC01CD010E940E04D7
:10017000DA01C90189839A83AB83BC831D821E8205
:100180001F8218860CC000008D819E81AF81B885CA
:100190000196A11DB11D8D839E83AF83B8872D81EC
:1001A0003E814F81588589819A81AB81BC81281716
:1001B00039074A075B0738F32C960FB6F894DEBF71
:1001C0000FBECDBFCF91DF910895DF93CF93CDB711
:1001D000DEB7EAE3F0E08FEF8083E7E3F0E08FEB58
:1001E0008083E4E3F0E08FEF8083E1E3F0E08FEFE2
:1001F0008083CF91DF910895DF93CF9300D0CDB767
:10020000DEB789836A838981883060F58A81882393
:10021000A1F4ABE3B0E0EBE3F0E08081482F89810B
:10022000282F30E081E090E0022E02C0880F991F55
:100230000A94E2F7842B8C93B3C0ABE3B0E0EBE31A
:10024000F0E08081482F8981282F30E081E090E024
:10025000022E02C0880F991F0A94E2F7809584232A
:100260008C939EC08981883090F18981803178F5A6
:100270008981885089838A818823A1F4A8E3B0E02A
:10028000E8E3F0E08081482F8981282F30E081E089
:1002900090E0022E02C0880F991F0A94E2F7842B87
:1002A0008C937EC0A8E3B0E0E8E3F0E08081482FC3
:1002B0008981282F30E081E090E0022E02C0880F73
:1002C000991F0A94E2F7809584238C9369C08981F1
:1002D000803190F18981883178F5898180518983D5
:1002E0008A818823A1F4A5E3B0E0E5E3F0E0808112
:1002F000482F8981282F30E081E090E0022E02C053
:10030000880F991F0A94E2F7842B8C9349C0A5E3C8
:10031000B0E0E5E3F0E08081482F8981282F30E0CC
:1003200081E090E0022E02C0880F991F0A94E2F744
:10033000809584238C9334C08981883188F18981A8
:10034000803270F58981885189838A818823A1F45C
:10035000A2E3B0E0E2E3F0E08081482F8981282F1A
:1003600030E081E090E0022E02C0880F991F0A94CD
:10037000E2F7842B8C9314C0A2E3B0E0E2E3F0E058
:100380008081482F8981282F30E081E090E0022E83
:1003900002C0880F991F0A94E2F7809584238C93FA
:1003A0000F900F90CF91DF910895DF93CF9300D0FE
:1003B00000D0CDB7DEB78C838C81883000F58C817E
:1003C0008B83E9E3F0E08081482F50E08B81282F78
:1003D00030E081E090E002C0880F991F2A95E2F793
:1003E0009A01282339238B81882F90E0A90102C02C
:1003F000559547958A95E2F7CA018A8374C08C8126
:10040000883020F18C81803108F58C8188508B8375
:10041000E6E3F0E08081482F50E08B81282F30E028
:1004200081E090E002C0880F991F2A95E2F79A01B7
:10043000282339238B81882F90E0A90102C055958C
:1004400047958A95E2F7CA018A834DC08C81803135
:1004500020F18C81883108F58C8180518B83E6E313
:10046000F0E08081482F50E08B81282F30E081E040
:1004700090E002C0880F991F2A95E2F79A0128237D
:1004800039238B81882F90E0A90102C055954795AB
:100490008A95E2F7CA018A8326C08C81883118F1D7
:1004A0008C81803200F58C8188518B83E0E3F0E011
:1004B0008081482F50E08B81282F30E081E090E050
:1004C00002C0880F991F2A95E2F79A012823392341
:1004D0008B81882F90E0A90102C0559547958A9598
:1004E000E2F7CA018A838A81882319F481E089832B
:1004F00004C08A81813009F4198289810F900F909C
:100500000F900F90CF91DF910895DF93CF93CDB7E8
:10051000DEB7AFE5B0E0EFE5F0E0808180688C9376
:10052000CF91DF910895DF93CF93CDB7DEB7AFE5DD
:10053000B0E0EFE5F0E080818F778C93CF91DF9191
:100540000895DF93CF930F92CDB7DEB7898388E10B
:1005500060E00E94FC0089E161E00E94FC0089816A
:100560000E9490030E949E0389E160E00E94FC00CB
:100570000F90CF91DF910895DF93CF930F92CDB776
:10058000DEB7898388E161E00E94FC0089E161E0D7
:100590000E94FC0089810E9490030E949E0389E1D1
:1005A00060E00E94FC000F90CF91DF910895DF93EF
:1005B000CF9300D000D0CDB7DEB79C838B831A8257
:1005C00019820FC02B813C8189819A81F901E80F42
:1005D000F91F80810E94A10289819A8101969A83E4
:1005E000898389819A8121E0883F920758F30F908F
:1005F0000F900F900F90CF91DF910895DF93CF93DD
:10060000CDB7DEB78AE160E00E94FC0062E070E0F6
:1006100080E090E00E9449008AE161E00E94FC00D5
:1006200062E070E080E090E00E9449008AE160E0D2
:100630000E94FC0062E070E080E090E00E944900CF
:1006400081E20E94BC028EEB0E94BC0286E00E9406
:10065000BC0283E10E94BC0280E20E94BC028CE0EA
:100660000E94BC02CF91DF910895DF93CF93CDB765
:10067000DEB7ADE2B0E0EDE2F0E080818F7D8C93FB
:10068000ADE2B0E0EDE2F0E0808180618C93ADE21C
:10069000B0E0EDE2F0E08081877F8C93ADE2B0E0E6
:1006A000EDE2F0E0808184608C93ADE2B0E0EDE2B9
:1006B000F0E080818D7F8C93ADE2B0E0EDE2F0E080
:1006C000808181608C93AEE2B0E0EEE2F0E0808168
:1006D00081608C93ADE2B0E0EDE2F0E08081806477
:1006E0008C93CF91DF910895DF93CF93CDB7DEB791
:1006F000ADE2B0E0EDE2F0E0808180688C93CF91D4
:10070000DF910895DF93CF93CDB7DEB7ADE2B0E0D0
:10071000EDE2F0E080818F778C93CF91DF910895A7
:10072000DF93CF930F92CDB7DEB78983EFE2F0E08E
:10073000898180830F90CF91DF910895DF93CF93CC
:10074000CDB7DEB7EEE2F0E08081881F8827881FF2
:10075000882F90E090700097A9F3CF91DF910895D2
:10076000DF93CF930F92CDB7DEB7809158028130DF
:1007700031F41092580280915902898301C0198284
:1007800089810F90CF91DF9108951F920F920FB63C
:100790000F9211248F93EF93FF93DF93CF93CDB7F5
:1007A000DEB7EFE2F0E0808180935902CF91DF91D4
:1007B000FF91EF918F910F900FBE0F901F901895A2
:1007C000DF93CF93CDB7DEB70E94E5000E943503DB
:1007D0000E94FE0280E690E00E94D702FFCF629F57
:1007E000D001739FF001829FE00DF11D649FE00D29
:1007F000F11D929FF00D839FF00D749FF00D659F8A
:10080000F00D9927729FB00DE11DF91F639FB00D88
:10081000E11DF91FBD01CF0111240895A1E21A2E97
:10082000AA1BBB1BFD010DC0AA1FBB1FEE1FFF1F94
:10083000A217B307E407F50720F0A21BB30BE40BE4
:10084000F50B661F771F881F991F1A9469F760952B
:100850007095809590959B01AC01BD01CF010895E5
:04086000F894FFCF3A
:100864000000000000000000000000000000000084
:100874000000000000000000000000000000000074
:100884000000000000000000E0FCFEF0800000001A
:100894000000000000000000000000000000000054
:1008A4000000000000000000000000000000000044
:1008B4000000000000000000000000000000000034
:1008C4000000000000000000000000000000000024
:1008D40004040C0C1C3C3C7CFCFCFCFFFFFFFFFFF5
:1008E400FFFCFCFC7C3C3C1C1C0C040400000000D1
:1008F40000000000000000000000000000000000F4
:1009040000000000000000000000000000000000E3
:1009140000000000000000000000000000000000D3
:10092400000000000000000000C0F07C3F3F1F0FEB
:100934000F07070F0F1F3F3F7CF0C00000000000AF
:1009440000000000000000000000000000000000A3
:100954000000000000000000000000000000000093
:10096400000000000000000000E0F8FFFEF8C000F6
:100974000000000000000000000000000000000073
:100984000000000000000000000000000000000063
:100994000000000000000000000000000080F0FEE5
:1009A400FFF8C0000000000000000000000000008C
:1009B4000001010307070F0F1F1FFFFFFFFFFFFFCA
:1009C400FFFFFFFFFFFF1F1F0F0F070303010100BE
:1009D4000000000000000000000000000000000013
:1009E400000000000001000206060E0E1E3EFEFE80
:1009F400FEFFFFFFFFFFFFFFFEFE3E1E1E0E06066C
:100A04000202000000000000000040703C1F1F0FA5
:100A1400070703010303070F0F1F3E3840000000C0
:100A240000000000000000000000000000000000C2
:100A34000000000000000000000000000000006052
:100A4400383E1F0F0F0707030303070F0F1F3F381D
:080A540060000000000000003A
:00000001FF
