:100000000C942A000C9434000C9434000C943400AA
:100010000C9434000C9434000C9434000C94340090
:100020000C9434000C9434000C9434000C94340080
:100030000C9434000C9434000C9434000C94340070
:100040000C9434000C9434000C9434000C94340060
:100050000C94340011241FBECFE5D8E0DEBFCDBF25
:100060000E9488020C94E1020C940000DF93CF936D
:10007000CDB7DEB72C970FB6F894DEBF0FBECDBF5D
:1000800069877A878B879C8789859A85AB85BC85AC
:1000900022E731E040E050E0BC01CD010E94A00227
:1000A000DC01CB0189839A83AB83BC831D821E82D2
:1000B0001F8218860CC000008D819E81AF81B8859B
:1000C0000196A11DB11D8D839E83AF83B8872D81BD
:1000D0003E814F81588589819A81AB81BC812817E7
:1000E00039074A075B0738F32C960FB6F894DEBF42
:1000F0000FBECDBFCF91DF910895DF93CF93CDB7E2
:10010000DEB72C970FB6F894DEBF0FBECDBF698760
:100110007A878B879C8789859A85AB85BC8527E7FD
:1001200031E040E050E0BC01CD010E94A002DC01C2
:10013000CB01895D9444A040B04028EE33E040E01C
:1001400050E0BC01CD010E94BF02DA01C9018983E0
:100150009A83AB83BC831D821E821F8218860CC0CB
:1001600000008D819E81AF81B8850196A11DB11DD2
:100170008D839E83AF83B8872D813E814F815885C3
:1001800089819A81AB81BC81281739074A075B07AF
:1001900038F32C960FB6F894DEBF0FBECDBFCF91CB
:1001A000DF910895DF93CF93CDB7DEB7EAE3F0E0B8
:1001B0001082E7E3F0E081E08083E4E3F0E0108286
:1001C000E1E3F0E08FEF8083CF91DF910895DF933B
:1001D000CF9300D0CDB7DEB789836A838981883019
:1001E00060F58A818823A1F4ABE3B0E0EBE3F0E0B3
:1001F0008081482F8981282F30E081E090E0022E15
:1002000002C0880F991F0A94E2F7842B8C93B3C025
:10021000ABE3B0E0EBE3F0E08081482F8981282F49
:1002200030E081E090E0022E02C0880F991F0A940E
:10023000E2F7809584238C939EC08981883090F169
:100240008981803178F58981885089838A818823E2
:10025000A1F4A8E3B0E0E8E3F0E08081482F8981D1
:10026000282F30E081E090E0022E02C0880F991F15
:100270000A94E2F7842B8C937EC0A8E3B0E0E8E315
:10028000F0E08081482F8981282F30E081E090E0E4
:10029000022E02C0880F991F0A94E2F780958423EA
:1002A0008C9369C08981803190F18981883178F59A
:1002B0008981805189838A818823A1F4A5E3B0E0F4
:1002C000E5E3F0E08081482F8981282F30E081E04C
:1002D00090E0022E02C0880F991F0A94E2F7842B47
:1002E0008C9349C0A5E3B0E0E5E3F0E08081482FBE
:1002F0008981282F30E081E090E0022E02C0880F33
:10030000991F0A94E2F7809584238C9334C08981E5
:10031000883188F18981803270F58981885189839B
:100320008A818823A1F4A2E3B0E0E2E3F0E08081D7
:10033000482F8981282F30E081E090E0022E02C012
:10034000880F991F0A94E2F7842B8C9314C0A2E3C0
:10035000B0E0E2E3F0E08081482F8981282F30E08F
:1003600081E090E0022E02C0880F991F0A94E2F704
:10037000809584238C930F900F90CF91DF910895F7
:10038000DF93CF9300D000D0CDB7DEB78C838C81C4
:10039000883000F58C818B83E9E3F0E08081482F81
:1003A00050E08B81282F30E081E090E002C0880F80
:1003B000991F2A95E2F79A01282339238B81882FE8
:1003C00090E0A90102C0559547958A95E2F7CA01C8
:1003D0008A8374C08C81803120F18C81883108F54A
:1003E0008C8188508B83E6E3F0E08081482F50E0D9
:1003F0008B81282F30E081E090E002C0880F991FA8
:100400002A95E2F79A01282339238B81882F90E0DF
:10041000A90102C0559547958A95E2F7CA018A83DA
:100420004DC08C81803120F18C81883108F58C8120
:1004300080518B83E6E3F0E08081482F50E08B8190
:10044000282F30E081E090E002C0880F991F2A95A4
:10045000E2F79A01282339238B81882F90E0A901A4
:1004600002C0559547958A95E2F7CA018A8326C04E
:100470008C81883118F18C81803200F58C81885113
:100480008B83E0E3F0E08081482F50E08B81282FC0
:1004900030E081E090E002C0880F991F2A95E2F7D2
:1004A0009A01282339238B81882F90E0A90102C06B
:1004B000559547958A95E2F7CA018A838A818823F0
:1004C00019F481E0898304C08A81813009F419829A
:1004D00089810F900F900F900F90CF91DF91089529
:1004E000DF93CF930F92CDB7DEB782E00E94C001B9
:1004F000882311F4198207C082E00E94C00188237A
:1005000011F081E0898389810F90CF91DF91089567
:10051000DF93CF93CDB7DEB70E94D2000E94700266
:10052000813029F488E060E00E94E700F7CF0E9464
:100530007002882399F788E061E00E94E700EECF1F
:10054000629FD001739FF001829FE00DF11D649FB7
:10055000E00DF11D929FF00D839FF00D749FF00D43
:10056000659FF00D9927729FB00DE11DF91F639FE4
:10057000B00DE11DF91FBD01CF0111240895A1E2C5
:100580001A2EAA1BBB1BFD010DC0AA1FBB1FEE1F0D
:10059000FF1FA217B307E407F50720F0A21BB30B58
:1005A000E40BF50B661F771F881F991F1A9469F7D4
:1005B00060957095809590959B01AC01BD01CF0130
:0605C0000895F894FFCF3E
:00000001FF
