:100000000C942A000C9447000C9447000C94470071
:100010000C9447000C9447000C9447000C94470044
:100020000C9447000C9447000C9447000C94470034
:100030000C9447000C94C9040C9447000C9447009E
:100040000C9447000C9447000C9447000C94470014
:100050000C94470011241FBECFE5D8E0DEBFCDBF12
:1000600010E0A0E6B0E0EAE0FBE002C005900D92EF
:10007000A037B107D9F710E0A0E7B0E001C01D92AA
:10008000A538B107E1F70E940F050C9483050C9485
:100090000000DF93CF93CDB7DEB72C970FB6F8945F
:1000A000DEBF0FBECDBF69877A878B879C87898526
:1000B0009A85AB85BC8522E731E040E050E0BC0189
:1000C000CD010E944205DC01CB0189839A83AB8379
:1000D000BC831D821E821F8218860CC000008D8189
:1000E0009E81AF81B8850196A11DB11D8D839E8330
:1000F000AF83B8872D813E814F81588589819A8150
:10010000AB81BC81281739074A075B0738F32C9667
:100110000FB6F894DEBF0FBECDBFCF91DF9108952B
:10012000DF93CF93CDB7DEB72C970FB6F894DEBF31
:100130000FBECDBF69877A878B879C8789859A8513
:10014000AB85BC8527E731E040E050E0BC01CD0144
:100150000E944205DC01CB01895D9444A040B0407F
:1001600028EE33E040E050E0BC01CD010E94610583
:10017000DA01C90189839A83AB83BC831D821E8205
:100180001F8218860CC000008D819E81AF81B885CA
:100190000196A11DB11D8D839E83AF83B8872D81EC
:1001A0003E814F81588589819A81AB81BC81281716
:1001B00039074A075B0738F32C960FB6F894DEBF71
:1001C0000FBECDBFCF91DF910895DF93CF93CDB711
:1001D000DEB7EAE3F0E08FEF8083E7E3F0E08FEF54
:1001E0008083E4E3F0E08FEF8083E1E3F0E08EEFE3
:1001F0008083CF91DF910895DF93CF9300D0CDB767
:10020000DEB789836A838981883060F58A81882393
:10021000A1F4ABE3B0E0EBE3F0E08081482F89810B
:10022000282F30E081E090E0022E02C0880F991F55
:100230000A94E2F7842B8C93B3C0ABE3B0E0EBE31A
:10024000F0E08081482F8981282F30E081E090E024
:10025000022E02C0880F991F0A94E2F7809584232A
:100260008C939EC08981883090F18981803178F5A6
:100270008981885089838A818823A1F4A8E3B0E02A
:10028000E8E3F0E08081482F8981282F30E081E089
:1002900090E0022E02C0880F991F0A94E2F7842B87
:1002A0008C937EC0A8E3B0E0E8E3F0E08081482FC3
:1002B0008981282F30E081E090E0022E02C0880F73
:1002C000991F0A94E2F7809584238C9369C08981F1
:1002D000803190F18981883178F5898180518983D5
:1002E0008A818823A1F4A5E3B0E0E5E3F0E0808112
:1002F000482F8981282F30E081E090E0022E02C053
:10030000880F991F0A94E2F7842B8C9349C0A5E3C8
:10031000B0E0E5E3F0E08081482F8981282F30E0CC
:1003200081E090E0022E02C0880F991F0A94E2F744
:10033000809584238C9334C08981883188F18981A8
:10034000803270F58981885189838A818823A1F45C
:10035000A2E3B0E0E2E3F0E08081482F8981282F1A
:1003600030E081E090E0022E02C0880F991F0A94CD
:10037000E2F7842B8C9314C0A2E3B0E0E2E3F0E058
:100380008081482F8981282F30E081E090E0022E83
:1003900002C0880F991F0A94E2F7809584238C93FA
:1003A0000F900F90CF91DF910895DF93CF9300D0FE
:1003B00000D0CDB7DEB78C838C81883000F58C817E
:1003C0008B83E9E3F0E08081482F50E08B81282F78
:1003D00030E081E090E002C0880F991F2A95E2F793
:1003E0009A01282339238B81882F90E0A90102C02C
:1003F000559547958A95E2F7CA018A8374C08C8126
:10040000883020F18C81803108F58C8188508B8375
:10041000E6E3F0E08081482F50E08B81282F30E028
:1004200081E090E002C0880F991F2A95E2F79A01B7
:10043000282339238B81882F90E0A90102C055958C
:1004400047958A95E2F7CA018A834DC08C81803135
:1004500020F18C81883108F58C8180518B83E6E313
:10046000F0E08081482F50E08B81282F30E081E040
:1004700090E002C0880F991F2A95E2F79A0128237D
:1004800039238B81882F90E0A90102C055954795AB
:100490008A95E2F7CA018A8326C08C81883118F1D7
:1004A0008C81803200F58C8188518B83E0E3F0E011
:1004B0008081482F50E08B81282F30E081E090E050
:1004C00002C0880F991F2A95E2F79A012823392341
:1004D0008B81882F90E0A90102C0559547958A9598
:1004E000E2F7CA018A838A81882319F481E089832B
:1004F00004C08A81813009F4198289810F900F909C
:100500000F900F90CF91DF910895DF93CF93CDB7E8
:10051000DEB7AFE5B0E0EFE5F0E0808180688C9376
:10052000CF91DF910895DF93CF93CDB7DEB7AFE5DD
:10053000B0E0EFE5F0E080818F778C93CF91DF9191
:100540000895DF93CF93CDB7DEB762E370E080E02C
:1005500090E00E94490088E30E94DA0261E070E0C6
:1005600080E090E00E9449008CE00E94DA0261E0A5
:1005700070E080E090E00E94490081E00E94DA0291
:1005800062E070E080E090E00E944900CF91DF914E
:100590000895DF93CF930F92CDB7DEB789838DE1B6
:1005A00060E00E94FC0089810E94EB020F90CF91D5
:1005B000DF910895DF93CF930F92CDB7DEB7898394
:1005C0008DE161E00E94FC0089810E94EB020F90A6
:1005D000CF91DF910895DF93CF9300D0CDB7DEB7F1
:1005E0008A838EE161E00E94FC00198234C08A8116
:1005F000482F50E08981282F30E081E090E002C050
:10060000880F991F2A95E2F79A01282339238981B7
:10061000882F90E0A90102C0559547958A95E2F789
:10062000CA01009759F08981882F90E0FC01E859B0
:10063000FF4F808160E00E94FC000AC08981882F02
:1006400090E0FC01E859FF4F808161E00E94FC00CE
:1006500089818F5F89838981883048F28FE160E0EA
:100660000E94FC0061E070E080E090E00E944900A0
:100670008FE161E00E94FC000F900F90CF91DF911D
:100680000895DF93CF9300D000D0CDB7DEB79A8323
:1006900089836B834C838C81882F90E0002496950E
:1006A00087950794969587950794982F802D982F76
:1006B00090688B81892B0E94DA020AC0E981FA8155
:1006C00080810E94C90289819A8101969A838983D7
:1006D000E981FA818081882389F70F900F900F902C
:1006E0000F90CF91DF910895DF93CF9300D0CDB7D6
:1006F000DEB79A8389830AC0E981FA8180810E94EA
:10070000C90289819A8101969A838983E981FA8154
:100710008081882389F70F900F90CF91DF91089502
:10072000DF93CF93CDB7DEB781E00E94DA0262E0BB
:1007300070E080E090E00E944900CF91DF91089541
:10074000DF93CF9300D000D0CDB7DEB79B838A83F1
:100750006C838C81882F90E0880F991F880F991FD8
:10076000880F991F80640E94DA0219820EC0898165
:10077000282F30E08A819B81FC01E20FF31F8081EA
:100780000E94C90289818F5F89838981883078F3CB
:100790000F900F900F900F90CF91DF910895DF93FE
:1007A000CF9300D00F92CDB7DEB789836A834B8396
:1007B0008B81882F90E000249695879507949695D5
:1007C00087950794982F802D982F90688A81892B80
:1007D0000E94DA0289810E94C9020F900F900F9047
:1007E000CF91DF910895DF93CF930F92CDB7DEB70E
:1007F000EBE2F0E01082E9E2F0E08CE080838981B6
:100800008068898389818F7B898389818F7E8983B1
:1008100089818F7D89838981877F898389818260AE
:100820008983898184608983AAE2B0E0EAE2F0E00A
:1008300080818B7F8C93E0E4F0E089818083EAE221
:10084000F0E088E180830F90CF91DF910895DF93EE
:10085000CF930F92CDB7DEB78983ECE2F0E08981C8
:100860008083EBE2F0E08081882F90E080749070CC
:10087000082E892F000C881F990B000C881F991FC8
:10088000009779F3ABE2B0E0EBE2F0E080818064C6
:100890008C930F90CF91DF910895DF93CF93CDB7D5
:1008A000DEB7EBE2F0E08081881F8827881F882F61
:1008B00090E090700097A9F3ECE2F0E08081CF9196
:1008C000DF910895DF93CF93CDB7DEB7AAE2B0E012
:1008D000EAE2F0E0808180688C93CF91DF91089507
:1008E000DF93CF93CDB7DEB7AAE2B0E0EAE2F0E063
:1008F00080818F778C93CF91DF910895DF93CF9391
:1009000000D000D000D0CDB7DEB79C838B837E8330
:100910006D83AAE2B0E0EAE2F0E080818F778C9309
:100920001A82198213C02B813C8189819A81D90155
:10093000A80FB91F89819A81FC01EF58FF4F808170
:100940008C9389819A8101969A8389838091700022
:10095000282F30E089819A818217930720F38091B4
:100960007000882F90E0ED81FE819183808310924A
:100970007000AAE2B0E0EAE2F0E0808180688C9347
:1009800026960FB6F894DEBF0FBECDBFCF91DF9194
:1009900008951F920F920FB60F9211242F938F93E9
:1009A0009F93EF93FF93DF93CF93CDB7DEB7809103
:1009B0007000882F90E0ECE2F0E02081FC01EF581D
:1009C000FF4F2083809170008F5F80937000CF91E4
:1009D000DF91FF91EF919F918F912F910F900FBE1B
:1009E0000F901F901895DF93CF9300D0CDB7DEB74F
:1009F0009A8389830AC0E981FA8180810E94270451
:100A000089819A8101969A838983E981FA8180811B
:100A1000882389F70F900F90CF91DF910895DF938E
:100A2000CF93CDB7DEB766970FB6F894DEBF0FBE93
:100A3000CDBF0E94E5000E94A1020E94F3030E9424
:100A400062040E94850280E690E00E94F3049E0109
:100A50002B5E3F4FCE010196B9010E947E048D8925
:100A60009E890097A1F32D893E89CE010196FC0154
:100A7000E20FF31F1082CE0101960E9474031E8ABA
:100A80001D8AE5CF629FD001739FF001829FE00D28
:100A9000F11D649FE00DF11D929FF00D839FF00DFD
:100AA000749FF00D659FF00D9927729FB00DE11DA9
:100AB000F91F639FB00DE11DF91FBD01CF01112486
:100AC0000895A1E21A2EAA1BBB1BFD010DC0AA1F8F
:100AD000BB1FEE1FFF1FA217B307E407F50720F0A7
:100AE000A21BB30BE40BF50B661F771F881F991F22
:100AF0001A9469F760957095809590959B01AC016B
:0A0B0000BD01CF010895F894FFCF66
:100B0A0041542B5541525400101112131415161743
:00000001FF
