:100000000C942A000C9447000C9447000C94470071
:100010000C9447000C9447000C9447000C94470044
:100020000C9447000C9447000C9447000C94A004D7
:100030000C9447000C9447000C9447000C94470024
:100040000C9447000C9447000C9447000C94470014
:100050000C94470011241FBECFE5D8E0DEBFCDBF12
:1000600010E0A0E6B0E0E4E1FEE002C005900D92F1
:10007000AA3BB107D9F710E0AAEBB0E001C01D928E
:10008000A23CB107E1F70E94A4060C9408070C9467
:100090000000DF93CF93CDB7DEB72C970FB6F8945F
:1000A000DEBF0FBECDBF69877A878B879C87898526
:1000B0009A85AB85BC8522E731E040E050E0BC0189
:1000C000CD010E94BB06DC01CB0189839A83AB83FF
:1000D000BC831D821E821F8218860CC000008D8189
:1000E0009E81AF81B8850196A11DB11D8D839E8330
:1000F000AF83B8872D813E814F81588589819A8150
:10010000AB81BC81281739074A075B0738F32C9667
:100110000FB6F894DEBF0FBECDBFCF91DF9108952B
:10012000DF93CF93CDB7DEB72C970FB6F894DEBF31
:100130000FBECDBF69877A878B879C8789859A8513
:10014000AB85BC8527E731E040E050E0BC01CD0144
:100150000E94BB06DC01CB01895D9444A040B04005
:1001600028EE33E040E050E0BC01CD010E94E606FD
:10017000DA01C90189839A83AB83BC831D821E8205
:100180001F8218860CC000008D819E81AF81B885CA
:100190000196A11DB11D8D839E83AF83B8872D81EC
:1001A0003E814F81588589819A81AB81BC81281716
:1001B00039074A075B0738F32C960FB6F894DEBF71
:1001C0000FBECDBFCF91DF910895DF93CF93CDB711
:1001D000DEB7EAE3F0E08FEF8083E7E3F0E08FEF54
:1001E0008083E4E3F0E08FEF8083E1E3F0E08FEFE2
:1001F0008083CF91DF910895DF93CF9300D0CDB767
:10020000DEB789836A838981883060F58A81882393
:10021000A1F4ABE3B0E0EBE3F0E08081482F89810B
:10022000282F30E081E090E0022E02C0880F991F55
:100230000A94E2F7842B8C93B3C0ABE3B0E0EBE31A
:10024000F0E08081482F8981282F30E081E090E024
:10025000022E02C0880F991F0A94E2F7809584232A
:100260008C939EC08981883090F18981803178F5A6
:100270008981885089838A818823A1F4A8E3B0E02A
:10028000E8E3F0E08081482F8981282F30E081E089
:1002900090E0022E02C0880F991F0A94E2F7842B87
:1002A0008C937EC0A8E3B0E0E8E3F0E08081482FC3
:1002B0008981282F30E081E090E0022E02C0880F73
:1002C000991F0A94E2F7809584238C9369C08981F1
:1002D000803190F18981883178F5898180518983D5
:1002E0008A818823A1F4A5E3B0E0E5E3F0E0808112
:1002F000482F8981282F30E081E090E0022E02C053
:10030000880F991F0A94E2F7842B8C9349C0A5E3C8
:10031000B0E0E5E3F0E08081482F8981282F30E0CC
:1003200081E090E0022E02C0880F991F0A94E2F744
:10033000809584238C9334C08981883188F18981A8
:10034000803270F58981885189838A818823A1F45C
:10035000A2E3B0E0E2E3F0E08081482F8981282F1A
:1003600030E081E090E0022E02C0880F991F0A94CD
:10037000E2F7842B8C9314C0A2E3B0E0E2E3F0E058
:100380008081482F8981282F30E081E090E0022E83
:1003900002C0880F991F0A94E2F7809584238C93FA
:1003A0000F900F90CF91DF910895DF93CF9300D0FE
:1003B00000D0CDB7DEB78C838C81883000F58C817E
:1003C0008B83E9E3F0E08081482F50E08B81282F78
:1003D00030E081E090E002C0880F991F2A95E2F793
:1003E0009A01282339238B81882F90E0A90102C02C
:1003F000559547958A95E2F7CA018A8374C08C8126
:10040000803120F18C81883108F58C8188508B8374
:10041000E6E3F0E08081482F50E08B81282F30E028
:1004200081E090E002C0880F991F2A95E2F79A01B7
:10043000282339238B81882F90E0A90102C055958C
:1004400047958A95E2F7CA018A834DC08C81803135
:1004500020F18C81883108F58C8180518B83E6E313
:10046000F0E08081482F50E08B81282F30E081E040
:1004700090E002C0880F991F2A95E2F79A0128237D
:1004800039238B81882F90E0A90102C055954795AB
:100490008A95E2F7CA018A8326C08C81883118F1D7
:1004A0008C81803200F58C8188518B83E0E3F0E011
:1004B0008081482F50E08B81282F30E081E090E050
:1004C00002C0880F991F2A95E2F79A012823392341
:1004D0008B81882F90E0A90102C0559547958A9598
:1004E000E2F7CA018A838A81882319F481E089832B
:1004F00004C08A81813009F4198289810F900F909C
:100500000F900F90CF91DF910895DF93CF93CDB7E8
:10051000DEB7AFE5B0E0EFE5F0E0808180688C9376
:10052000CF91DF910895DF93CF93CDB7DEB7AFE5DD
:10053000B0E0EFE5F0E080818F778C93CF91DF9191
:100540000895DF93CF93CDB7DEB762E370E080E02C
:1005500090E00E94490088E30E94DA0261E070E0C6
:1005600080E090E00E9449008CE00E94DA0261E0A5
:1005700070E080E090E00E94490081E00E94DA0291
:1005800062E070E080E090E00E944900CF91DF914E
:100590000895DF93CF930F92CDB7DEB7898388E1BB
:1005A00060E00E94FC0089810E94EB020F90CF91D5
:1005B000DF910895DF93CF930F92CDB7DEB7898394
:1005C00088E161E00E94FC0089810E94EB020F90AB
:1005D000CF91DF910895DF93CF9300D0CDB7DEB7F1
:1005E0008A8389E161E00E94FC00198234C08A811B
:1005F000482F50E08981282F30E081E090E002C050
:10060000880F991F2A95E2F79A01282339238981B7
:10061000882F90E0A90102C0559547958A95E2F789
:10062000CA01009759F08981882F90E0FC01EA59AE
:10063000FF4F808160E00E94FC000AC08981882F02
:1006400090E0FC01EA59FF4F808161E00E94FC00CC
:1006500089818F5F89838981883048F28AE160E0EF
:100660000E94FC0061E070E080E090E00E944900A0
:100670008AE161E00E94FC000F900F90CF91DF9122
:100680000895DF93CF9300D000D0CDB7DEB79A8323
:1006900089836B834C838C81882F90E0002496950E
:1006A00087950794969587950794982F802D982F76
:1006B00090688B81892B0E94DA020AC0E981FA8155
:1006C00080810E94C90289819A8101969A838983D7
:1006D000E981FA818081882389F70F900F900F902C
:1006E0000F90CF91DF910895DF93CF9300D0CDB7D6
:1006F000DEB79A8389830AC0E981FA8180810E94EA
:10070000C90289819A8101969A838983E981FA8154
:100710008081882389F70F900F90CF91DF91089502
:10072000DF93CF93CDB7DEB781E00E94DA0262E0BB
:1007300070E080E090E00E944900CF91DF91089541
:10074000DF93CF9300D000D0CDB7DEB79B838A83F1
:100750006C838C81882F90E0880F991F880F991FD8
:10076000880F991F80640E94DA0219820EC0898165
:10077000282F30E08A819B81FC01E20FF31F8081EA
:100780000E94C90289818F5F89838981883078F3CB
:100790000F900F900F900F90CF91DF910895DF93FE
:1007A000CF9300D00F92CDB7DEB789836A834B8396
:1007B0008B81882F90E000249695879507949695D5
:1007C00087950794982F802D982F90688A81892B80
:1007D0000E94DA0289810E94C9020F900F900F9047
:1007E000CF91DF910895DF93CF930F92CDB7DEB70E
:1007F000898389818830F0F48981882F90E0FC0119
:10080000EA58FF4F8081813059F48981882F90E028
:10081000FC01E259FF4F808160E00E94FC000AC0A9
:100820008981882F90E0FC01E259FF4F808161E0CF
:100830000E94FC000F90CF91DF910895DF93CF933A
:100840000F92CDB7DEB7898389818830F0F4898132
:10085000882F90E0FC01EA58FF4F8081813059F4E5
:100860008981882F90E0FC01E259FF4F808161E08F
:100870000E94FC000AC08981882F90E0FC01E259A7
:10088000FF4F808160E00E94FC000F90CF91DF91CC
:100890000895DF93CF930F92CDB7DEB78091BA0062
:1008A0008F5F8093BA00198227C04091BA00898176
:1008B000282F30E0C901880F991F820F931FFC0178
:1008C000EC57FF4F9081842F692F0E94DA06892F01
:1008D000882379F48981282F30E0C901880F991F76
:1008E000820F931FFC01EE57FF4F0190F081E02D26
:1008F000099589818F5F898389818630B0F20F9055
:10090000CF91DF910895DF93CF93CDB7DEB7E2E5C6
:10091000F0E08FE78083A9E5B0E0E9E5F0E08081D1
:1009200081608C93A8E5B0E0E8E5F0E0808181602B
:100930008C93E3E5F0E081E08083CF91DF9108952F
:100940001F920F920FB60F9211242F933F934F9344
:100950005F936F937F938F939F93AF93BF93EF9327
:10096000FF93DF93CF93CDB7DEB780917E00909158
:100970007F00A0918000B09181000196A11DB11D62
:1009800080937E0090937F00A0938000B0938100BD
:1009900080917E0090917F00A0918000B0918100B5
:1009A0008B3126E0920720E0A20720E0B20771F425
:1009B00010927E0010927F001092800010928100B1
:1009C000E2E5F0E08FE780830E944904CF91DF9158
:1009D000FF91EF91BF91AF919F918F917F916F9117
:1009E0005F914F913F912F910F900FBE0F901F90ED
:1009F0001895DF93CF930F92CDB7DEB789838FE140
:100A000060E00E94FC008981982F917088E0692F36
:100A10000E94FC008981882F90E0827090709595EB
:100A20008795982F89E0692F0E94FC008981882F83
:100A300090E0847090709595879595958795982FFF
:100A40008AE0692F0E94FC008981882F90E08870DD
:100A50009070959587959595879595958795982FFD
:100A60008BE0692F0E94FC008981882F90E08071C3
:100A7000907095958795959587959595879595957A
:100A80008795982F8CE0692F0E94FC008981882F20
:100A900090E080729070959587959595879595953E
:100AA00087959595879595958795982F8DE0692FD2
:100AB0000E94FC008981882F90E080749070082E3D
:100AC000892F000C881F990B000C881F991F982FE5
:100AD0008EE0692F0E94FC008981982F991F992729
:100AE000991F8FE0692F0E94FC000F90CF91DF913A
:100AF0000895DF93CF930F92CDB7DEB7198229C047
:100B00009091BD008981891751F48981882F90E0E7
:100B1000FC01EC56FF4F80810E94F30309C08981DC
:100B2000882F90E0FC01EC56FF4F80810E941E044C
:100B30008091BD00882321F481E08093BC0006C031
:100B40008091BD00873011F41092BC0089818F5FC5
:100B5000898389818830A0F28091BC00813031F492
:100B60008091BD008F5F8093BD0009C08091BC0063
:100B7000882329F48091BD0081508093BD000F909F
:100B8000CF91DF910895DF93CF93CDB7DEB78091FA
:100B9000BE00882361F48BE160E00E94FC008CE1E0
:100BA00061E00E94FC0081E08093BE000EC0809155
:100BB000BE00813051F48BE161E00E94FC008CE1C9
:100BC00060E00E94FC001092BE00CF91DF9108957A
:100BD000DF93CF93CDB7DEB78091C000882321F497
:100BE00081E08093BF0006C08091C000893011F47D
:100BF0001092BF008091BF00813031F48091C0001D
:100C00008F5F8093C00009C08091BF00882329F4C2
:100C10008091C00081508093C0008091C000882FD7
:100C200090E0FC01E456FF4F808180950E94F9041A
:100C3000CF91DF910895DF93CF93CDB7DEB7809149
:100C4000C1008F5F8093C1008091C100813029F481
:100C50008DE160E00E94FC000FC08091C1008230F5
:100C600029F48DE161E00E94FC0006C08091C10082
:100C7000853011F41092C100CF91DF910895DF9378
:100C8000CF93CDB7DEB70E9490032091A60030919C
:100C9000BB0080E690E0622F432F0E9441039091B9
:100CA000A7002091A80080E0692F422F0E94CF0367
:100CB0008091A700982F91502091A80081E0692F82
:100CC000422F0E94CF038091A6008F5F8093A600E1
:100CD0008091A600813111F41092A600CF91DF918E
:100CE0000895DF93CF93CDB7DEB70E949003209194
:100CF000A6003091BB0080E690E0622F432F0E9457
:100D000041039091A7002091A80080E0692F422F15
:100D10000E94CF038091A700982F91502091A800A6
:100D200081E0692F422F0E94CF038091A70081505C
:100D30008093A7008091A700882319F48FE0809307
:100D4000A700CF91DF910895DF93CF93CDB7DEB7A2
:100D50000E94E5000E94A10289EA90E060E00E9402
:100D6000A00381EB90E061E00E94A0030E94830455
:100D70000E948502FFCF629FD001739FF001829F86
:100D8000E00DF11D649FE00DF11D929FF00D839F1A
:100D9000F00D749FF00D659FF00D9927729FB00DB7
:100DA000E11DF91F639FB00DE11DF91FBD01CF01CA
:100DB00011240895991B79E004C0991F961708F033
:100DC000961B881F7A95C9F780950895A1E21A2E7F
:100DD000AA1BBB1BFD010DC0AA1FBB1FEE1FFF1FDF
:100DE000A217B307E407F50720F0A21BB30BE40B2F
:100DF000F50B661F771F881F991F1A9469F7609576
:100E00007095809590959B01AC01BD01CF0108952F
:040E1000F894FFCF84
:100E14004E6179697200000102030405060710118E
:100E240012131415161701010101010101017F00BC
:100E3400000079050AC3050BE8050E1B06023F06F0
:100E4400067106080001020304050607C0F9A4B0F0
:100E5400999282F88090FF0F0110101411111F0055
:0A0E64000000000000090F081B0049
:00000001FF
