:100000000C942A000C9404030C9431030C944700C4
:100010000C9447000C9447000C9447000C94470044
:100020000C9447000C9447000C9447000C94470034
:100030000C9447000C9447000C9447000C94470024
:100040000C9447000C9447000C9447000C94470014
:100050000C94470011241FBECFE5D8E0DEBFCDBF12
:1000600010E0A0E6B0E0E8E5F1E102C005900D92F5
:10007000A23AB107D9F710E0A2EAB0E001C01D92A0
:10008000A73AB107E1F70E940E060C94AA080C9457
:100090000000DF93CF93CDB7DEB72C970FB6F8945F
:1000A000DEBF0FBECDBF69877A878B879C87898526
:1000B0009A85AB85BC8522E731E040E050E0BC0189
:1000C000CD010E945D08DC01CB0189839A83AB835B
:1000D000BC831D821E821F8218860CC000008D8189
:1000E0009E81AF81B8850196A11DB11D8D839E8330
:1000F000AF83B8872D813E814F81588589819A8150
:10010000AB81BC81281739074A075B0738F32C9667
:100110000FB6F894DEBF0FBECDBFCF91DF9108952B
:10012000DF93CF93CDB7DEB72C970FB6F894DEBF31
:100130000FBECDBF69877A878B879C8789859A8513
:10014000AB85BC8527E731E040E050E0BC01CD0144
:100150000E945D08DC01CB01895D9444A040B04061
:1001600028EE33E040E050E0BC01CD010E94880859
:10017000DA01C90189839A83AB83BC831D821E8205
:100180001F8218860CC000008D819E81AF81B885CA
:100190000196A11DB11D8D839E83AF83B8872D81EC
:1001A0003E814F81588589819A81AB81BC81281716
:1001B00039074A075B0738F32C960FB6F894DEBF71
:1001C0000FBECDBFCF91DF910895DF93CF93CDB711
:1001D000DEB7EAE3F0E08FEF8083E7E3F0E08FEF54
:1001E0008083E4E3F0E08FEF8083E1E3F0E08BEFE6
:1001F0008083CF91DF910895DF93CF9300D0CDB767
:10020000DEB789836A838981883060F58A81882393
:10021000A1F4ABE3B0E0EBE3F0E08081482F89810B
:10022000282F30E081E090E0022E02C0880F991F55
:100230000A94E2F7842B8C93B3C0ABE3B0E0EBE31A
:10024000F0E08081482F8981282F30E081E090E024
:10025000022E02C0880F991F0A94E2F7809584232A
:100260008C939EC08981883090F18981803178F5A6
:100270008981885089838A818823A1F4A8E3B0E02A
:10028000E8E3F0E08081482F8981282F30E081E089
:1002900090E0022E02C0880F991F0A94E2F7842B87
:1002A0008C937EC0A8E3B0E0E8E3F0E08081482FC3
:1002B0008981282F30E081E090E0022E02C0880F73
:1002C000991F0A94E2F7809584238C9369C08981F1
:1002D000803190F18981883178F5898180518983D5
:1002E0008A818823A1F4A5E3B0E0E5E3F0E0808112
:1002F000482F8981282F30E081E090E0022E02C053
:10030000880F991F0A94E2F7842B8C9349C0A5E3C8
:10031000B0E0E5E3F0E08081482F8981282F30E0CC
:1003200081E090E0022E02C0880F991F0A94E2F744
:10033000809584238C9334C08981883188F18981A8
:10034000803270F58981885189838A818823A1F45C
:10035000A2E3B0E0E2E3F0E08081482F8981282F1A
:1003600030E081E090E0022E02C0880F991F0A94CD
:10037000E2F7842B8C9314C0A2E3B0E0E2E3F0E058
:100380008081482F8981282F30E081E090E0022E83
:1003900002C0880F991F0A94E2F7809584238C93FA
:1003A0000F900F90CF91DF910895DF93CF9300D0FE
:1003B00000D0CDB7DEB78C838C81883000F58C817E
:1003C0008B83E9E3F0E08081482F50E08B81282F78
:1003D00030E081E090E002C0880F991F2A95E2F793
:1003E0009A01282339238B81882F90E0A90102C02C
:1003F000559547958A95E2F7CA018A8374C08C8126
:10040000803120F18C81883108F58C8188508B8374
:10041000E6E3F0E08081482F50E08B81282F30E028
:1004200081E090E002C0880F991F2A95E2F79A01B7
:10043000282339238B81882F90E0A90102C055958C
:1004400047958A95E2F7CA018A834DC08C81803135
:1004500020F18C81883108F58C8180518B83E6E313
:10046000F0E08081482F50E08B81282F30E081E040
:1004700090E002C0880F991F2A95E2F79A0128237D
:1004800039238B81882F90E0A90102C055954795AB
:100490008A95E2F7CA018A8326C08C81883118F1D7
:1004A0008C81803200F58C8188518B83E0E3F0E011
:1004B0008081482F50E08B81282F30E081E090E050
:1004C00002C0880F991F2A95E2F79A012823392341
:1004D0008B81882F90E0A90102C0559547958A9598
:1004E000E2F7CA018A838A81882319F481E089832B
:1004F00004C08A81813009F4198289810F900F909C
:100500000F900F90CF91DF910895DF93CF93CDB7E8
:10051000DEB7A5E5B0E0E5E5F0E080818E7F8C9365
:10052000A5E5B0E0E5E5F0E0808182608C93ABE585
:10053000B0E0EBE5F0E080818F7B8C93AAE5B0E042
:10054000EAE5F0E0808180648C93CF91DF9108959B
:10055000DF93CF9300D0CDB7DEB79A8389838981AB
:100560009A819093A3008093A2000F900F90CF9157
:10057000DF910895DF93CF9300D0CDB7DEB79A8394
:10058000898389819A819093A5008093A4000F901C
:100590000F90CF91DF910895DF93CF93CDB7DEB762
:1005A000ABE5B0E0EBE5F0E0808180648C93CF9127
:1005B000DF910895DF93CF93CDB7DEB7ABE5B0E021
:1005C000EBE5F0E0808180688C93CF91DF91089516
:1005D000DF93CF93CDB7DEB7ABE5B0E0EBE5F0E06E
:1005E00080818F7B8C93CF91DF910895DF93CF93A0
:1005F000CDB7DEB7ABE5B0E0EBE5F0E080818F771B
:100600008C93CF91DF9108951F920F920FB60F92A6
:1006100011242F933F934F935F936F937F938F9307
:100620009F93AF93BF93EF93FF93DF93CF93CDB798
:10063000DEB7E091A200F091A3000995CF91DF9180
:10064000FF91EF91BF91AF919F918F917F916F91AA
:100650005F914F913F912F910F900FBE0F901F9080
:1006600018951F920F920FB60F9211242F933F935C
:100670004F935F936F937F938F939F93AF93BF93AA
:10068000EF93FF93DF93CF93CDB7DEB7E091A40054
:10069000F091A5000995CF91DF91FF91EF91BF9166
:1006A000AF919F918F917F916F915F914F913F910A
:1006B0002F910F900FBE0F901F901895DF93CF933F
:1006C000CDB7DEB7AFE5B0E0EFE5F0E08081806860
:1006D0008C93CF91DF910895DF93CF93CDB7DEB7A1
:1006E000AFE5B0E0EFE5F0E080818F778C93CF91BC
:1006F000DF910895DF93CF93CDB7DEB762E370E06B
:1007000080E090E00E94490088E30E94B30361E02A
:1007100070E080E090E00E9449008CE00E94B3030A
:1007200061E070E080E090E00E94490081E00E947A
:10073000B30362E070E080E090E00E944900CF9156
:10074000DF910895DF93CF930F92CDB7DEB7898302
:1007500080E160E00E94FC0089810E94C4030F9048
:10076000CF91DF910895DF93CF930F92CDB7DEB78E
:10077000898380E161E00E94FC0089810E94C403BA
:100780000F90CF91DF910895DF93CF9300D0CDB735
:10079000DEB78A8381E161E00E94FC00198234C0E7
:1007A0008A81482F50E08981282F30E081E090E055
:1007B00002C0880F991F2A95E2F79A01282339234E
:1007C0008981882F90E0A90102C0559547958A95A7
:1007D000E2F7CA01009759F08981882F90E0FC0167
:1007E000E558FF4F808160E00E94FC000AC08981CB
:1007F000882F90E0FC01E558FF4F808161E00E9466
:10080000FC0089818F5F89838981883048F282E189
:1008100060E00E94FC0061E070E080E090E00E94F7
:10082000490082E161E00E94FC000F900F90CF919F
:10083000DF910895DF93CF9300D000D0CDB7DEB71E
:100840009A8389836B834C838C81882F90E000246A
:10085000969587950794969587950794982F802D60
:10086000982F90688B81892B0E94B3030AC0E9817D
:10087000FA8180810E94A20389819A8101969A83DC
:100880008983E981FA818081882389F70F900F900D
:100890000F900F90CF91DF910895DF93CF9300D009
:1008A000CDB7DEB79A8389830AC0E981FA81808156
:1008B0000E94A20389819A8101969A838983E981A2
:1008C000FA818081882389F70F900F90CF91DF9173
:1008D0000895DF93CF93CDB7DEB781E00E94B303D5
:1008E00062E070E080E090E00E944900CF91DF91EB
:1008F0000895DF93CF9300D000D0CDB7DEB79B83B0
:100900008A836C838C81882F90E0880F991F880FD1
:10091000991F880F991F80640E94B30319820EC02B
:100920008981282F30E08A819B81FC01E20FF31F2F
:1009300080810E94A20389818F5F898389818830A9
:1009400078F30F900F900F900F90CF91DF91089553
:10095000DF93CF9300D00F92CDB7DEB789836A8340
:100960004B838B81882F90E0002496958795079480
:10097000969587950794982F802D982F90688A8157
:10098000892B0E94B30389810E94A2030F900F90CC
:100990000F90CF91DF910895DF93CF930F92CDB752
:1009A000DEB7898389818230F0F48981882F90E0D5
:1009B000FC01EB57FF4F8081813059F48981882FEA
:1009C00090E0FC01ED57FF4F808160E00E94FC0049
:1009D0000AC08981882F90E0FC01ED57FF4F80818C
:1009E00061E00E94FC000F90CF91DF910895DF93AA
:1009F000CF930F92CDB7DEB7898389818230F0F42F
:100A00008981882F90E0FC01EB57FF4F8081813076
:100A100059F48981882F90E0FC01ED57FF4F8081C8
:100A200061E00E94FC000AC08981882F90E0FC01EF
:100A3000ED57FF4F808160E00E94FC000F90CF9146
:100A4000DF910895DF93CF93CDB7DEB7EBE3F0E00E
:100A50008FEF8083CF91DF910895DF93CF93CDB750
:100A6000DEB760970FB6F894DEBF0FBECDBF9B8791
:100A70008A87CE0102969D878C87E7E8F0E0FF87A2
:100A8000EE87F8E0F88BEE85FF8500808E859F85E8
:100A900001969F878E87EC85FD8500828C859D85DC
:100AA00001969D878C8798899150988BE889EE23D1
:100AB00051F7198221C0ABE3B0E08981282F30E0E3
:100AC000CE010296FC01E20FF31F80818C93A8E314
:100AD000B0E08981282F30E08A859B85FC01E20FF8
:100AE000F31F80818C9361E070E080E090E00E94D1
:100AF000490089818F5F898389818830E0F260961F
:100B00000FB6F894DEBF0FBECDBFCF91DF91089531
:100B1000DF93CF930F92CDB7DEB789838981982F6A
:100B2000917088E0692F0E94FC008981882F90E0F5
:100B30008270907095958795982F89E0692F0E9413
:100B4000FC008981882F90E084709070959587953E
:100B500095958795982F8AE0692F0E94FC008981DE
:100B6000882F90E0887090709595879595958795DA
:100B700095958795982F8BE0692F0E94FC008981BD
:100B8000882F90E0807190709595879595958795C1
:100B90009595879595958795982F8CE0692F0E945C
:100BA000FC008981882F90E08072907095958795E0
:100BB000959587959595879595958795959587951D
:100BC000982F8DE0692F0E94FC008981882F90E08A
:100BD00080749070082E892F000C881F990B000CD0
:100BE000881F991F982F8EE0692F0E94FC00898131
:100BF000982F991F9927991F8FE0692F0E94FC0059
:100C00000F90CF91DF910895DF93CF93CDB7DEB7EB
:100C100083E68093A600CF91DF910895DF93CF9371
:100C2000CDB7DEB7C455D0400FB6F894DEBF0FBEC7
:100C3000CDBF1D8284E2FE013696DF01982F1D9202
:100C40009A95E9F7DE011696BDAFACAFE0E6F0E0AD
:100C5000FFAFEEAFF8E02196FFAF2197AEADBFAD8D
:100C60000C90EEADFFAD3196FFAFEEAFACADBDADCC
:100C70000C92ECADFDAD3196FDAFECAF2196FFAD22
:100C80002197F1502196FFAF219721968FAD2197A3
:100C9000882321F71E86DE011F962396BFAFAEAFD5
:100CA0002397E9E6F0E02596FFAFEEAF2597F6E053
:100CB0002696FFAF26972596AEADBFAD25970C9033
:100CC0002596EEADFFAD259731962596FFAFEEAF99
:100CD00025972396AEADBFAD23970C922396EEAD2C
:100CE000FFAD239731962396FFAFEEAF239726965D
:100CF000FFAD2697F1502696FFAF269726968FAD2B
:100D000026978823C1F683E0FE017596DF01982FB0
:100D10001D929A95E9F7DE0158962896BFAFAEAFBF
:100D20002897E2E7F0E02A96FFAFEEAF2A97F9E0C6
:100D30002B96FFAF2B972A96AEADBFAD2A970C909E
:100D40002A96EEADFFAD2A9731962A96FFAFEEAF09
:100D50002A972896AEADBFAD28970C922896EEAD97
:100D6000FFAD289731962896FFAFEEAF28972B96C8
:100D7000FFAD2B97F1502B96FFAF2B972B968FAD96
:100D80002B978823C1F68DE491E6A3E6B0E089A312
:100D90009AA3ABA3BCA385E0FE01B596DF01982F13
:100DA0001D929A95E9F71C82DE019A962D96BFAFA7
:100DB000AEAF2D97E9E9F0E02F96FFAFEEAF2F979A
:100DC000F8E06096FFAF60972F96AEADBFAD2F975E
:100DD0000C902F96EEADFFAD2F9731962F96FFAF6B
:100DE000EEAF2F972D96AEADBFAD2D970C922D96F1
:100DF000EEADFFAD2D9731962D96FFAFEEAF2D974F
:100E00006096FFAD6097F1506096FFAF6097609677
:100E10008FAD60978823C1F6DE01D2966296BFAF90
:100E2000AEAF6297EFE8F0E06496FFAFEEAF649785
:100E3000FAE06596FFAF65976496AEADBFAD649777
:100E40000C906496EEADFFAD649731966496FFAF5B
:100E5000EEAF64976296AEADBFAD62970C926296AC
:100E6000EEADFFAD629731966296FFAFEEAF62973F
:100E70006596FFAD6597F1506596FFAF65976596EE
:100E80008FAD65978823C1F60E94E5000E947A0322
:100E90000E9485028AE160E00E94FC0084E096E006
:100EA0000E94A8020E94CC020E945E038091A600CC
:100EB000823008F4A8C080E00E94CC041B8299C054
:100EC0008DE161E00E94FC008EE161E00E94FC0087
:100ED000CE018A960E942D050E9422058DE160E0D8
:100EE0000E94FC008EE161E00E94FC008091A6005F
:100EF0009AE0692F0E947C08892F282F30E0CE01CC
:100F0000C296FC01E20FF31F808180950E94880544
:100F10008091A600833638F18BE160E00E94FC00EE
:100F20008CE161E00E94FC001A8217C088E160E059
:100F30000E94FC0060E570E080E090E00E9490007C
:100F400088E161E00E94FC0060E570E080E090E0F4
:100F50000E9490008A818F5F8A838A81853030F376
:100F600081E08D8312C08BE161E00E94FC008CE186
:100F700061E00E94FC0088E161E00E94FC0060E208
:100F800073E080E090E00E9490008DE161E00E94BB
:100F9000FC008EE161E00E94FC00CE018A960E9476
:100FA0002D050E9422058DE161E00E94FC008EE18A
:100FB00060E00E94FC008091A6009AE0692F0E94E8
:100FC0007C08282F30E0CE01C296FC01E20FF31F0F
:100FD000808180950E94880588E161E00E94FC0084
:100FE00060E273E080E090E00E9490008B818F5F70
:100FF0008B838B818E3108F463CF8091A600815062
:101000008093A60032C08D81813061F48BE161E074
:101010000E94FC008CE160E00E94FC001D820E94A6
:10102000690408C08BE161E00E94FC008CE161E092
:101030000E94FC0081E00E94CC048DE161E00E94EE
:10104000FC008EE161E00E94FC0088E161E00E940A
:10105000FC00198207C0CE018A960E942D05898165
:101060008F5F898389818233B0F30E9422058DE1ED
:1010700061E00E94FC008EE161E00E94FC000E94A1
:101080006904AE014A5F5F4F8C81282F30E0C901AF
:10109000880F991F880F991F880F991F820F931F20
:1010A000840F951F0E944D048C818F5F8C838C81EF
:1010B000843009F0FBCE1C82F9CE629FD001739F71
:1010C000F001829FE00DF11D649FE00DF11D929FE4
:1010D000F00D839FF00D749FF00D659FF00D992723
:1010E000729FB00DE11DF91F639FB00DE11DF91F47
:1010F000BD01CF0111240895991B79E004C0991F07
:10110000961708F0961B881F7A95C9F78095089561
:10111000A1E21A2EAA1BBB1BFD010DC0AA1FBB1FFB
:10112000EE1FFF1FA217B307E407F50720F0A21B6D
:10113000B30BE40BF50B661F771F881F991F1A94DA
:1011400069F760957095809590959B01AC01BD0104
:08115000CF010895F894FFCFD0
:1011580057656C636F6D65000050657073690000BA
:101168000000436F6361636F6C610008090A0B0C30
:101178000D0E0F19190102FEFDFBF7EFDFBF7FC04F
:10118800F9A4B0999282F88090704C425D5D424C0F
:021198007000E5
:00000001FF
