:100000000C942A000C943F000C943F000C943F0089
:100010000C943F000C943F000C943F000C943F0064
:100020000C943F000C943F000C943F000C943F0054
:100030000C943F000C943F000C943F000C943F0044
:100040000C943F000C943F000C943F000C943F0034
:100050000C943F0011241FBECFE5D8E0DEBFCDBF1A
:1000600010E0A0E6B0E0E4E3F7E002C005900D92F6
:10007000A636B107D9F70E949A020C9498030C9403
:100080000000DF93CF93CDB7DEB72C970FB6F8946F
:10009000DEBF0FBECDBF69877A878B879C87898536
:1000A0009A85AB85BC8522E731E040E050E0BC0199
:1000B000CD010E942403DC01CB0189839A83AB83A9
:1000C000BC831D821E821F8218860CC000008D8199
:1000D0009E81AF81B8850196A11DB11D8D839E8340
:1000E000AF83B8872D813E814F81588589819A8160
:1000F000AB81BC81281739074A075B0738F32C9678
:100100000FB6F894DEBF0FBECDBFCF91DF9108953B
:10011000DF93CF93CDB7DEB72C970FB6F894DEBF41
:100120000FBECDBF69877A878B879C8789859A8523
:10013000AB85BC8527E731E040E050E0BC01CD0154
:100140000E942403DC01CB01895D9444A040B040AF
:1001500028EE33E040E050E0BC01CD010E94620394
:10016000DA01C90189839A83AB83BC831D821E8215
:100170001F8218860CC000008D819E81AF81B885DA
:100180000196A11DB11D8D839E83AF83B8872D81FC
:100190003E814F81588589819A81AB81BC81281726
:1001A00039074A075B0738F32C960FB6F894DEBF81
:1001B0000FBECDBFCF91DF910895DF93CF93CDB721
:1001C000DEB7EAE3F0E08FE78083E7E3F0E08FEF6C
:1001D0008083E4E3F0E081E08083E1E3F0E01082FB
:1001E000CF91DF910895DF93CF9300D0CDB7DEB7E5
:1001F00089836A838981883060F58A818823A1F4A4
:10020000ABE3B0E0EBE3F0E08081482F8981282F59
:1002100030E081E090E0022E02C0880F991F0A941E
:10022000E2F7842B8C93B3C0ABE3B0E0EBE3F0E0F8
:100230008081482F8981282F30E081E090E0022ED4
:1002400002C0880F991F0A94E2F7809584238C934B
:100250009EC08981883090F18981803178F58981CB
:10026000885089838A818823A1F4A8E3B0E0E8E379
:10027000F0E08081482F8981282F30E081E090E0F4
:10028000022E02C0880F991F0A94E2F7842B8C93E8
:100290007EC0A8E3B0E0E8E3F0E08081482F8981E8
:1002A000282F30E081E090E0022E02C0880F991FD5
:1002B0000A94E2F7809584238C9369C08981803108
:1002C00090F18981883178F58981805189838A818B
:1002D0008823A1F4A5E3B0E0E5E3F0E08081482FB6
:1002E0008981282F30E081E090E0022E02C0880F43
:1002F000991F0A94E2F7842B8C9349C0A5E3B0E0E0
:10030000E5E3F0E08081482F8981282F30E081E00B
:1003100090E0022E02C0880F991F0A94E2F78095A0
:1003200084238C9334C08981883188F1898180321B
:1003300070F58981885189838A818823A1F4A2E399
:10034000B0E0E2E3F0E08081482F8981282F30E09F
:1003500081E090E0022E02C0880F991F0A94E2F714
:10036000842B8C9314C0A2E3B0E0E2E3F0E0808140
:10037000482F8981282F30E081E090E0022E02C0D2
:10038000880F991F0A94E2F7809584238C930F902D
:100390000F90CF91DF910895DF93CF9300D00F920C
:1003A000CDB7DEB789838981282F30E03B832A834C
:1003B0008A819B8183309105C1F12A813B81243060
:1003C00031057CF48A819B818130910521F12A815C
:1003D0003B812230310524F58A819B810097B1F061
:1003E0003CC02A813B812530310549F18A819B81BE
:1003F00085309105FCF02A813B812630310521F1C1
:100400008A819B818730910521F127C088E060E0D7
:100410000E94F30022C089E060E00E94F3001DC04A
:100420008AE060E00E94F30018C08BE060E00E9468
:10043000F30013C08CE060E00E94F3000EC08DE07A
:1004400060E00E94F30009C08EE060E00E94F300CB
:1004500004C08FE060E00E94F3000F900F900F90B7
:10046000CF91DF910895DF93CF9300D00F92CDB756
:10047000DEB789838981282F30E03B832A838A81F4
:100480009B8183309105C1F12A813B812430310564
:100490007CF48A819B818130910521F12A813B8105
:1004A0002230310524F58A819B810097B1F03CC050
:1004B0002A813B812530310549F18A819B81853034
:1004C0009105FCF02A813B812630310521F18A819A
:1004D0009B818730910521F127C088E061E00E946F
:1004E000F30022C089E061E00E94F3001DC08AE0B1
:1004F00061E00E94F30018C08BE061E00E94F3000D
:1005000013C08CE061E00E94F3000EC08DE061E05A
:100510000E94F30009C08EE061E00E94F30004C075
:100520008FE061E00E94F3000F900F900F90CF9149
:10053000DF910895DF93CF93CDB7DEB70E94DD0042
:1005400080E160E00E94F3000E94C702FDCFDF93CC
:10055000CF930F92CDB7DEB7898361E070E080E082
:1005600090E00E944100ABE3B0E08981882F90E0E9
:10057000FC01E05AFF4F80818C9361E070E080E0E5
:1005800090E00E9441000F90CF91DF910895DF939A
:10059000CF9300D0CDB7DEB71A824DC08A8196E0E6
:1005A000692F0E944303892F0E94CC018A81882FE2
:1005B00090E0019626E030E0B9010E944F030E94CE
:1005C00033028A81882F90E0029626E030E0B9015C
:1005D0000E944F030E9433028A81882F90E0039685
:1005E00026E030E0B9010E944F030E9433028A8165
:1005F000882F90E0049626E030E0B9010E944F0376
:100600000E9433028A81882F90E0059626E030E030
:10061000B9010E944F030E943302198206C08A81E9
:100620000E94A70289818F5F898389818639B8F307
:100630008A818F5F8A838A81863008F4AFCF0F90DA
:100640000F90CF91DF910895629FD001739FF001C9
:10065000829FE00DF11D649FE00DF11D929FF00D52
:10066000839FF00D749FF00D659FF00D9927729F89
:10067000B00DE11DF91F639FB00DE11DF91FBD0114
:10068000CF0111240895991B79E004C0991F961792
:1006900008F0961B881F7A95C9F78095089597FBF7
:1006A000092E07260AD077FD04D02ED006D00020D0
:1006B0001AF4709561957F4F0895F6F7909581959E
:1006C0009F4F0895A1E21A2EAA1BBB1BFD010DC06E
:1006D000AA1FBB1FEE1FFF1FA217B307E407F507F2
:1006E00020F0A21BB30BE40BF50B661F771F881FCE
:1006F000991F1A9469F760957095809590959B0164
:10070000AC01BD01CF010895AA1BBB1B51E107C07D
:10071000AA1FBB1FA617B70710F0A61BB70B881F91
:10072000991F5A95A9F780959095BC01CD01089520
:04073000F894FFCF6B
:06073400FDFEFBF7EFDF04
:00000001FF
