:100000000C942A000C9447000C9447000C94470071
:100010000C9447000C9447000C9447000C94470044
:100020000C9447000C9447000C9447000C94470034
:100030000C9447000C949F050C9447000C944700C7
:100040000C9447000C9447000C9447000C94470014
:100050000C94470011241FBECFE5D8E0DEBFCDBF12
:1000600010E0A0E6B0E0E4EDFDE002C005900D92E6
:10007000A836B107D9F710E0A8E6B0E001C01D929C
:10008000AF37B107E1F70E94E5050C94E8060C9440
:100090000000DF93CF93CDB7DEB72C970FB6F8945F
:1000A000DEBF0FBECDBF69877A878B879C87898526
:1000B0009A85AB85BC8522E731E040E050E0BC0189
:1000C000CD010E948E06DC01CB0189839A83AB832C
:1000D000BC831D821E821F8218860CC000008D8189
:1000E0009E81AF81B8850196A11DB11D8D839E8330
:1000F000AF83B8872D813E814F81588589819A8150
:10010000AB81BC81281739074A075B0738F32C9667
:100110000FB6F894DEBF0FBECDBFCF91DF9108952B
:10012000DF93CF93CDB7DEB72C970FB6F894DEBF31
:100130000FBECDBF69877A878B879C8789859A8513
:10014000AB85BC8527E731E040E050E0BC01CD0144
:100150000E948E06DC01CB01895D9444A040B04032
:1001600028EE33E040E050E0BC01CD010E94BA0629
:10017000DA01C90189839A83AB83BC831D821E8205
:100180001F8218860CC000008D819E81AF81B885CA
:100190000196A11DB11D8D839E83AF83B8872D81EC
:1001A0003E814F81588589819A81AB81BC81281716
:1001B00039074A075B0738F32C960FB6F894DEBF71
:1001C0000FBECDBFCF91DF910895DF93CF93CDB711
:1001D000DEB7EAE3F0E08FEF8083E7E3F0E080EF63
:1001E0008083E4E3F0E08FEF8083E1E3F0E08EEFE3
:1001F0008083CF91DF910895DF93CF9300D0CDB767
:10020000DEB789836A838981883060F58A81882393
:10021000A1F4ABE3B0E0EBE3F0E08081482F89810B
:10022000282F30E081E090E0022E02C0880F991F55
:100230000A94E2F7842B8C93B3C0ABE3B0E0EBE31A
:10024000F0E08081482F8981282F30E081E090E024
:10025000022E02C0880F991F0A94E2F7809584232A
:100260008C939EC08981883090F18981803178F5A6
:100270008981885089838A818823A1F4A8E3B0E02A
:10028000E8E3F0E08081482F8981282F30E081E089
:1002900090E0022E02C0880F991F0A94E2F7842B87
:1002A0008C937EC0A8E3B0E0E8E3F0E08081482FC3
:1002B0008981282F30E081E090E0022E02C0880F73
:1002C000991F0A94E2F7809584238C9369C08981F1
:1002D000803190F18981883178F5898180518983D5
:1002E0008A818823A1F4A5E3B0E0E5E3F0E0808112
:1002F000482F8981282F30E081E090E0022E02C053
:10030000880F991F0A94E2F7842B8C9349C0A5E3C8
:10031000B0E0E5E3F0E08081482F8981282F30E0CC
:1003200081E090E0022E02C0880F991F0A94E2F744
:10033000809584238C9334C08981883188F18981A8
:10034000803270F58981885189838A818823A1F45C
:10035000A2E3B0E0E2E3F0E08081482F8981282F1A
:1003600030E081E090E0022E02C0880F991F0A94CD
:10037000E2F7842B8C9314C0A2E3B0E0E2E3F0E058
:100380008081482F8981282F30E081E090E0022E83
:1003900002C0880F991F0A94E2F7809584238C93FA
:1003A0000F900F90CF91DF910895DF93CF9300D0FE
:1003B00000D0CDB7DEB78C838C81883000F58C817E
:1003C0008B83E9E3F0E08081482F50E08B81282F78
:1003D00030E081E090E002C0880F991F2A95E2F793
:1003E0009A01282339238B81882F90E0A90102C02C
:1003F000559547958A95E2F7CA018A8374C08C8126
:10040000883020F18C81803108F58C8188508B8375
:10041000E6E3F0E08081482F50E08B81282F30E028
:1004200081E090E002C0880F991F2A95E2F79A01B7
:10043000282339238B81882F90E0A90102C055958C
:1004400047958A95E2F7CA018A834DC08C81803135
:1004500020F18C81883108F58C8180518B83E6E313
:10046000F0E08081482F50E08B81282F30E081E040
:1004700090E002C0880F991F2A95E2F79A0128237D
:1004800039238B81882F90E0A90102C055954795AB
:100490008A95E2F7CA018A8326C08C81883118F1D7
:1004A0008C81803200F58C8188518B83E0E3F0E011
:1004B0008081482F50E08B81282F30E081E090E050
:1004C00002C0880F991F2A95E2F79A012823392341
:1004D0008B81882F90E0A90102C0559547958A9598
:1004E000E2F7CA018A838A81882319F481E089832B
:1004F00004C08A81813009F4198289810F900F909C
:100500000F900F90CF91DF910895DF93CF93CDB7E8
:10051000DEB7AFE5B0E0EFE5F0E0808180688C9376
:10052000CF91DF910895DF93CF93CDB7DEB7AFE5DD
:10053000B0E0EFE5F0E080818F778C93CF91DF9191
:100540000895DF93CF93CDB7DEB710926900109274
:1005500068008CE061E00E94FC008DE060E00E9499
:10056000FC008EE060E00E94FC008FE060E00E94F2
:10057000FC0080E00E94FC028CE060E00E94FC0035
:100580008DE061E00E94FC008EE060E00E94FC00D3
:100590008FE060E00E94FC0081E00E94FC028CE0A1
:1005A00060E00E94FC008DE060E00E94FC008EE0B4
:1005B00061E00E94FC008FE060E00E94FC0082E0AD
:1005C0000E94FC028CE060E00E94FC008DE060E094
:1005D0000E94FC008EE060E00E94FC008FE061E081
:1005E0000E94FC0083E00E94FC02809168009091D0
:1005F0006900CF91DF910895DF93CF930F92CDB72C
:10060000DEB7898388E00E94D5018130A9F4898111
:10061000282F30E081E090E002C0880F991F2A95D2
:10062000E2F79C018091680090916900822B932BE6
:10063000909369008093680089E00E94D501813021
:10064000C1F48981882F90E09C012C5F3F4F81E0AD
:1006500090E002C0880F991F2A95E2F79C018091D3
:10066000680090916900822B932B9093690080938E
:1006700068008AE00E94D5018130C1F48981882F09
:1006800090E09C01285F3F4F81E090E002C0880F1E
:10069000991F2A95E2F79C0180916800909169006A
:1006A000822B932B90936900809368008BE00E94CB
:1006B000D5018130C1F48981882F90E09C01245FAD
:1006C0003F4F81E090E002C0880F991F2A95E2F722
:1006D0009C018091680090916900822B932B9093EC
:1006E0006900809368000F90CF91DF910895DF93A8
:1006F000CF93CDB7DEB762E370E080E090E00E9478
:10070000490088E30E94B00361E070E080E090E07F
:100710000E9449008CE00E94B00361E070E080E03C
:1007200090E00E94490081E00E94B00362E070E026
:1007300080E090E00E944900CF91DF910895DF931F
:10074000CF930F92CDB7DEB789838DE160E00E9431
:10075000FC0089810E94C1030F90CF91DF91089521
:10076000DF93CF930F92CDB7DEB789838DE161E040
:100770000E94FC0089810E94C1030F90CF91DF91FC
:100780000895DF93CF9300D0CDB7DEB78A838EE193
:1007900061E00E94FC00198234C08A81482F50E039
:1007A0008981282F30E081E090E002C0880F991FF6
:1007B0002A95E2F79A01282339238981882F90E02E
:1007C000A90102C0559547958A95E2F7CA0100979D
:1007D00059F08981882F90E0FC01E05AFF4F808119
:1007E00060E00E94FC000AC08981882F90E0FC0133
:1007F000E05AFF4F808161E00E94FC0089818F5F99
:1008000089838981883048F28FE160E00E94FC0092
:1008100061E070E080E090E00E9449008FE161E0DB
:100820000E94FC000F900F90CF91DF910895DF930D
:10083000CF9300D000D0CDB7DEB79A8389836B8386
:100840004C838C81882F90E000249695879507949F
:10085000969587950794982F802D982F90688B8177
:10086000892B0E94B0030AC0E981FA8180810E942D
:100870009F0389819A8101969A838983E981FA810C
:100880008081882389F70F900F900F900F90CF9160
:10089000DF910895DF93CF9300D0CDB7DEB79A8371
:1008A00089830AC0E981FA8180810E949F0389813E
:1008B0009A8101969A838983E981FA8180818823CC
:1008C00089F70F900F90CF91DF910895DF93CF9329
:1008D000CDB7DEB781E00E94B00362E070E080E057
:1008E00090E00E944900CF91DF910895DF93CF936C
:1008F00000D000D0CDB7DEB79B838A836C838C8118
:10090000882F90E0880F991F880F991F880F991FD3
:1009100080640E94B00319820EC08981282F30E0C4
:100920008A819B81FC01E20FF31F80810E949F035B
:1009300089818F5F89838981883078F30F900F9048
:100940000F900F90CF91DF910895DF93CF9300D058
:100950000F92CDB7DEB789836A834B838B81882F53
:1009600090E000249695879507949695879507942F
:10097000982F802D982F90688A81892B0E94B00330
:1009800089810E949F030F900F900F90CF91DF916C
:100990000895DF93CF930F92CDB7DEB7EBE2F0E08F
:1009A0001082E9E2F0E083E38083898180688983B3
:1009B00089818F7B898389818F7E898389818F7DDE
:1009C00089838981877F89838981826089838981FD
:1009D00084608983AAE2B0E0EAE2F0E080818B7F64
:1009E0008C93E0E4F0E089818083EAE2F0E088E142
:1009F00080830F90CF91DF910895DF93CF930F9273
:100A0000CDB7DEB78983ECE2F0E089818083EBE249
:100A1000F0E08081882F90E080749070082E892FFC
:100A2000000C881F990B000C881F991F009779F301
:100A3000ABE2B0E0EBE2F0E0808180648C930F9059
:100A4000CF91DF910895DF93CF93CDB7DEB7EBE27F
:100A5000F0E08081881F8827881F882F90E09070A1
:100A60000097A9F3ECE2F0E08081CF91DF91089547
:100A7000DF93CF93CDB7DEB7AAE2B0E0EAE2F0E0D1
:100A8000808180688C93CF91DF910895DF93CF931D
:100A9000CDB7DEB7AAE2B0E0EAE2F0E080818F777E
:100AA0008C93CF91DF910895DF93CF9300D000D046
:100AB00000D0CDB7DEB79C838B837E836D83AAE2A3
:100AC000B0E0EAE2F0E080818F778C931A8219829D
:100AD00013C02B813C8189819A81D901A80FB91F4C
:100AE00089819A81FC01E559FF4F80818C9389812E
:100AF0009A8101969A83898380916A00282F30E039
:100B000089819A818217930720F380916A00882F48
:100B100090E0ED81FE819183808310926A00AAE2C9
:100B2000B0E0EAE2F0E0808180688C9326960FB610
:100B3000F894DEBF0FBECDBFCF91DF9108951F9215
:100B40000F920FB60F9211242F938F939F93EF93D1
:100B5000FF93DF93CF93CDB7DEB780916A00882FE4
:100B600090E0ECE2F0E02081FC01E559FF4F2083AA
:100B700080916A008F5F80936A00CF91DF91FF912F
:100B8000EF919F918F912F910F900FBE0F901F901B
:100B90001895DF93CF9300D0CDB7DEB79A838983C2
:100BA0000AC0E981FA8180810E94FD0489819A81CD
:100BB00001969A838983E981FA818081882389F764
:100BC0000F900F90CF91DF910895DF93CF93CDB722
:100BD000DEB72B970FB6F894DEBF0FBECDBF1C82D9
:100BE0008FEF8B830E94E50088E060E00E94FC00AC
:100BF00089E060E00E94FC008AE060E00E94FC0066
:100C00008BE060E00E94FC000E9477030E94C90410
:100C10000E9438050E9485020E94A1029E838D8356
:100C20001A8223C08A81282F30E081E090E002C040
:100C3000880F991F2A95E2F79C018D819E812823B8
:100C400039238A81882F90E0A90102C056954795E3
:100C50008A95E2F7CA01009729F081E08C838A81A6
:100C60008F5F8B838A818F5F8A838A81803118F4BA
:100C70008C818823B9F28B811816ACF58B818A3070
:100C80001CF081E0898323C0198221C08981482F0B
:100C900050E08B819AE0692F0E94AD06892F282FA2
:100CA000205DCE010A96FC01E40FF51F20838B81A5
:100CB0008A3024F089818150898303C089818F5FC4
:100CC00089838B819AE0692F0E94AD068B838B818B
:100CD0008823E1F6CE010A960E94C9058FEF8B8327
:100CE0001C821A861B86CE0107969E01285F3F4F05
:100CF000B9010E945405888599858130910539F4A0
:100D00001886CE0107960E944A041986188662E367
:100D100070E080E090E00E9449007ECF629FD001A9
:100D2000739FF001829FE00DF11D649FE00DF11DA6
:100D3000929FF00D839FF00D749FF00D659FF00D55
:100D40009927729FB00DE11DF91F639FB00DE11D42
:100D5000F91FBD01CF011124089587FB082E062637
:100D600087FD819567FD619527D00EF4919507FC6D
:100D700081950895A1E21A2EAA1BBB1BFD010DC08F
:100D8000AA1FBB1FEE1FFF1FA217B307E407F5073B
:100D900020F0A21BB30BE40BF50B661F771F881F17
:100DA000991F1A9469F760957095809590959B01AD
:100DB000AC01BD01CF010895991B79E004C0991FD2
:100DC000961708F0961B881F7A95C9F780950895A5
:040DD000F894FFCFC5
:080DD40010111213141516177B
:00000001FF
