:100000000C942A000C9434000C9434000C943400AA
:100010000C9434000C9434000C9434000C94340090
:100020000C9434000C9434000C9434000C94340080
:100030000C9434000C9434000C9434000C94340070
:100040000C9434000C9434000C9434000C94340060
:100050000C94340011241FBECFE5D8E0DEBFCDBF25
:100060000E9490020C940B050C940000DF93CF9338
:10007000CDB7DEB72C970FB6F894DEBF0FBECDBF5D
:1000800069877A878B879C8789859A85AB85BC85AC
:1000900022E731E040E050E0BC01CD010E94A30422
:1000A000DC01CB0189839A83AB83BC831D821E82D2
:1000B0001F8218860CC000008D819E81AF81B8859B
:1000C0000196A11DB11D8D839E83AF83B8872D81BD
:1000D0003E814F81588589819A81AB81BC812817E7
:1000E00039074A075B0738F32C960FB6F894DEBF42
:1000F0000FBECDBFCF91DF910895DF93CF93CDB7E2
:10010000DEB72C970FB6F894DEBF0FBECDBF698760
:100110007A878B879C8789859A85AB85BC8527E7FD
:1001200031E040E050E0BC01CD010E94A304DC01BD
:10013000CB01895D9444A040B04028EE33E040E01C
:1001400050E0BC01CD010E94D504DA01C9018983C8
:100150009A83AB83BC831D821E821F8218860CC0CB
:1001600000008D819E81AF81B8850196A11DB11DD2
:100170008D839E83AF83B8872D813E814F815885C3
:1001800089819A81AB81BC81281739074A075B07AF
:1001900038F32C960FB6F894DEBF0FBECDBFCF91CB
:1001A000DF910895DF93CF93CDB7DEB7EAE3F0E0B8
:1001B00083E08083E7E3F0E083E08083E4E3F0E042
:1001C00083E08083E1E3F0E083E08083CF91DF91FF
:1001D0000895DF93CF9300D0CDB7DEB789836A83CC
:1001E0008981883060F58A818823A1F4ABE3B0E08F
:1001F000EBE3F0E08081482F8981282F30E081E017
:1002000090E0022E02C0880F991F0A94E2F7842B17
:100210008C93B3C0ABE3B0E0EBE3F0E08081482F18
:100220008981282F30E081E090E0022E02C0880F03
:10023000991F0A94E2F7809584238C939EC089814C
:10024000883090F18981803178F58981885089835F
:100250008A818823A1F4A8E3B0E0E8E3F0E080819C
:10026000482F8981282F30E081E090E0022E02C0E3
:10027000880F991F0A94E2F7842B8C937EC0A8E321
:10028000B0E0E8E3F0E08081482F8981282F30E05A
:1002900081E090E0022E02C0880F991F0A94E2F7D5
:1002A000809584238C9369C08981803190F1898104
:1002B000883178F58981805189838A818823A1F4E6
:1002C000A5E3B0E0E5E3F0E08081482F8981282FA5
:1002D00030E081E090E0022E02C0880F991F0A945E
:1002E000E2F7842B8C9349C0A5E3B0E0E5E3F0E0AE
:1002F0008081482F8981282F30E081E090E0022E14
:1003000002C0880F991F0A94E2F7809584238C938A
:1003100034C08981883188F18981803270F5898182
:10032000885189838A818823A1F4A2E3B0E0E2E3C3
:10033000F0E08081482F8981282F30E081E090E033
:10034000022E02C0880F991F0A94E2F7842B8C9327
:1003500014C0A2E3B0E0E2E3F0E08081482F89819D
:10036000282F30E081E090E0022E02C0880F991F14
:100370000A94E2F7809584238C930F900F90CF918D
:10038000DF910895DF93CF9300D00F92CDB7DEB702
:1003900089838981282F30E03B832A838A819B814E
:1003A00083309105C1F12A813B81243031057CF4F1
:1003B0008A819B818130910521F12A813B81223004
:1003C000310524F58A819B810097B1F03CC02A81D8
:1003D0003B812530310549F18A819B81853091052A
:1003E000FCF02A813B812630310521F18A819B81F5
:1003F0008730910521F127C080E060E00E94E9008C
:1004000022C081E061E00E94E9001DC088E060E058
:100410000E94E90018C089E061E00E94E90013C071
:1004200080E160E00E94E9000EC081E161E00E948D
:10043000E90009C088E160E00E94E90004C089E1A8
:1004400061E00E94E9000F900F900F90CF91DF9133
:100450000895DF93CF9300D00F92CDB7DEB7898395
:100460008981282F30E03B832A838A819B818330D6
:100470009105C1F12A813B81243031057CF48A81C8
:100480009B818130910521F12A813B812230310508
:1004900024F58A819B810097B1F03CC02A813B8181
:1004A0002530310549F18A819B8185309105FCF029
:1004B0002A813B812630310521F18A819B81873059
:1004C000910521F127C080E061E00E94E90022C08F
:1004D00081E060E00E94E9001DC088E061E00E94C8
:1004E000E90018C089E060E00E94E90013C080E1E3
:1004F00061E00E94E9000EC081E160E00E94E90035
:1005000009C088E161E00E94E90004C089E160E07F
:100510000E94E9000F900F900F90CF91DF91089506
:10052000DF93CF93CDB7DEB70E94D20080E00E9468
:10053000290281E00E94290282E00E94290283E0D0
:100540000E94290284E00E94290285E00E9429027B
:1005500086E00E94290287E00E9429020E94BD02D3
:100560000E948E030E948E030E94CC030E94CC0343
:100570000E94CC030E940F04F1CFDF93CF9300D0F1
:10058000CDB7DEB71A825DC08A8187700E94C20132
:100590008A81882F90E0019628E030E0B9010E941E
:1005A000C2040E9429028A81882F90E0029628E0E6
:1005B00030E0B9010E94C2040E9429028A81882F7A
:1005C00090E0039628E030E0B9010E94C2040E9446
:1005D00029028A81882F90E0049628E030E0B90152
:1005E0000E94C2040E9429028A81882F90E0059609
:1005F00028E030E0B9010E94C2040E9429028A81E9
:10060000882F90E0069628E030E0B9010E94C204ED
:100610000E9429028A81882F90E0079628E030E026
:10062000B9010E94C2040E9429028A81873031F0F8
:100630006CE271E080E090E00E9436008A818F5F7A
:100640008A838A81883008F49FCF88E089835DC0DF
:100650008981882F90E0019728E030E0B9010E945D
:10066000C2040E94C201898187700E942902898187
:10067000882F90E0019628E030E0B9010E94C20482
:100680000E9429028981882F90E0029628E030E0BC
:10069000B9010E94C2040E9429028981882F90E03A
:1006A000039628E030E0B9010E94C2040E942902AA
:1006B0008981882F90E0049628E030E0B9010E94FB
:1006C000C2040E9429028981882F90E0059628E0C3
:1006D00030E0B9010E94C2040E9429028981882F5A
:1006E00090E0069628E030E0B9010E94C2040E9422
:1006F00029028981813031F06CE271E080E090E084
:100700000E9436008981815089838981882309F07C
:100710009FCF0F900F90CF91DF910895DF93CF93EC
:1007200000D0CDB7DEB71A8213C08A810E94C20101
:1007300097E08A81292F281B822F0E94C2016CE238
:1007400071E080E090E00E9436008A818F5F8A83AA
:100750008A81843050F383E0898316C089810E94A6
:10076000290297E08981292F281B822F0E942902C4
:100770008981833031F06CE271E080E090E00E948A
:10078000360089818F5F89838981883038F30F90A3
:100790000F90CF91DF910895DF93CF93CDB7DEB760
:1007A00080E00E94C20181E00E94C20182E00E94BA
:1007B000C20183E00E94C20184E00E94C20185E080
:1007C0000E94C20186E00E94C20187E00E94C2012D
:1007D00064EF71E080E090E00E94360080E00E94CB
:1007E000290281E00E94290282E00E94290283E01E
:1007F0000E94290284E00E94290285E00E942902C9
:1008000086E00E94290287E00E94290264EF71E0DD
:1008100080E090E00E943600CF91DF910895DF9351
:10082000CF9300D0CDB7DEB71A8281E0898389816A
:100830008A838A81882F90E080589040992334F0F1
:100840008A8180588A8387E00E94C2018A81882F2A
:1008500090E080549040992334F08A8180548A83B8
:1008600086E00E94C2018A81882F90E080979923B8
:1008700034F08A8180528A8385E00E94C2018A8195
:10088000882F90E04097992334F08A8180518A83A1
:1008900084E00E94C2018A81882F90E00897992302
:1008A00034F08A8188508A8383E00E94C2018A8161
:1008B000882F90E00497992334F08A8184508A83AA
:1008C00082E00E94C2018A81882F90E002979923DA
:1008D00034F08A8182508A8381E00E94C2018A8139
:1008E000882F90E00197992334F08A8181508A8380
:1008F00080E00E94C2016CE271E080E090E00E9422
:10090000360080E00E94290281E00E94290282E0F4
:100910000E94290283E00E94290284E00E942902A9
:1009200085E00E94290286E00E94290287E00E9459
:1009300029026CE271E080E090E00E94360089813B
:100940008F5F898374CF629FD001739FF001829F74
:10095000E00DF11D649FE00DF11D929FF00D839F4E
:10096000F00D749FF00D659FF00D9927729FB00DEB
:10097000E11DF91F639FB00DE11DF91FBD01CF01FE
:100980001124089597FB092E07260AD077FD04D07D
:100990002ED006D000201AF4709561957F4F0895EF
:1009A000F6F7909581959F4F0895A1E21A2EAA1B04
:1009B000BB1BFD010DC0AA1FBB1FEE1FFF1FA2170F
:1009C000B307E407F50720F0A21BB30BE40BF50B0C
:1009D000661F771F881F991F1A9469F76095709595
:1009E000809590959B01AC01BD01CF010895AA1B94
:1009F000BB1B51E107C0AA1FBB1FA617B70710F00A
:100A0000A61BB70B881F991F5A95A9F7809590953B
:0A0A1000BC01CD010895F894FFCF5A
:00000001FF
