:100000000C942A000C9434000C9434000C943400AA
:100010000C9434000C9434000C9434000C94340090
:100020000C9434000C9434000C9434000C94340080
:100030000C9434000C9434000C9434000C94340070
:100040000C9434000C9434000C9434000C94340060
:100050000C94340011241FBECFE5D8E0DEBFCDBF25
:100060000E9411030C9466050C940000DF93CF935B
:10007000CDB7DEB72C970FB6F894DEBF0FBECDBF5D
:1000800069877A878B879C8789859A85AB85BC85AC
:1000900022E731E040E050E0BC01CD010E9425059F
:1000A000DC01CB0189839A83AB83BC831D821E82D2
:1000B0001F8218860CC000008D819E81AF81B8859B
:1000C0000196A11DB11D8D839E83AF83B8872D81BD
:1000D0003E814F81588589819A81AB81BC812817E7
:1000E00039074A075B0738F32C960FB6F894DEBF42
:1000F0000FBECDBFCF91DF910895DF93CF93CDB7E2
:10010000DEB72C970FB6F894DEBF0FBECDBF698760
:100110007A878B879C8789859A85AB85BC8527E7FD
:1001200031E040E050E0BC01CD010E942505DC013A
:10013000CB01895D9444A040B04028EE33E040E01C
:1001400050E0BC01CD010E944405DA01C901898358
:100150009A83AB83BC831D821E821F8218860CC0CB
:1001600000008D819E81AF81B8850196A11DB11DD2
:100170008D839E83AF83B8872D813E814F815885C3
:1001800089819A81AB81BC81281739074A075B07AF
:1001900038F32C960FB6F894DEBF0FBECDBFCF91CB
:1001A000DF910895DF93CF93CDB7DEB7EAE3F0E0B8
:1001B0001082E7E3F0E087E08083E4E3F0E0108280
:1001C000E1E3F0E08FEF8083CF91DF910895DF933B
:1001D000CF9300D0CDB7DEB789836A838981883019
:1001E00060F58A818823A1F4ABE3B0E0EBE3F0E0B3
:1001F0008081482F8981282F30E081E090E0022E15
:1002000002C0880F991F0A94E2F7842B8C93B3C025
:10021000ABE3B0E0EBE3F0E08081482F8981282F49
:1002200030E081E090E0022E02C0880F991F0A940E
:10023000E2F7809584238C939EC08981883090F169
:100240008981803178F58981885089838A818823E2
:10025000A1F4A8E3B0E0E8E3F0E08081482F8981D1
:10026000282F30E081E090E0022E02C0880F991F15
:100270000A94E2F7842B8C937EC0A8E3B0E0E8E315
:10028000F0E08081482F8981282F30E081E090E0E4
:10029000022E02C0880F991F0A94E2F780958423EA
:1002A0008C9369C08981803190F18981883178F59A
:1002B0008981805189838A818823A1F4A5E3B0E0F4
:1002C000E5E3F0E08081482F8981282F30E081E04C
:1002D00090E0022E02C0880F991F0A94E2F7842B47
:1002E0008C9349C0A5E3B0E0E5E3F0E08081482FBE
:1002F0008981282F30E081E090E0022E02C0880F33
:10030000991F0A94E2F7809584238C9334C08981E5
:10031000883188F18981803270F58981885189839B
:100320008A818823A1F4A2E3B0E0E2E3F0E08081D7
:10033000482F8981282F30E081E090E0022E02C012
:10034000880F991F0A94E2F7842B8C9314C0A2E3C0
:10035000B0E0E2E3F0E08081482F8981282F30E08F
:1003600081E090E0022E02C0880F991F0A94E2F704
:10037000809584238C930F900F90CF91DF910895F7
:10038000DF93CF93CDB7DEB762E370E080E090E01B
:100390000E94360088E30E94F90164E670E080E084
:1003A00090E00E947D0088E00E94F90164E670E020
:1003B00080E090E00E947D0081E00E94F90162E00F
:1003C00070E080E090E00E943600CF91DF910895C8
:1003D000DF93CF930F92CDB7DEB7898388E060E0DB
:1003E0000E94E70089810E940A020F90CF91DF915D
:1003F0000895DF93CF930F92CDB7DEB7898388E05E
:1004000061E00E94E70089810E940A020F90CF916B
:10041000DF910895DF93CF930F92CDB7DEB7898335
:1004200089E061E00E94E7008981882F90E0817077
:100430009070882329F088E160E00E94E70004C002
:1004400088E161E00E94E7008981882F90E0827056
:10045000907095958795009729F089E160E00E945A
:10046000E70004C089E161E00E94E7008981882FEC
:1004700090E08470907095958795959587950097F5
:1004800029F08AE160E00E94E70004C08AE161E0AF
:100490000E94E7008981882F90E088709070959580
:1004A00087959595879595958795009729F08BE188
:1004B00060E00E94E70004C08BE161E00E94E70079
:1004C0008981882F90E0807190709595879595959A
:1004D00087959595879595958795009729F08CE157
:1004E00060E00E94E70004C08CE161E00E94E70048
:1004F0008981882F90E08072907095958795959569
:100500008795959587959595879595958795009766
:1005100029F08DE160E00E94E70004C08DE161E018
:100520000E94E7008981882F90E080749070082EE7
:10053000892F000C881F990B000C881F991F0097AA
:1005400029F08EE160E00E94E70004C08EE161E0E6
:100550000E94E7008981881F8827881F882F90E0E4
:100560009070009729F08FE160E00E94E70004C0DE
:100570008FE161E00E94E7008AE060E00E94E7000E
:1005800064E670E080E090E00E947D008AE061E037
:100590000E94E7000F90CF91DF910895DF93CF93F2
:1005A00000D000D0CDB7DEB79A8389836B834C83AC
:1005B0008C81882F90E000249695879507949695D6
:1005C00087950794982F802D982F90688B81892B81
:1005D0000E94F9010AC0E981FA8180810E94E80144
:1005E00089819A8101969A838983E981FA81808140
:1005F000882389F70F900F900F900F90CF91DF9184
:100600000895DF93CF93CDB7DEB781E00E94F90163
:100610006CED75E080E090E00E947D00CF91DF916D
:100620000895DF93CF93CDB7DEB70E94D2000E942A
:10063000C00180E40E94F90181E10E94E8018AE0A2
:100640000E94E8018FE10E94E8018BE10E94E8012D
:1006500081E10E94E8018FE10E94E80180E00E94B0
:10066000E80180E00E94E80185E10E94E8018AE05B
:100670000E94E8018FE10E94E8018BE10E94E801FD
:1006800081E10E94E8018FE10E94E8018AE00E9476
:10069000E8018FE10E94E80180E00E94E8018EE815
:1006A0000E94F90181E00E94E8018DE80E94F901B1
:1006B00082E00E94E8018CE80E94F90183E00E9438
:1006C000E8010E94C00180E80E94F90180E00E94D8
:1006D000E8018FEF0E94E8018FEF0E94E8018FEFA1
:1006E0000E94E8018FEF0E94E8018FEF0E94E8016D
:1006F0008FEF0E94E8018FEF0E94E80168EE73E03F
:1007000080E090E00E9436000E9401038EEF0E947C
:10071000E80181E00E94E8018FEF0E94E8018FEF7D
:100720000E94E8018FEF0E94E8018FEF0E94E8012C
:100730008FEF0E94E8018FEF0E94E80168EE73E0FE
:1007400080E090E00E9436000E9401038EEF0E943C
:10075000E8018FEF0E94E80181E00E94E8018FEF3D
:100760000E94E8018FEF0E94E8018FEF0E94E801EC
:100770008FEF0E94E8018FEF0E94E80168EE73E0BE
:1007800080E090E00E9436000E9401038EEF0E94FC
:10079000E8018FEF0E94E8018FEF0E94E80181E0FD
:1007A0000E94E8018FEF0E94E8018FEF0E94E801AC
:1007B0008FEF0E94E8018FEF0E94E80168EE73E07E
:1007C00080E090E00E9436000E9401038EEF0E94BC
:1007D000E8018FEF0E94E8018FEF0E94E8018FEFA0
:1007E0000E94E80181E00E94E8018FEF0E94E80189
:1007F0008FEF0E94E8018FEF0E94E80168EE73E03E
:1008000080E090E00E9436000E9401038EEF0E947B
:10081000E8018FEF0E94E8018FEF0E94E8018FEF5F
:100820000E94E8018FEF0E94E80181E00E94E80148
:100830008FEF0E94E8018FEF0E94E80168EE73E0FD
:1008400080E090E00E9436000E9401038EEF0E943B
:10085000E8018FEF0E94E8018FEF0E94E8018FEF1F
:100860000E94E8018FEF0E94E8018FEF0E94E801EB
:1008700081E00E94E8018FEF0E94E80168EE73E0DA
:1008800080E090E00E9436000E9401038EEF0E94FB
:10089000E8018FEF0E94E8018FEF0E94E8018FEFDF
:1008A0000E94E8018FEF0E94E8018FEF0E94E801AB
:1008B0008FEF0E94E80181E00E94E80168EE73E09A
:1008C00080E090E00E9436000E9401038EEF0E94BB
:1008D000E8018FEF0E94E8018FEF0E94E8018FEF9F
:1008E0000E94E8018FEF0E94E8018FEF0E94E8016B
:1008F00081E00E94E8018FEF0E94E80168EE73E05A
:1009000080E090E00E9436000E9401038EEF0E947A
:10091000E8018FEF0E94E8018FEF0E94E8018FEF5E
:100920000E94E8018FEF0E94E80181E00E94E80147
:100930008FEF0E94E8018FEF0E94E80168EE73E0FC
:1009400080E090E00E9436000E9401038EEF0E943A
:10095000E8018FEF0E94E8018FEF0E94E8018FEF1E
:100960000E94E80181E00E94E8018FEF0E94E80107
:100970008FEF0E94E8018FEF0E94E80168EE73E0BC
:1009800080E090E00E9436000E9401038EEF0E94FA
:10099000E8018FEF0E94E8018FEF0E94E80181E0FB
:1009A0000E94E8018FEF0E94E8018FEF0E94E801AA
:1009B0008FEF0E94E8018FEF0E94E80168EE73E07C
:1009C00080E090E00E9436000E9401038EEF0E94BA
:1009D000E8018FEF0E94E80181E00E94E8018FEFBB
:1009E0000E94E8018FEF0E94E8018FEF0E94E8016A
:1009F0008FEF0E94E8018FEF0E94E80168EE73E03C
:100A000080E090E00E9436000E9401038EEF0E9479
:100A1000E80181E00E94E8018FEF0E94E8018FEF7A
:100A20000E94E8018FEF0E94E8018FEF0E94E80129
:100A30008FEF0E94E8018FEF0E94E80168EE73E0FB
:100A400080E090E00E9436003CCE629FD001739F10
:100A5000F001829FE00DF11D649FE00DF11D929F5A
:100A6000F00D839FF00D749FF00D659FF00D992799
:100A7000729FB00DE11DF91F639FB00DE11DF91FBD
:100A8000BD01CF0111240895A1E21A2EAA1BBB1BA0
:100A9000FD010DC0AA1FBB1FEE1FFF1FA217B3074A
:100AA000E407F50720F0A21BB30BE40BF50B661F60
:100AB000771F881F991F1A9469F760957095809524
:100AC00090959B01AC01BD01CF010895F894FFCF33
:00000001FF
